{
  "contractName": "ForTheLolzItem",
  "abi": [
    {
      "inputs": [
        {
          "internalType": "address payable",
          "name": "_creator",
          "type": "address"
        },
        {
          "internalType": "string",
          "name": "_name",
          "type": "string"
        },
        {
          "internalType": "uint256",
          "name": "_firstSaleCreatorPercentage",
          "type": "uint256"
        },
        {
          "internalType": "uint256",
          "name": "_creatorPercentageFee",
          "type": "uint256"
        },
        {
          "internalType": "uint256",
          "name": "_agencyPercentageFee",
          "type": "uint256"
        }
      ],
      "stateMutability": "nonpayable",
      "type": "constructor"
    },
    {
      "anonymous": false,
      "inputs": [
        {
          "indexed": true,
          "internalType": "address",
          "name": "owner",
          "type": "address"
        },
        {
          "indexed": true,
          "internalType": "address",
          "name": "approved",
          "type": "address"
        },
        {
          "indexed": true,
          "internalType": "uint256",
          "name": "tokenId",
          "type": "uint256"
        }
      ],
      "name": "Approval",
      "type": "event"
    },
    {
      "anonymous": false,
      "inputs": [
        {
          "indexed": true,
          "internalType": "address",
          "name": "owner",
          "type": "address"
        },
        {
          "indexed": true,
          "internalType": "address",
          "name": "operator",
          "type": "address"
        },
        {
          "indexed": false,
          "internalType": "bool",
          "name": "approved",
          "type": "bool"
        }
      ],
      "name": "ApprovalForAll",
      "type": "event"
    },
    {
      "anonymous": false,
      "inputs": [
        {
          "indexed": true,
          "internalType": "address",
          "name": "previousOwner",
          "type": "address"
        },
        {
          "indexed": true,
          "internalType": "address",
          "name": "newOwner",
          "type": "address"
        }
      ],
      "name": "OwnershipTransferred",
      "type": "event"
    },
    {
      "anonymous": false,
      "inputs": [
        {
          "indexed": false,
          "internalType": "uint256",
          "name": "tokenId",
          "type": "uint256"
        },
        {
          "components": [
            {
              "internalType": "address payable",
              "name": "account",
              "type": "address"
            },
            {
              "internalType": "uint96",
              "name": "value",
              "type": "uint96"
            }
          ],
          "indexed": false,
          "internalType": "struct LibPart.Part[]",
          "name": "royalties",
          "type": "tuple[]"
        }
      ],
      "name": "RoyaltiesSet",
      "type": "event"
    },
    {
      "anonymous": false,
      "inputs": [
        {
          "indexed": false,
          "internalType": "address",
          "name": "owner",
          "type": "address"
        },
        {
          "indexed": false,
          "internalType": "address payable",
          "name": "creator",
          "type": "address"
        },
        {
          "indexed": false,
          "internalType": "uint256",
          "name": "salesPrice",
          "type": "uint256"
        },
        {
          "indexed": false,
          "internalType": "uint256",
          "name": "agencyFee",
          "type": "uint256"
        },
        {
          "indexed": false,
          "internalType": "uint256",
          "name": "creatorFee",
          "type": "uint256"
        }
      ],
      "name": "RoyaltyPayout",
      "type": "event"
    },
    {
      "anonymous": false,
      "inputs": [
        {
          "indexed": true,
          "internalType": "address",
          "name": "from",
          "type": "address"
        },
        {
          "indexed": true,
          "internalType": "address",
          "name": "to",
          "type": "address"
        },
        {
          "indexed": true,
          "internalType": "uint256",
          "name": "tokenId",
          "type": "uint256"
        }
      ],
      "name": "Transfer",
      "type": "event"
    },
    {
      "inputs": [
        {
          "internalType": "address",
          "name": "to",
          "type": "address"
        },
        {
          "internalType": "uint256",
          "name": "tokenId",
          "type": "uint256"
        }
      ],
      "name": "approve",
      "outputs": [],
      "stateMutability": "nonpayable",
      "type": "function"
    },
    {
      "inputs": [
        {
          "internalType": "address",
          "name": "owner",
          "type": "address"
        }
      ],
      "name": "balanceOf",
      "outputs": [
        {
          "internalType": "uint256",
          "name": "",
          "type": "uint256"
        }
      ],
      "stateMutability": "view",
      "type": "function"
    },
    {
      "inputs": [
        {
          "internalType": "uint256",
          "name": "tokenId",
          "type": "uint256"
        }
      ],
      "name": "getApproved",
      "outputs": [
        {
          "internalType": "address",
          "name": "",
          "type": "address"
        }
      ],
      "stateMutability": "view",
      "type": "function"
    },
    {
      "inputs": [
        {
          "internalType": "address",
          "name": "owner",
          "type": "address"
        },
        {
          "internalType": "address",
          "name": "operator",
          "type": "address"
        }
      ],
      "name": "isApprovedForAll",
      "outputs": [
        {
          "internalType": "bool",
          "name": "",
          "type": "bool"
        }
      ],
      "stateMutability": "view",
      "type": "function"
    },
    {
      "inputs": [],
      "name": "name",
      "outputs": [
        {
          "internalType": "string",
          "name": "",
          "type": "string"
        }
      ],
      "stateMutability": "view",
      "type": "function"
    },
    {
      "inputs": [],
      "name": "owner",
      "outputs": [
        {
          "internalType": "address",
          "name": "",
          "type": "address"
        }
      ],
      "stateMutability": "view",
      "type": "function"
    },
    {
      "inputs": [
        {
          "internalType": "uint256",
          "name": "tokenId",
          "type": "uint256"
        }
      ],
      "name": "ownerOf",
      "outputs": [
        {
          "internalType": "address",
          "name": "",
          "type": "address"
        }
      ],
      "stateMutability": "view",
      "type": "function"
    },
    {
      "inputs": [],
      "name": "renounceOwnership",
      "outputs": [],
      "stateMutability": "nonpayable",
      "type": "function"
    },
    {
      "inputs": [
        {
          "internalType": "address",
          "name": "from",
          "type": "address"
        },
        {
          "internalType": "address",
          "name": "to",
          "type": "address"
        },
        {
          "internalType": "uint256",
          "name": "tokenId",
          "type": "uint256"
        }
      ],
      "name": "safeTransferFrom",
      "outputs": [],
      "stateMutability": "nonpayable",
      "type": "function"
    },
    {
      "inputs": [
        {
          "internalType": "address",
          "name": "from",
          "type": "address"
        },
        {
          "internalType": "address",
          "name": "to",
          "type": "address"
        },
        {
          "internalType": "uint256",
          "name": "tokenId",
          "type": "uint256"
        },
        {
          "internalType": "bytes",
          "name": "_data",
          "type": "bytes"
        }
      ],
      "name": "safeTransferFrom",
      "outputs": [],
      "stateMutability": "nonpayable",
      "type": "function"
    },
    {
      "inputs": [
        {
          "internalType": "address",
          "name": "operator",
          "type": "address"
        },
        {
          "internalType": "bool",
          "name": "approved",
          "type": "bool"
        }
      ],
      "name": "setApprovalForAll",
      "outputs": [],
      "stateMutability": "nonpayable",
      "type": "function"
    },
    {
      "inputs": [],
      "name": "symbol",
      "outputs": [
        {
          "internalType": "string",
          "name": "",
          "type": "string"
        }
      ],
      "stateMutability": "view",
      "type": "function"
    },
    {
      "inputs": [
        {
          "internalType": "uint256",
          "name": "index",
          "type": "uint256"
        }
      ],
      "name": "tokenByIndex",
      "outputs": [
        {
          "internalType": "uint256",
          "name": "",
          "type": "uint256"
        }
      ],
      "stateMutability": "view",
      "type": "function"
    },
    {
      "inputs": [
        {
          "internalType": "address",
          "name": "owner",
          "type": "address"
        },
        {
          "internalType": "uint256",
          "name": "index",
          "type": "uint256"
        }
      ],
      "name": "tokenOfOwnerByIndex",
      "outputs": [
        {
          "internalType": "uint256",
          "name": "",
          "type": "uint256"
        }
      ],
      "stateMutability": "view",
      "type": "function"
    },
    {
      "inputs": [],
      "name": "totalSupply",
      "outputs": [
        {
          "internalType": "uint256",
          "name": "",
          "type": "uint256"
        }
      ],
      "stateMutability": "view",
      "type": "function"
    },
    {
      "inputs": [
        {
          "internalType": "address",
          "name": "from",
          "type": "address"
        },
        {
          "internalType": "address",
          "name": "to",
          "type": "address"
        },
        {
          "internalType": "uint256",
          "name": "tokenId",
          "type": "uint256"
        }
      ],
      "name": "transferFrom",
      "outputs": [],
      "stateMutability": "nonpayable",
      "type": "function"
    },
    {
      "inputs": [
        {
          "internalType": "address",
          "name": "newOwner",
          "type": "address"
        }
      ],
      "name": "transferOwnership",
      "outputs": [],
      "stateMutability": "nonpayable",
      "type": "function"
    },
    {
      "stateMutability": "payable",
      "type": "receive"
    },
    {
      "inputs": [
        {
          "internalType": "address payable",
          "name": "_creator",
          "type": "address"
        }
      ],
      "name": "changeCreator",
      "outputs": [],
      "stateMutability": "nonpayable",
      "type": "function"
    },
    {
      "inputs": [
        {
          "internalType": "uint256",
          "name": "_firstSaleCreatorPercentage",
          "type": "uint256"
        }
      ],
      "name": "changeFirstSaleCreatorFees",
      "outputs": [],
      "stateMutability": "nonpayable",
      "type": "function"
    },
    {
      "inputs": [
        {
          "internalType": "uint256",
          "name": "_creatorPercentageFee",
          "type": "uint256"
        },
        {
          "internalType": "uint256",
          "name": "_agencyPercentageFee",
          "type": "uint256"
        }
      ],
      "name": "changeFees",
      "outputs": [],
      "stateMutability": "nonpayable",
      "type": "function"
    },
    {
      "inputs": [
        {
          "internalType": "contract ForTheLolzForSale",
          "name": "collection",
          "type": "address"
        }
      ],
      "name": "changeForSaleCollection",
      "outputs": [],
      "stateMutability": "nonpayable",
      "type": "function"
    },
    {
      "inputs": [
        {
          "internalType": "address",
          "name": "_to",
          "type": "address"
        },
        {
          "internalType": "uint256",
          "name": "_tokenId",
          "type": "uint256"
        }
      ],
      "name": "mint",
      "outputs": [],
      "stateMutability": "nonpayable",
      "type": "function"
    },
    {
      "inputs": [
        {
          "internalType": "uint256",
          "name": "forSaleTokenId",
          "type": "uint256"
        }
      ],
      "name": "buyToken",
      "outputs": [],
      "stateMutability": "payable",
      "type": "function"
    },
    {
      "inputs": [
        {
          "internalType": "bytes4",
          "name": "interfaceId",
          "type": "bytes4"
        }
      ],
      "name": "supportsInterface",
      "outputs": [
        {
          "internalType": "bool",
          "name": "",
          "type": "bool"
        }
      ],
      "stateMutability": "view",
      "type": "function"
    },
    {
      "inputs": [
        {
          "internalType": "uint256",
          "name": "tokenId",
          "type": "uint256"
        }
      ],
      "name": "tokenURI",
      "outputs": [
        {
          "internalType": "string",
          "name": "",
          "type": "string"
        }
      ],
      "stateMutability": "view",
      "type": "function"
    },
    {
      "inputs": [
        {
          "internalType": "uint256",
          "name": "",
          "type": "uint256"
        },
        {
          "internalType": "uint256",
          "name": "_salePrice",
          "type": "uint256"
        }
      ],
      "name": "royaltyInfo",
      "outputs": [
        {
          "internalType": "address",
          "name": "receiver",
          "type": "address"
        },
        {
          "internalType": "uint256",
          "name": "royaltyAmount",
          "type": "uint256"
        }
      ],
      "stateMutability": "view",
      "type": "function"
    },
    {
      "inputs": [
        {
          "internalType": "uint256",
          "name": "",
          "type": "uint256"
        }
      ],
      "name": "getRaribleV2Royalties",
      "outputs": [
        {
          "components": [
            {
              "internalType": "address payable",
              "name": "account",
              "type": "address"
            },
            {
              "internalType": "uint96",
              "name": "value",
              "type": "uint96"
            }
          ],
          "internalType": "struct LibPart.Part[]",
          "name": "",
          "type": "tuple[]"
        }
      ],
      "stateMutability": "view",
      "type": "function"
    }
  ],
  "bytecode": "0x60806040523480156200001157600080fd5b5060405162004f4538038062004f458339818101604052810190620000379190620004dc565b836040518060400160405280600381526020017f4d544100000000000000000000000000000000000000000000000000000000008152506200008e620000826200012360201b60201c565b6200012b60201b60201c565b8160019080519060200190620000a6929190620001ef565b508060029080519060200190620000bf929190620001ef565b50505084600d60006101000a81548173ffffffffffffffffffffffffffffffffffffffff021916908373ffffffffffffffffffffffffffffffffffffffff16021790555081600e8190555080600f81905550826010819055505050505050620005e8565b600033905090565b60008060009054906101000a900473ffffffffffffffffffffffffffffffffffffffff169050816000806101000a81548173ffffffffffffffffffffffffffffffffffffffff021916908373ffffffffffffffffffffffffffffffffffffffff1602179055508173ffffffffffffffffffffffffffffffffffffffff168173ffffffffffffffffffffffffffffffffffffffff167f8be0079c531659141344cd1fd0a4f28419497f9722a3daafe3b4186f6b6457e060405160405180910390a35050565b828054620001fd90620005b2565b90600052602060002090601f0160209004810192826200022157600085556200026d565b82601f106200023c57805160ff19168380011785556200026d565b828001600101855582156200026d579182015b828111156200026c5782518255916020019190600101906200024f565b5b5090506200027c919062000280565b5090565b5b808211156200029b57600081600090555060010162000281565b5090565b6000604051905090565b600080fd5b600080fd5b600073ffffffffffffffffffffffffffffffffffffffff82169050919050565b6000620002e082620002b3565b9050919050565b620002f281620002d3565b8114620002fe57600080fd5b50565b6000815190506200031281620002e7565b92915050565b600080fd5b600080fd5b6000601f19601f8301169050919050565b7f4e487b7100000000000000000000000000000000000000000000000000000000600052604160045260246000fd5b6200036d8262000322565b810181811067ffffffffffffffff821117156200038f576200038e62000333565b5b80604052505050565b6000620003a46200029f565b9050620003b2828262000362565b919050565b600067ffffffffffffffff821115620003d557620003d462000333565b5b620003e08262000322565b9050602081019050919050565b60005b838110156200040d578082015181840152602081019050620003f0565b838111156200041d576000848401525b50505050565b60006200043a6200043484620003b7565b62000398565b9050828152602081018484840111156200045957620004586200031d565b5b62000466848285620003ed565b509392505050565b600082601f83011262000486576200048562000318565b5b81516200049884826020860162000423565b91505092915050565b6000819050919050565b620004b681620004a1565b8114620004c257600080fd5b50565b600081519050620004d681620004ab565b92915050565b600080600080600060a08688031215620004fb57620004fa620002a9565b5b60006200050b8882890162000301565b955050602086015167ffffffffffffffff8111156200052f576200052e620002ae565b5b6200053d888289016200046e565b94505060406200055088828901620004c5565b93505060606200056388828901620004c5565b92505060806200057688828901620004c5565b9150509295509295909350565b7f4e487b7100000000000000000000000000000000000000000000000000000000600052602260045260246000fd5b60006002820490506001821680620005cb57607f821691505b60208210811415620005e257620005e162000583565b5b50919050565b61494d80620005f86000396000f3fe6080604052600436106101a05760003560e01c80636352211e116100ec578063a22cb4651161008a578063cad96cca11610064578063cad96cca14610753578063d28a66aa14610790578063e985e9c5146107b9578063f2fde38b146107f657610315565b8063a22cb465146106c4578063b88d4fde146106ed578063c87b56dd1461071657610315565b806374580e2f116100c657806374580e2f1461061c5780638da5cb5b1461064557806395d89b41146106705780639ade505b1461069b57610315565b80636352211e1461058b57806370a08231146105c8578063715018a61461060557610315565b806323b872dd116101595780632f745c59116101335780632f745c59146104bf57806340c10f19146104fc57806342842e0e146105255780634f6ccce71461054e57610315565b806323b872dd1461043c5780632a55205a146104655780632d296bf1146104a357610315565b806301ffc9a71461031a57806306fdde0314610357578063081812fc14610382578063095ea7b3146103bf57806318160ddd146103e857806321ecff5b1461041357610315565b36610315576000600e54600f546101b7919061305f565b612710346101c591906130b5565b6101cf919061313e565b905060006101df82600e5461081f565b9050600081346101ef919061316f565b9050600d60009054906101000a900473ffffffffffffffffffffffffffffffffffffffff1673ffffffffffffffffffffffffffffffffffffffff166108fc839081150290604051600060405180830381858888f19350505050158015610259573d6000803e3d6000fd5b50610262610842565b73ffffffffffffffffffffffffffffffffffffffff166108fc829081150290604051600060405180830381858888f193505050501580156102a7573d6000803e3d6000fd5b507fb238d2a249de804c32db78ccbbc9a8b4f00ad49f5164a6483362941ea6d5e2eb6102d1610842565b600d60009054906101000a900473ffffffffffffffffffffffffffffffffffffffff16858486604051610308959493929190613214565b60405180910390a1505050005b600080fd5b34801561032657600080fd5b50610341600480360381019061033c91906132d3565b61086b565b60405161034e919061331b565b60405180910390f35b34801561036357600080fd5b5061036c610934565b60405161037991906133cf565b60405180910390f35b34801561038e57600080fd5b506103a960048036038101906103a4919061341d565b6109c6565b6040516103b6919061344a565b60405180910390f35b3480156103cb57600080fd5b506103e660048036038101906103e19190613491565b610a4b565b005b3480156103f457600080fd5b506103fd610b63565b60405161040a91906134d1565b60405180910390f35b34801561041f57600080fd5b5061043a600480360381019061043591906134ec565b610b70565b005b34801561044857600080fd5b50610463600480360381019061045e919061352c565b610bfe565b005b34801561047157600080fd5b5061048c600480360381019061048791906134ec565b610c5e565b60405161049a92919061357f565b60405180910390f35b6104bd60048036038101906104b8919061341d565b610c8c565b005b3480156104cb57600080fd5b506104e660048036038101906104e19190613491565b6110f1565b6040516104f391906134d1565b60405180910390f35b34801561050857600080fd5b50610523600480360381019061051e9190613491565b611196565b005b34801561053157600080fd5b5061054c6004803603810190610547919061352c565b611220565b005b34801561055a57600080fd5b506105756004803603810190610570919061341d565b611240565b60405161058291906134d1565b60405180910390f35b34801561059757600080fd5b506105b260048036038101906105ad919061341d565b6112b1565b6040516105bf919061344a565b60405180910390f35b3480156105d457600080fd5b506105ef60048036038101906105ea91906135a8565b611363565b6040516105fc91906134d1565b60405180910390f35b34801561061157600080fd5b5061061a61141b565b005b34801561062857600080fd5b50610643600480360381019061063e9190613601565b6114a3565b005b34801561065157600080fd5b5061065a610842565b604051610667919061344a565b60405180910390f35b34801561067c57600080fd5b50610685611563565b60405161069291906133cf565b60405180910390f35b3480156106a757600080fd5b506106c260048036038101906106bd919061341d565b6115f5565b005b3480156106d057600080fd5b506106eb60048036038101906106e6919061365a565b61167b565b005b3480156106f957600080fd5b50610714600480360381019061070f91906137cf565b611691565b005b34801561072257600080fd5b5061073d6004803603810190610738919061341d565b6116f3565b60405161074a91906133cf565b60405180910390f35b34801561075f57600080fd5b5061077a6004803603810190610775919061341d565b611705565b6040516107879190613966565b60405180910390f35b34801561079c57600080fd5b506107b760048036038101906107b291906139c6565b6118c2565b005b3480156107c557600080fd5b506107e060048036038101906107db91906139f3565b611982565b6040516107ed919061331b565b60405180910390f35b34801561080257600080fd5b5061081d600480360381019061081891906135a8565b611a16565b005b6000612710828461083091906130b5565b61083a919061313e565b905092915050565b60008060009054906101000a900473ffffffffffffffffffffffffffffffffffffffff16905090565b60007f2a55205a000000000000000000000000000000000000000000000000000000007bffffffffffffffffffffffffffffffffffffffffffffffffffffffff1916827bffffffffffffffffffffffffffffffffffffffffffffffffffffffff1916148061091d57506344c74bcc60e01b7bffffffffffffffffffffffffffffffffffffffffffffffffffffffff1916827bffffffffffffffffffffffffffffffffffffffffffffffffffffffff1916145b8061092d575061092c82611b0e565b5b9050919050565b60606001805461094390613a62565b80601f016020809104026020016040519081016040528092919081815260200182805461096f90613a62565b80156109bc5780601f10610991576101008083540402835291602001916109bc565b820191906000526020600020905b81548152906001019060200180831161099f57829003601f168201915b5050505050905090565b60006109d182611b88565b610a10576040517f08c379a0000000000000000000000000000000000000000000000000000000008152600401610a0790613b06565b60405180910390fd5b6005600083815260200190815260200160002060009054906101000a900473ffffffffffffffffffffffffffffffffffffffff169050919050565b6000610a56826112b1565b90508073ffffffffffffffffffffffffffffffffffffffff168373ffffffffffffffffffffffffffffffffffffffff161415610ac7576040517f08c379a0000000000000000000000000000000000000000000000000000000008152600401610abe90613b98565b60405180910390fd5b8073ffffffffffffffffffffffffffffffffffffffff16610ae6611bf4565b73ffffffffffffffffffffffffffffffffffffffff161480610b155750610b1481610b0f611bf4565b611982565b5b610b54576040517f08c379a0000000000000000000000000000000000000000000000000000000008152600401610b4b90613c2a565b60405180910390fd5b610b5e8383611bfc565b505050565b6000600a80549050905090565b610b78611bf4565b73ffffffffffffffffffffffffffffffffffffffff16610b96610842565b73ffffffffffffffffffffffffffffffffffffffff1614610bec576040517f08c379a0000000000000000000000000000000000000000000000000000000008152600401610be390613c96565b60405180910390fd5b81600e8190555080600f819055505050565b610c0f610c09611bf4565b82611cb5565b610c4e576040517f08c379a0000000000000000000000000000000000000000000000000000000008152600401610c4590613d28565b60405180910390fd5b610c59838383611d93565b505050565b6000806000610c7c84600e54600f54610c77919061305f565b61081f565b9050308192509250509250929050565b6000600c60009054906101000a900473ffffffffffffffffffffffffffffffffffffffff1673ffffffffffffffffffffffffffffffffffffffff1663c06c9818836040518263ffffffff1660e01b8152600401610ce991906134d1565b602060405180830381865afa158015610d06573d6000803e3d6000fd5b505050506040513d601f19601f82011682018060405250810190610d2a9190613d5d565b90506000600c60009054906101000a900473ffffffffffffffffffffffffffffffffffffffff1673ffffffffffffffffffffffffffffffffffffffff16635c942b2a846040518263ffffffff1660e01b8152600401610d8991906134d1565b602060405180830381865afa158015610da6573d6000803e3d6000fd5b505050506040513d601f19601f82011682018060405250810190610dca9190613d5d565b9050600060018284610ddc919061316f565b610de6919061305f565b90506000600c60009054906101000a900473ffffffffffffffffffffffffffffffffffffffff1673ffffffffffffffffffffffffffffffffffffffff1663c457fb37866040518263ffffffff1660e01b8152600401610e4591906134d1565b602060405180830381865afa158015610e62573d6000803e3d6000fd5b505050506040513d601f19601f82011682018060405250810190610e869190613d5d565b9050803414610eca576040517f08c379a0000000000000000000000000000000000000000000000000000000008152600401610ec190613dd6565b60405180910390fd5b6000610ed83460105461081f565b905060008134610ee8919061316f565b9050610ef2610842565b73ffffffffffffffffffffffffffffffffffffffff166108fc829081150290604051600060405180830381858888f19350505050158015610f37573d6000803e3d6000fd5b50600d60009054906101000a900473ffffffffffffffffffffffffffffffffffffffff1673ffffffffffffffffffffffffffffffffffffffff166108fc839081150290604051600060405180830381858888f19350505050158015610fa0573d6000803e3d6000fd5b50600c60009054906101000a900473ffffffffffffffffffffffffffffffffffffffff1673ffffffffffffffffffffffffffffffffffffffff166391b6be9a886040518263ffffffff1660e01b8152600401610ffc91906134d1565b600060405180830381600087803b15801561101657600080fd5b505af115801561102a573d6000803e3d6000fd5b505050506110383385611fef565b6000600c60009054906101000a900473ffffffffffffffffffffffffffffffffffffffff1673ffffffffffffffffffffffffffffffffffffffff1663c87b56dd896040518263ffffffff1660e01b815260040161109591906134d1565b600060405180830381865afa1580156110b2573d6000803e3d6000fd5b505050506040513d6000823e3d601f19601f820116820180604052508101906110db9190613e97565b90506110e785826121bd565b5050505050505050565b60006110fc83611363565b821061113d576040517f08c379a000000000000000000000000000000000000000000000000000000000815260040161113490613f52565b60405180910390fd5b600860008473ffffffffffffffffffffffffffffffffffffffff1673ffffffffffffffffffffffffffffffffffffffff168152602001908152602001600020600083815260200190815260200160002054905092915050565b61119e611bf4565b73ffffffffffffffffffffffffffffffffffffffff166111bc610842565b73ffffffffffffffffffffffffffffffffffffffff1614611212576040517f08c379a000000000000000000000000000000000000000000000000000000000815260040161120990613c96565b60405180910390fd5b61121c8282611fef565b5050565b61123b83838360405180602001604052806000815250611691565b505050565b600061124a610b63565b821061128b576040517f08c379a000000000000000000000000000000000000000000000000000000000815260040161128290613fe4565b60405180910390fd5b600a828154811061129f5761129e614004565b5b90600052602060002001549050919050565b6000806003600084815260200190815260200160002060009054906101000a900473ffffffffffffffffffffffffffffffffffffffff169050600073ffffffffffffffffffffffffffffffffffffffff168173ffffffffffffffffffffffffffffffffffffffff16141561135a576040517f08c379a0000000000000000000000000000000000000000000000000000000008152600401611351906140a5565b60405180910390fd5b80915050919050565b60008073ffffffffffffffffffffffffffffffffffffffff168273ffffffffffffffffffffffffffffffffffffffff1614156113d4576040517f08c379a00000000000000000000000000000000000000000000000000000000081526004016113cb90614137565b60405180910390fd5b600460008373ffffffffffffffffffffffffffffffffffffffff1673ffffffffffffffffffffffffffffffffffffffff168152602001908152602001600020549050919050565b611423611bf4565b73ffffffffffffffffffffffffffffffffffffffff16611441610842565b73ffffffffffffffffffffffffffffffffffffffff1614611497576040517f08c379a000000000000000000000000000000000000000000000000000000000815260040161148e90613c96565b60405180910390fd5b6114a16000612231565b565b6114ab611bf4565b73ffffffffffffffffffffffffffffffffffffffff166114c9610842565b73ffffffffffffffffffffffffffffffffffffffff161461151f576040517f08c379a000000000000000000000000000000000000000000000000000000000815260040161151690613c96565b60405180910390fd5b80600d60006101000a81548173ffffffffffffffffffffffffffffffffffffffff021916908373ffffffffffffffffffffffffffffffffffffffff16021790555050565b60606002805461157290613a62565b80601f016020809104026020016040519081016040528092919081815260200182805461159e90613a62565b80156115eb5780601f106115c0576101008083540402835291602001916115eb565b820191906000526020600020905b8154815290600101906020018083116115ce57829003601f168201915b5050505050905090565b6115fd611bf4565b73ffffffffffffffffffffffffffffffffffffffff1661161b610842565b73ffffffffffffffffffffffffffffffffffffffff1614611671576040517f08c379a000000000000000000000000000000000000000000000000000000000815260040161166890613c96565b60405180910390fd5b8060108190555050565b61168d611686611bf4565b83836122f5565b5050565b6116a261169c611bf4565b83611cb5565b6116e1576040517f08c379a00000000000000000000000000000000000000000000000000000000081526004016116d890613d28565b60405180910390fd5b6116ed84848484612462565b50505050565b60606116fe826124be565b9050919050565b60606000600267ffffffffffffffff811115611724576117236136a4565b5b60405190808252806020026020018201604052801561175d57816020015b61174a612f45565b8152602001906001900390816117425790505b509050600f548160008151811061177757611776614004565b5b6020026020010151602001906bffffffffffffffffffffffff1690816bffffffffffffffffffffffff16815250506117ad610842565b816000815181106117c1576117c0614004565b5b60200260200101516000019073ffffffffffffffffffffffffffffffffffffffff16908173ffffffffffffffffffffffffffffffffffffffff1681525050600e548160018151811061181657611815614004565b5b6020026020010151602001906bffffffffffffffffffffffff1690816bffffffffffffffffffffffff1681525050600d60009054906101000a900473ffffffffffffffffffffffffffffffffffffffff168160018151811061187b5761187a614004565b5b60200260200101516000019073ffffffffffffffffffffffffffffffffffffffff16908173ffffffffffffffffffffffffffffffffffffffff168152505080915050919050565b6118ca611bf4565b73ffffffffffffffffffffffffffffffffffffffff166118e8610842565b73ffffffffffffffffffffffffffffffffffffffff161461193e576040517f08c379a000000000000000000000000000000000000000000000000000000000815260040161193590613c96565b60405180910390fd5b80600c60006101000a81548173ffffffffffffffffffffffffffffffffffffffff021916908373ffffffffffffffffffffffffffffffffffffffff16021790555050565b6000600660008473ffffffffffffffffffffffffffffffffffffffff1673ffffffffffffffffffffffffffffffffffffffff16815260200190815260200160002060008373ffffffffffffffffffffffffffffffffffffffff1673ffffffffffffffffffffffffffffffffffffffff16815260200190815260200160002060009054906101000a900460ff16905092915050565b611a1e611bf4565b73ffffffffffffffffffffffffffffffffffffffff16611a3c610842565b73ffffffffffffffffffffffffffffffffffffffff1614611a92576040517f08c379a0000000000000000000000000000000000000000000000000000000008152600401611a8990613c96565b60405180910390fd5b600073ffffffffffffffffffffffffffffffffffffffff168173ffffffffffffffffffffffffffffffffffffffff161415611b02576040517f08c379a0000000000000000000000000000000000000000000000000000000008152600401611af9906141c9565b60405180910390fd5b611b0b81612231565b50565b60007f780e9d63000000000000000000000000000000000000000000000000000000007bffffffffffffffffffffffffffffffffffffffffffffffffffffffff1916827bffffffffffffffffffffffffffffffffffffffffffffffffffffffff19161480611b815750611b8082612610565b5b9050919050565b60008073ffffffffffffffffffffffffffffffffffffffff166003600084815260200190815260200160002060009054906101000a900473ffffffffffffffffffffffffffffffffffffffff1673ffffffffffffffffffffffffffffffffffffffff1614159050919050565b600033905090565b816005600083815260200190815260200160002060006101000a81548173ffffffffffffffffffffffffffffffffffffffff021916908373ffffffffffffffffffffffffffffffffffffffff160217905550808273ffffffffffffffffffffffffffffffffffffffff16611c6f836112b1565b73ffffffffffffffffffffffffffffffffffffffff167f8c5be1e5ebec7d5bd14f71427d1e84f3dd0314c0f7b2291e5b200ac8c7c3b92560405160405180910390a45050565b6000611cc082611b88565b611cff576040517f08c379a0000000000000000000000000000000000000000000000000000000008152600401611cf69061425b565b60405180910390fd5b6000611d0a836112b1565b90508073ffffffffffffffffffffffffffffffffffffffff168473ffffffffffffffffffffffffffffffffffffffff161480611d7957508373ffffffffffffffffffffffffffffffffffffffff16611d61846109c6565b73ffffffffffffffffffffffffffffffffffffffff16145b80611d8a5750611d898185611982565b5b91505092915050565b8273ffffffffffffffffffffffffffffffffffffffff16611db3826112b1565b73ffffffffffffffffffffffffffffffffffffffff1614611e09576040517f08c379a0000000000000000000000000000000000000000000000000000000008152600401611e00906142ed565b60405180910390fd5b600073ffffffffffffffffffffffffffffffffffffffff168273ffffffffffffffffffffffffffffffffffffffff161415611e79576040517f08c379a0000000000000000000000000000000000000000000000000000000008152600401611e709061437f565b60405180910390fd5b611e848383836126f2565b611e8f600082611bfc565b6001600460008573ffffffffffffffffffffffffffffffffffffffff1673ffffffffffffffffffffffffffffffffffffffff1681526020019081526020016000206000828254611edf919061316f565b925050819055506001600460008473ffffffffffffffffffffffffffffffffffffffff1673ffffffffffffffffffffffffffffffffffffffff1681526020019081526020016000206000828254611f36919061305f565b92505081905550816003600083815260200190815260200160002060006101000a81548173ffffffffffffffffffffffffffffffffffffffff021916908373ffffffffffffffffffffffffffffffffffffffff160217905550808273ffffffffffffffffffffffffffffffffffffffff168473ffffffffffffffffffffffffffffffffffffffff167fddf252ad1be2c89b69c2b068fc378daa952ba7f163c4a11628f55a4df523b3ef60405160405180910390a4505050565b600073ffffffffffffffffffffffffffffffffffffffff168273ffffffffffffffffffffffffffffffffffffffff16141561205f576040517f08c379a0000000000000000000000000000000000000000000000000000000008152600401612056906143eb565b60405180910390fd5b61206881611b88565b156120a8576040517f08c379a000000000000000000000000000000000000000000000000000000000815260040161209f90614457565b60405180910390fd5b6120b4600083836126f2565b6001600460008473ffffffffffffffffffffffffffffffffffffffff1673ffffffffffffffffffffffffffffffffffffffff1681526020019081526020016000206000828254612104919061305f565b92505081905550816003600083815260200190815260200160002060006101000a81548173ffffffffffffffffffffffffffffffffffffffff021916908373ffffffffffffffffffffffffffffffffffffffff160217905550808273ffffffffffffffffffffffffffffffffffffffff16600073ffffffffffffffffffffffffffffffffffffffff167fddf252ad1be2c89b69c2b068fc378daa952ba7f163c4a11628f55a4df523b3ef60405160405180910390a45050565b6121c682611b88565b612205576040517f08c379a00000000000000000000000000000000000000000000000000000000081526004016121fc906144e9565b60405180910390fd5b8060076000848152602001908152602001600020908051906020019061222c929190612f83565b505050565b60008060009054906101000a900473ffffffffffffffffffffffffffffffffffffffff169050816000806101000a81548173ffffffffffffffffffffffffffffffffffffffff021916908373ffffffffffffffffffffffffffffffffffffffff1602179055508173ffffffffffffffffffffffffffffffffffffffff168173ffffffffffffffffffffffffffffffffffffffff167f8be0079c531659141344cd1fd0a4f28419497f9722a3daafe3b4186f6b6457e060405160405180910390a35050565b8173ffffffffffffffffffffffffffffffffffffffff168373ffffffffffffffffffffffffffffffffffffffff161415612364576040517f08c379a000000000000000000000000000000000000000000000000000000000815260040161235b90614555565b60405180910390fd5b80600660008573ffffffffffffffffffffffffffffffffffffffff1673ffffffffffffffffffffffffffffffffffffffff16815260200190815260200160002060008473ffffffffffffffffffffffffffffffffffffffff1673ffffffffffffffffffffffffffffffffffffffff16815260200190815260200160002060006101000a81548160ff0219169083151502179055508173ffffffffffffffffffffffffffffffffffffffff168373ffffffffffffffffffffffffffffffffffffffff167f17307eab39ab6107e8899845ad3d59bd9653f200f220920489ca2b5937696c3183604051612455919061331b565b60405180910390a3505050565b61246d848484611d93565b61247984848484612702565b6124b8576040517f08c379a00000000000000000000000000000000000000000000000000000000081526004016124af906145e7565b60405180910390fd5b50505050565b60606124c982611b88565b612508576040517f08c379a00000000000000000000000000000000000000000000000000000000081526004016124ff90614679565b60405180910390fd5b600060076000848152602001908152602001600020805461252890613a62565b80601f016020809104026020016040519081016040528092919081815260200182805461255490613a62565b80156125a15780601f10612576576101008083540402835291602001916125a1565b820191906000526020600020905b81548152906001019060200180831161258457829003601f168201915b5050505050905060006125b261288a565b90506000815114156125c857819250505061260b565b6000825111156125fd5780826040516020016125e59291906146d5565b6040516020818303038152906040529250505061260b565b612606846128a1565b925050505b919050565b60007f80ac58cd000000000000000000000000000000000000000000000000000000007bffffffffffffffffffffffffffffffffffffffffffffffffffffffff1916827bffffffffffffffffffffffffffffffffffffffffffffffffffffffff191614806126db57507f5b5e139f000000000000000000000000000000000000000000000000000000007bffffffffffffffffffffffffffffffffffffffffffffffffffffffff1916827bffffffffffffffffffffffffffffffffffffffffffffffffffffffff1916145b806126eb57506126ea82612948565b5b9050919050565b6126fd8383836129b2565b505050565b60006127238473ffffffffffffffffffffffffffffffffffffffff16612ac6565b1561287d578373ffffffffffffffffffffffffffffffffffffffff1663150b7a0261274c611bf4565b8786866040518563ffffffff1660e01b815260040161276e949392919061474e565b6020604051808303816000875af19250505080156127aa57506040513d601f19601f820116820180604052508101906127a791906147af565b60015b61282d573d80600081146127da576040519150601f19603f3d011682016040523d82523d6000602084013e6127df565b606091505b50600081511415612825576040517f08c379a000000000000000000000000000000000000000000000000000000000815260040161281c906145e7565b60405180910390fd5b805181602001fd5b63150b7a0260e01b7bffffffffffffffffffffffffffffffffffffffffffffffffffffffff1916817bffffffffffffffffffffffffffffffffffffffffffffffffffffffff191614915050612882565b600190505b949350505050565b606060405180602001604052806000815250905090565b60606128ac82611b88565b6128eb576040517f08c379a00000000000000000000000000000000000000000000000000000000081526004016128e29061484e565b60405180910390fd5b60006128f561288a565b905060008151116129155760405180602001604052806000815250612940565b8061291f84612ad9565b6040516020016129309291906146d5565b6040516020818303038152906040525b915050919050565b60007f01ffc9a7000000000000000000000000000000000000000000000000000000007bffffffffffffffffffffffffffffffffffffffffffffffffffffffff1916827bffffffffffffffffffffffffffffffffffffffffffffffffffffffff1916149050919050565b6129bd838383612c3a565b600073ffffffffffffffffffffffffffffffffffffffff168373ffffffffffffffffffffffffffffffffffffffff161415612a00576129fb81612c3f565b612a3f565b8173ffffffffffffffffffffffffffffffffffffffff168373ffffffffffffffffffffffffffffffffffffffff1614612a3e57612a3d8382612c88565b5b5b600073ffffffffffffffffffffffffffffffffffffffff168273ffffffffffffffffffffffffffffffffffffffff161415612a8257612a7d81612df5565b612ac1565b8273ffffffffffffffffffffffffffffffffffffffff168273ffffffffffffffffffffffffffffffffffffffff1614612ac057612abf8282612ec6565b5b5b505050565b600080823b905060008111915050919050565b60606000821415612b21576040518060400160405280600181526020017f30000000000000000000000000000000000000000000000000000000000000008152509050612c35565b600082905060005b60008214612b53578080612b3c9061486e565b915050600a82612b4c919061313e565b9150612b29565b60008167ffffffffffffffff811115612b6f57612b6e6136a4565b5b6040519080825280601f01601f191660200182016040528015612ba15781602001600182028036833780820191505090505b5090505b60008514612c2e57600182612bba919061316f565b9150600a85612bc991906148b7565b6030612bd5919061305f565b60f81b818381518110612beb57612bea614004565b5b60200101907effffffffffffffffffffffffffffffffffffffffffffffffffffffffffffff1916908160001a905350600a85612c27919061313e565b9450612ba5565b8093505050505b919050565b505050565b600a80549050600b600083815260200190815260200160002081905550600a81908060018154018082558091505060019003906000526020600020016000909190919091505550565b60006001612c9584611363565b612c9f919061316f565b9050600060096000848152602001908152602001600020549050818114612d84576000600860008673ffffffffffffffffffffffffffffffffffffffff1673ffffffffffffffffffffffffffffffffffffffff168152602001908152602001600020600084815260200190815260200160002054905080600860008773ffffffffffffffffffffffffffffffffffffffff1673ffffffffffffffffffffffffffffffffffffffff168152602001908152602001600020600084815260200190815260200160002081905550816009600083815260200190815260200160002081905550505b6009600084815260200190815260200160002060009055600860008573ffffffffffffffffffffffffffffffffffffffff1673ffffffffffffffffffffffffffffffffffffffff16815260200190815260200160002060008381526020019081526020016000206000905550505050565b60006001600a80549050612e09919061316f565b90506000600b60008481526020019081526020016000205490506000600a8381548110612e3957612e38614004565b5b9060005260206000200154905080600a8381548110612e5b57612e5a614004565b5b906000526020600020018190555081600b600083815260200190815260200160002081905550600b600085815260200190815260200160002060009055600a805480612eaa57612ea96148e8565b5b6001900381819060005260206000200160009055905550505050565b6000612ed183611363565b905081600860008573ffffffffffffffffffffffffffffffffffffffff1673ffffffffffffffffffffffffffffffffffffffff168152602001908152602001600020600083815260200190815260200160002081905550806009600084815260200190815260200160002081905550505050565b6040518060400160405280600073ffffffffffffffffffffffffffffffffffffffff16815260200160006bffffffffffffffffffffffff1681525090565b828054612f8f90613a62565b90600052602060002090601f016020900481019282612fb15760008555612ff8565b82601f10612fca57805160ff1916838001178555612ff8565b82800160010185558215612ff8579182015b82811115612ff7578251825591602001919060010190612fdc565b5b5090506130059190613009565b5090565b5b8082111561302257600081600090555060010161300a565b5090565b6000819050919050565b7f4e487b7100000000000000000000000000000000000000000000000000000000600052601160045260246000fd5b600061306a82613026565b915061307583613026565b9250827fffffffffffffffffffffffffffffffffffffffffffffffffffffffffffffffff038211156130aa576130a9613030565b5b828201905092915050565b60006130c082613026565b91506130cb83613026565b9250817fffffffffffffffffffffffffffffffffffffffffffffffffffffffffffffffff048311821515161561310457613103613030565b5b828202905092915050565b7f4e487b7100000000000000000000000000000000000000000000000000000000600052601260045260246000fd5b600061314982613026565b915061315483613026565b9250826131645761316361310f565b5b828204905092915050565b600061317a82613026565b915061318583613026565b92508282101561319857613197613030565b5b828203905092915050565b600073ffffffffffffffffffffffffffffffffffffffff82169050919050565b60006131ce826131a3565b9050919050565b6131de816131c3565b82525050565b60006131ef826131a3565b9050919050565b6131ff816131e4565b82525050565b61320e81613026565b82525050565b600060a08201905061322960008301886131d5565b61323660208301876131f6565b6132436040830186613205565b6132506060830185613205565b61325d6080830184613205565b9695505050505050565b6000604051905090565b600080fd5b600080fd5b60007fffffffff0000000000000000000000000000000000000000000000000000000082169050919050565b6132b08161327b565b81146132bb57600080fd5b50565b6000813590506132cd816132a7565b92915050565b6000602082840312156132e9576132e8613271565b5b60006132f7848285016132be565b91505092915050565b60008115159050919050565b61331581613300565b82525050565b6000602082019050613330600083018461330c565b92915050565b600081519050919050565b600082825260208201905092915050565b60005b83811015613370578082015181840152602081019050613355565b8381111561337f576000848401525b50505050565b6000601f19601f8301169050919050565b60006133a182613336565b6133ab8185613341565b93506133bb818560208601613352565b6133c481613385565b840191505092915050565b600060208201905081810360008301526133e98184613396565b905092915050565b6133fa81613026565b811461340557600080fd5b50565b600081359050613417816133f1565b92915050565b60006020828403121561343357613432613271565b5b600061344184828501613408565b91505092915050565b600060208201905061345f60008301846131d5565b92915050565b61346e816131c3565b811461347957600080fd5b50565b60008135905061348b81613465565b92915050565b600080604083850312156134a8576134a7613271565b5b60006134b68582860161347c565b92505060206134c785828601613408565b9150509250929050565b60006020820190506134e66000830184613205565b92915050565b6000806040838503121561350357613502613271565b5b600061351185828601613408565b925050602061352285828601613408565b9150509250929050565b60008060006060848603121561354557613544613271565b5b60006135538682870161347c565b93505060206135648682870161347c565b925050604061357586828701613408565b9150509250925092565b600060408201905061359460008301856131d5565b6135a16020830184613205565b9392505050565b6000602082840312156135be576135bd613271565b5b60006135cc8482850161347c565b91505092915050565b6135de816131e4565b81146135e957600080fd5b50565b6000813590506135fb816135d5565b92915050565b60006020828403121561361757613616613271565b5b6000613625848285016135ec565b91505092915050565b61363781613300565b811461364257600080fd5b50565b6000813590506136548161362e565b92915050565b6000806040838503121561367157613670613271565b5b600061367f8582860161347c565b925050602061369085828601613645565b9150509250929050565b600080fd5b600080fd5b7f4e487b7100000000000000000000000000000000000000000000000000000000600052604160045260246000fd5b6136dc82613385565b810181811067ffffffffffffffff821117156136fb576136fa6136a4565b5b80604052505050565b600061370e613267565b905061371a82826136d3565b919050565b600067ffffffffffffffff82111561373a576137396136a4565b5b61374382613385565b9050602081019050919050565b82818337600083830152505050565b600061377261376d8461371f565b613704565b90508281526020810184848401111561378e5761378d61369f565b5b613799848285613750565b509392505050565b600082601f8301126137b6576137b561369a565b5b81356137c684826020860161375f565b91505092915050565b600080600080608085870312156137e9576137e8613271565b5b60006137f78782880161347c565b94505060206138088782880161347c565b935050604061381987828801613408565b925050606085013567ffffffffffffffff81111561383a57613839613276565b5b613846878288016137a1565b91505092959194509250565b600081519050919050565b600082825260208201905092915050565b6000819050602082019050919050565b613887816131e4565b82525050565b60006bffffffffffffffffffffffff82169050919050565b6138ae8161388d565b82525050565b6040820160008201516138ca600085018261387e565b5060208201516138dd60208501826138a5565b50505050565b60006138ef83836138b4565b60408301905092915050565b6000602082019050919050565b600061391382613852565b61391d818561385d565b93506139288361386e565b8060005b8381101561395957815161394088826138e3565b975061394b836138fb565b92505060018101905061392c565b5085935050505092915050565b600060208201905081810360008301526139808184613908565b905092915050565b6000613993826131c3565b9050919050565b6139a381613988565b81146139ae57600080fd5b50565b6000813590506139c08161399a565b92915050565b6000602082840312156139dc576139db613271565b5b60006139ea848285016139b1565b91505092915050565b60008060408385031215613a0a57613a09613271565b5b6000613a188582860161347c565b9250506020613a298582860161347c565b9150509250929050565b7f4e487b7100000000000000000000000000000000000000000000000000000000600052602260045260246000fd5b60006002820490506001821680613a7a57607f821691505b60208210811415613a8e57613a8d613a33565b5b50919050565b7f4552433732313a20617070726f76656420717565727920666f72206e6f6e657860008201527f697374656e7420746f6b656e0000000000000000000000000000000000000000602082015250565b6000613af0602c83613341565b9150613afb82613a94565b604082019050919050565b60006020820190508181036000830152613b1f81613ae3565b9050919050565b7f4552433732313a20617070726f76616c20746f2063757272656e74206f776e6560008201527f7200000000000000000000000000000000000000000000000000000000000000602082015250565b6000613b82602183613341565b9150613b8d82613b26565b604082019050919050565b60006020820190508181036000830152613bb181613b75565b9050919050565b7f4552433732313a20617070726f76652063616c6c6572206973206e6f74206f7760008201527f6e6572206e6f7220617070726f76656420666f7220616c6c0000000000000000602082015250565b6000613c14603883613341565b9150613c1f82613bb8565b604082019050919050565b60006020820190508181036000830152613c4381613c07565b9050919050565b7f4f776e61626c653a2063616c6c6572206973206e6f7420746865206f776e6572600082015250565b6000613c80602083613341565b9150613c8b82613c4a565b602082019050919050565b60006020820190508181036000830152613caf81613c73565b9050919050565b7f4552433732313a207472616e736665722063616c6c6572206973206e6f74206f60008201527f776e6572206e6f7220617070726f766564000000000000000000000000000000602082015250565b6000613d12603183613341565b9150613d1d82613cb6565b604082019050919050565b60006020820190508181036000830152613d4181613d05565b9050919050565b600081519050613d57816133f1565b92915050565b600060208284031215613d7357613d72613271565b5b6000613d8184828501613d48565b91505092915050565b7f6e6f7420656e6f75676820455448207061696400000000000000000000000000600082015250565b6000613dc0601383613341565b9150613dcb82613d8a565b602082019050919050565b60006020820190508181036000830152613def81613db3565b9050919050565b600067ffffffffffffffff821115613e1157613e106136a4565b5b613e1a82613385565b9050602081019050919050565b6000613e3a613e3584613df6565b613704565b905082815260208101848484011115613e5657613e5561369f565b5b613e61848285613352565b509392505050565b600082601f830112613e7e57613e7d61369a565b5b8151613e8e848260208601613e27565b91505092915050565b600060208284031215613ead57613eac613271565b5b600082015167ffffffffffffffff811115613ecb57613eca613276565b5b613ed784828501613e69565b91505092915050565b7f455243373231456e756d657261626c653a206f776e657220696e646578206f7560008201527f74206f6620626f756e6473000000000000000000000000000000000000000000602082015250565b6000613f3c602b83613341565b9150613f4782613ee0565b604082019050919050565b60006020820190508181036000830152613f6b81613f2f565b9050919050565b7f455243373231456e756d657261626c653a20676c6f62616c20696e646578206f60008201527f7574206f6620626f756e64730000000000000000000000000000000000000000602082015250565b6000613fce602c83613341565b9150613fd982613f72565b604082019050919050565b60006020820190508181036000830152613ffd81613fc1565b9050919050565b7f4e487b7100000000000000000000000000000000000000000000000000000000600052603260045260246000fd5b7f4552433732313a206f776e657220717565727920666f72206e6f6e657869737460008201527f656e7420746f6b656e0000000000000000000000000000000000000000000000602082015250565b600061408f602983613341565b915061409a82614033565b604082019050919050565b600060208201905081810360008301526140be81614082565b9050919050565b7f4552433732313a2062616c616e636520717565727920666f7220746865207a6560008201527f726f206164647265737300000000000000000000000000000000000000000000602082015250565b6000614121602a83613341565b915061412c826140c5565b604082019050919050565b6000602082019050818103600083015261415081614114565b9050919050565b7f4f776e61626c653a206e6577206f776e657220697320746865207a65726f206160008201527f6464726573730000000000000000000000000000000000000000000000000000602082015250565b60006141b3602683613341565b91506141be82614157565b604082019050919050565b600060208201905081810360008301526141e2816141a6565b9050919050565b7f4552433732313a206f70657261746f7220717565727920666f72206e6f6e657860008201527f697374656e7420746f6b656e0000000000000000000000000000000000000000602082015250565b6000614245602c83613341565b9150614250826141e9565b604082019050919050565b6000602082019050818103600083015261427481614238565b9050919050565b7f4552433732313a207472616e73666572206f6620746f6b656e2074686174206960008201527f73206e6f74206f776e0000000000000000000000000000000000000000000000602082015250565b60006142d7602983613341565b91506142e28261427b565b604082019050919050565b60006020820190508181036000830152614306816142ca565b9050919050565b7f4552433732313a207472616e7366657220746f20746865207a65726f2061646460008201527f7265737300000000000000000000000000000000000000000000000000000000602082015250565b6000614369602483613341565b91506143748261430d565b604082019050919050565b600060208201905081810360008301526143988161435c565b9050919050565b7f4552433732313a206d696e7420746f20746865207a65726f2061646472657373600082015250565b60006143d5602083613341565b91506143e08261439f565b602082019050919050565b60006020820190508181036000830152614404816143c8565b9050919050565b7f4552433732313a20746f6b656e20616c7265616479206d696e74656400000000600082015250565b6000614441601c83613341565b915061444c8261440b565b602082019050919050565b6000602082019050818103600083015261447081614434565b9050919050565b7f45524337323155524953746f726167653a2055524920736574206f66206e6f6e60008201527f6578697374656e7420746f6b656e000000000000000000000000000000000000602082015250565b60006144d3602e83613341565b91506144de82614477565b604082019050919050565b60006020820190508181036000830152614502816144c6565b9050919050565b7f4552433732313a20617070726f766520746f2063616c6c657200000000000000600082015250565b600061453f601983613341565b915061454a82614509565b602082019050919050565b6000602082019050818103600083015261456e81614532565b9050919050565b7f4552433732313a207472616e7366657220746f206e6f6e20455243373231526560008201527f63656976657220696d706c656d656e7465720000000000000000000000000000602082015250565b60006145d1603283613341565b91506145dc82614575565b604082019050919050565b60006020820190508181036000830152614600816145c4565b9050919050565b7f45524337323155524953746f726167653a2055524920717565727920666f722060008201527f6e6f6e6578697374656e7420746f6b656e000000000000000000000000000000602082015250565b6000614663603183613341565b915061466e82614607565b604082019050919050565b6000602082019050818103600083015261469281614656565b9050919050565b600081905092915050565b60006146af82613336565b6146b98185614699565b93506146c9818560208601613352565b80840191505092915050565b60006146e182856146a4565b91506146ed82846146a4565b91508190509392505050565b600081519050919050565b600082825260208201905092915050565b6000614720826146f9565b61472a8185614704565b935061473a818560208601613352565b61474381613385565b840191505092915050565b600060808201905061476360008301876131d5565b61477060208301866131d5565b61477d6040830185613205565b818103606083015261478f8184614715565b905095945050505050565b6000815190506147a9816132a7565b92915050565b6000602082840312156147c5576147c4613271565b5b60006147d38482850161479a565b91505092915050565b7f4552433732314d657461646174613a2055524920717565727920666f72206e6f60008201527f6e6578697374656e7420746f6b656e0000000000000000000000000000000000602082015250565b6000614838602f83613341565b9150614843826147dc565b604082019050919050565b600060208201905081810360008301526148678161482b565b9050919050565b600061487982613026565b91507fffffffffffffffffffffffffffffffffffffffffffffffffffffffffffffffff8214156148ac576148ab613030565b5b600182019050919050565b60006148c282613026565b91506148cd83613026565b9250826148dd576148dc61310f565b5b828206905092915050565b7f4e487b7100000000000000000000000000000000000000000000000000000000600052603160045260246000fdfea2646970667358221220eaa157715ba6f6b40544e8e583360ae51fff077bf576ae4ceb920bb257660cdc64736f6c634300080a0033",
  "immutableReferences": {},
  "source": "pragma solidity ^0.8.10;\n\nimport \"@openzeppelin/contracts/access/Ownable.sol\";\nimport \"@openzeppelin/contracts/token/ERC721/ERC721.sol\";\nimport \"@openzeppelin/contracts/token/ERC721/extensions/ERC721Enumerable.sol\";\nimport \"@openzeppelin/contracts/token/ERC721/extensions/ERC721URIStorage.sol\";\nimport \"@openzeppelin/contracts/interfaces/IERC2981.sol\";\nimport \"./@rarible/royalties/contracts/RoyaltiesV2.sol\";\nimport \"./@rarible/royalties/contracts/LibRoyaltiesV2.sol\";\nimport \"./ForTheLolzForSale.sol\";\n\ncontract ForTheLolzItem is Ownable, ERC721, ERC721URIStorage, ERC721Enumerable, IERC2981, RoyaltiesV2 {\n  ForTheLolzForSale internal forSaleCollection;\n\n  address payable internal creator;\n  uint256 creatorPercentageFee;\n  uint256 agencyPercentageFee;\n  uint256 firstSaleCreatorPercentage;\n\n  function percent(uint256 _value, uint256 _percent) internal pure returns (uint256)  {\n    return _value * _percent / 10000;\n  }\n\n  event RoyaltyPayout(\n    address owner, address payable creator,\n    uint256 salesPrice,\n    uint256 agencyFee, uint256 creatorFee\n  );\n\n  constructor(\n    address payable _creator, string memory _name, uint256 _firstSaleCreatorPercentage,\n    uint256 _creatorPercentageFee, uint256 _agencyPercentageFee)\n\n    ERC721(_name, \"MTA\")  {\n    creator = _creator;\n    creatorPercentageFee = _creatorPercentageFee;\n    agencyPercentageFee = _agencyPercentageFee;\n    firstSaleCreatorPercentage = _firstSaleCreatorPercentage;\n  }\n\n  /* public */\n  function changeCreator(address payable _creator) onlyOwner public {\n    creator = _creator;\n  }\n\n  function changeFirstSaleCreatorFees(uint256 _firstSaleCreatorPercentage) onlyOwner public {\n    firstSaleCreatorPercentage = _firstSaleCreatorPercentage;\n  }\n\n  function changeFees(uint256 _creatorPercentageFee, uint256 _agencyPercentageFee) onlyOwner public {\n    creatorPercentageFee = _creatorPercentageFee;\n    agencyPercentageFee = _agencyPercentageFee;\n  }\n\n  function changeForSaleCollection(ForTheLolzForSale collection) onlyOwner public {\n    forSaleCollection = collection;\n  }\n\n  function mint(address _to, uint256 _tokenId) onlyOwner public {\n    super._mint(_to, _tokenId);\n  }\n\n  function buyToken(uint256 forSaleTokenId) public payable {\n    uint256 collectionTokenId = forSaleCollection.getCollectionTokenId(forSaleTokenId);\n    uint256 availableArtworks = forSaleCollection.getAvailableNumberOfArtworks(forSaleTokenId);\n    uint256 tokenId = collectionTokenId - availableArtworks + 1;\n    uint256 price = forSaleCollection.getTokenPrice(forSaleTokenId);\n    require(msg.value == price, \"not enough ETH paid\");\n    uint256 payoutCreator = percent(msg.value, firstSaleCreatorPercentage);\n    uint256 payoutOwner = msg.value - payoutCreator;\n    payable(owner()).transfer(payoutOwner);\n    payable(creator).transfer(payoutCreator);\n\n    forSaleCollection.sellItem(forSaleTokenId);\n    _mint(address(msg.sender), tokenId);\n\n    string memory newTokenURI = forSaleCollection.tokenURI(forSaleTokenId);\n    _setTokenURI(tokenId, newTokenURI);\n  }\n\n  /* ERC165 */\n  function supportsInterface(bytes4 interfaceId)\n    public view virtual override(ERC721, ERC721Enumerable, IERC165) returns (bool) {\n    return interfaceId == type(IERC2981).interfaceId ||\n      interfaceId == LibRoyaltiesV2._INTERFACE_ID_ROYALTIES ||\n      super.supportsInterface(interfaceId);\n  }\n\n  /* ERC721, ERC721Enumerable */\n  function _beforeTokenTransfer(address from, address to, uint256 tokenId)\n    internal virtual override(ERC721, ERC721Enumerable) {\n    super._beforeTokenTransfer(from, to, tokenId);\n  }\n\n  /* ERC721URIStorage */\n  function tokenURI(uint256 tokenId)\n    public view virtual override(ERC721, ERC721URIStorage) returns (string memory) {\n    return super.tokenURI(tokenId);\n  }\n\n  function _burn(uint256 tokenId) internal virtual override(ERC721, ERC721URIStorage) {\n    super._burn(tokenId);\n  }\n\n  /* IERC2981 */\n  function royaltyInfo(uint256 /*_tokenId*/, uint256 _salePrice)\n    external view returns (\n        address receiver,\n        uint256 royaltyAmount\n  ) {\n    uint256 computedRoyaltyAmount = percent(_salePrice, agencyPercentageFee+creatorPercentageFee);\n    return (address(this), computedRoyaltyAmount);\n  }\n\n  /* Rarible RoyaltiesV2 */\n  function getRaribleV2Royalties(uint256 /*id*/) external view returns (LibPart.Part[] memory) {\n    LibPart.Part[] memory _royalties = new LibPart.Part[](2);\n    _royalties[0].value = uint96(agencyPercentageFee);\n    _royalties[0].account = payable(owner());\n    _royalties[1].value = uint96(creatorPercentageFee);\n    _royalties[1].account = payable(creator);\n    return _royalties;\n  }\n\n  receive() external payable {\n    // fallback function only to receive ether\n    uint256 salesPrice = (msg.value * 10000) / (agencyPercentageFee+creatorPercentageFee);\n    uint256 creatorFee = percent(salesPrice, creatorPercentageFee);\n    uint256 agencyFee = msg.value - creatorFee;\n    payable(creator).transfer(creatorFee);\n    payable(owner()).transfer(agencyFee);\n    emit RoyaltyPayout(owner(), creator, salesPrice, agencyFee, creatorFee);\n  }\n}\n",
  "sourcePath": "/Users/david/nft/nft_marketplace/truffle/contracts/ForTheLolzItem.sol",
  "compiler": {
    "name": "solc",
    "version": "0.8.10+commit.fc410830.Emscripten.clang"
  },
  "schemaVersion": "3.4.4",
  "updatedAt": "2022-01-12T15:34:40.331Z",
  "devdoc": {
    "kind": "dev",
    "methods": {
      "approve(address,uint256)": {
        "details": "See {IERC721-approve}."
      },
      "balanceOf(address)": {
        "details": "See {IERC721-balanceOf}."
      },
      "getApproved(uint256)": {
        "details": "See {IERC721-getApproved}."
      },
      "isApprovedForAll(address,address)": {
        "details": "See {IERC721-isApprovedForAll}."
      },
      "name()": {
        "details": "See {IERC721Metadata-name}."
      },
      "owner()": {
        "details": "Returns the address of the current owner."
      },
      "ownerOf(uint256)": {
        "details": "See {IERC721-ownerOf}."
      },
      "renounceOwnership()": {
        "details": "Leaves the contract without owner. It will not be possible to call `onlyOwner` functions anymore. Can only be called by the current owner. NOTE: Renouncing ownership will leave the contract without an owner, thereby removing any functionality that is only available to the owner."
      },
      "safeTransferFrom(address,address,uint256)": {
        "details": "See {IERC721-safeTransferFrom}."
      },
      "safeTransferFrom(address,address,uint256,bytes)": {
        "details": "See {IERC721-safeTransferFrom}."
      },
      "setApprovalForAll(address,bool)": {
        "details": "See {IERC721-setApprovalForAll}."
      },
      "symbol()": {
        "details": "See {IERC721Metadata-symbol}."
      },
      "tokenByIndex(uint256)": {
        "details": "See {IERC721Enumerable-tokenByIndex}."
      },
      "tokenOfOwnerByIndex(address,uint256)": {
        "details": "See {IERC721Enumerable-tokenOfOwnerByIndex}."
      },
      "totalSupply()": {
        "details": "See {IERC721Enumerable-totalSupply}."
      },
      "transferFrom(address,address,uint256)": {
        "details": "See {IERC721-transferFrom}."
      },
      "transferOwnership(address)": {
        "details": "Transfers ownership of the contract to a new account (`newOwner`). Can only be called by the current owner."
      }
    },
    "version": 1
  },
  "userdoc": {
    "kind": "user",
    "methods": {},
    "version": 1
  }
}