{
  "contractName": "ForTheLolzForSale",
  "abi": [
    {
      "inputs": [],
      "stateMutability": "nonpayable",
      "type": "constructor"
    },
    {
      "anonymous": false,
      "inputs": [
        {
          "indexed": true,
          "internalType": "address",
          "name": "owner",
          "type": "address"
        },
        {
          "indexed": true,
          "internalType": "address",
          "name": "approved",
          "type": "address"
        },
        {
          "indexed": true,
          "internalType": "uint256",
          "name": "tokenId",
          "type": "uint256"
        }
      ],
      "name": "Approval",
      "type": "event"
    },
    {
      "anonymous": false,
      "inputs": [
        {
          "indexed": true,
          "internalType": "address",
          "name": "owner",
          "type": "address"
        },
        {
          "indexed": true,
          "internalType": "address",
          "name": "operator",
          "type": "address"
        },
        {
          "indexed": false,
          "internalType": "bool",
          "name": "approved",
          "type": "bool"
        }
      ],
      "name": "ApprovalForAll",
      "type": "event"
    },
    {
      "anonymous": false,
      "inputs": [
        {
          "indexed": true,
          "internalType": "address",
          "name": "previousOwner",
          "type": "address"
        },
        {
          "indexed": true,
          "internalType": "address",
          "name": "newOwner",
          "type": "address"
        }
      ],
      "name": "OwnershipTransferred",
      "type": "event"
    },
    {
      "anonymous": false,
      "inputs": [
        {
          "indexed": true,
          "internalType": "address",
          "name": "from",
          "type": "address"
        },
        {
          "indexed": true,
          "internalType": "address",
          "name": "to",
          "type": "address"
        },
        {
          "indexed": true,
          "internalType": "uint256",
          "name": "tokenId",
          "type": "uint256"
        }
      ],
      "name": "Transfer",
      "type": "event"
    },
    {
      "inputs": [
        {
          "internalType": "address",
          "name": "to",
          "type": "address"
        },
        {
          "internalType": "uint256",
          "name": "tokenId",
          "type": "uint256"
        }
      ],
      "name": "approve",
      "outputs": [],
      "stateMutability": "nonpayable",
      "type": "function"
    },
    {
      "inputs": [
        {
          "internalType": "address",
          "name": "owner",
          "type": "address"
        }
      ],
      "name": "balanceOf",
      "outputs": [
        {
          "internalType": "uint256",
          "name": "",
          "type": "uint256"
        }
      ],
      "stateMutability": "view",
      "type": "function",
      "constant": true
    },
    {
      "inputs": [
        {
          "internalType": "uint256",
          "name": "tokenId",
          "type": "uint256"
        }
      ],
      "name": "getApproved",
      "outputs": [
        {
          "internalType": "address",
          "name": "",
          "type": "address"
        }
      ],
      "stateMutability": "view",
      "type": "function",
      "constant": true
    },
    {
      "inputs": [
        {
          "internalType": "address",
          "name": "owner",
          "type": "address"
        },
        {
          "internalType": "address",
          "name": "operator",
          "type": "address"
        }
      ],
      "name": "isApprovedForAll",
      "outputs": [
        {
          "internalType": "bool",
          "name": "",
          "type": "bool"
        }
      ],
      "stateMutability": "view",
      "type": "function",
      "constant": true
    },
    {
      "inputs": [],
      "name": "name",
      "outputs": [
        {
          "internalType": "string",
          "name": "",
          "type": "string"
        }
      ],
      "stateMutability": "view",
      "type": "function",
      "constant": true
    },
    {
      "inputs": [],
      "name": "owner",
      "outputs": [
        {
          "internalType": "address",
          "name": "",
          "type": "address"
        }
      ],
      "stateMutability": "view",
      "type": "function",
      "constant": true
    },
    {
      "inputs": [
        {
          "internalType": "uint256",
          "name": "tokenId",
          "type": "uint256"
        }
      ],
      "name": "ownerOf",
      "outputs": [
        {
          "internalType": "address",
          "name": "",
          "type": "address"
        }
      ],
      "stateMutability": "view",
      "type": "function",
      "constant": true
    },
    {
      "inputs": [],
      "name": "renounceOwnership",
      "outputs": [],
      "stateMutability": "nonpayable",
      "type": "function"
    },
    {
      "inputs": [
        {
          "internalType": "address",
          "name": "from",
          "type": "address"
        },
        {
          "internalType": "address",
          "name": "to",
          "type": "address"
        },
        {
          "internalType": "uint256",
          "name": "tokenId",
          "type": "uint256"
        }
      ],
      "name": "safeTransferFrom",
      "outputs": [],
      "stateMutability": "nonpayable",
      "type": "function"
    },
    {
      "inputs": [
        {
          "internalType": "address",
          "name": "from",
          "type": "address"
        },
        {
          "internalType": "address",
          "name": "to",
          "type": "address"
        },
        {
          "internalType": "uint256",
          "name": "tokenId",
          "type": "uint256"
        },
        {
          "internalType": "bytes",
          "name": "_data",
          "type": "bytes"
        }
      ],
      "name": "safeTransferFrom",
      "outputs": [],
      "stateMutability": "nonpayable",
      "type": "function"
    },
    {
      "inputs": [
        {
          "internalType": "address",
          "name": "operator",
          "type": "address"
        },
        {
          "internalType": "bool",
          "name": "approved",
          "type": "bool"
        }
      ],
      "name": "setApprovalForAll",
      "outputs": [],
      "stateMutability": "nonpayable",
      "type": "function"
    },
    {
      "inputs": [],
      "name": "symbol",
      "outputs": [
        {
          "internalType": "string",
          "name": "",
          "type": "string"
        }
      ],
      "stateMutability": "view",
      "type": "function",
      "constant": true
    },
    {
      "inputs": [
        {
          "internalType": "uint256",
          "name": "index",
          "type": "uint256"
        }
      ],
      "name": "tokenByIndex",
      "outputs": [
        {
          "internalType": "uint256",
          "name": "",
          "type": "uint256"
        }
      ],
      "stateMutability": "view",
      "type": "function",
      "constant": true
    },
    {
      "inputs": [
        {
          "internalType": "address",
          "name": "owner",
          "type": "address"
        },
        {
          "internalType": "uint256",
          "name": "index",
          "type": "uint256"
        }
      ],
      "name": "tokenOfOwnerByIndex",
      "outputs": [
        {
          "internalType": "uint256",
          "name": "",
          "type": "uint256"
        }
      ],
      "stateMutability": "view",
      "type": "function",
      "constant": true
    },
    {
      "inputs": [],
      "name": "totalSupply",
      "outputs": [
        {
          "internalType": "uint256",
          "name": "",
          "type": "uint256"
        }
      ],
      "stateMutability": "view",
      "type": "function",
      "constant": true
    },
    {
      "inputs": [
        {
          "internalType": "address",
          "name": "from",
          "type": "address"
        },
        {
          "internalType": "address",
          "name": "to",
          "type": "address"
        },
        {
          "internalType": "uint256",
          "name": "tokenId",
          "type": "uint256"
        }
      ],
      "name": "transferFrom",
      "outputs": [],
      "stateMutability": "nonpayable",
      "type": "function"
    },
    {
      "inputs": [
        {
          "internalType": "address",
          "name": "newOwner",
          "type": "address"
        }
      ],
      "name": "transferOwnership",
      "outputs": [],
      "stateMutability": "nonpayable",
      "type": "function"
    },
    {
      "inputs": [
        {
          "internalType": "contract ForTheLolzItem",
          "name": "collection",
          "type": "address"
        }
      ],
      "name": "addCollection",
      "outputs": [],
      "stateMutability": "nonpayable",
      "type": "function"
    },
    {
      "inputs": [
        {
          "internalType": "contract ForTheLolzItem",
          "name": "collection",
          "type": "address"
        }
      ],
      "name": "removeCollection",
      "outputs": [],
      "stateMutability": "nonpayable",
      "type": "function"
    },
    {
      "inputs": [
        {
          "internalType": "uint256",
          "name": "tokenId",
          "type": "uint256"
        }
      ],
      "name": "getTokenPrice",
      "outputs": [
        {
          "internalType": "uint256",
          "name": "",
          "type": "uint256"
        }
      ],
      "stateMutability": "view",
      "type": "function",
      "constant": true
    },
    {
      "inputs": [
        {
          "internalType": "uint256",
          "name": "tokenId",
          "type": "uint256"
        }
      ],
      "name": "getAvailableNumberOfArtworks",
      "outputs": [
        {
          "internalType": "uint256",
          "name": "",
          "type": "uint256"
        }
      ],
      "stateMutability": "view",
      "type": "function",
      "constant": true
    },
    {
      "inputs": [],
      "name": "getTotalNumberOfArtworks",
      "outputs": [
        {
          "internalType": "uint256[]",
          "name": "",
          "type": "uint256[]"
        }
      ],
      "stateMutability": "view",
      "type": "function",
      "constant": true
    },
    {
      "inputs": [
        {
          "internalType": "uint256",
          "name": "tokenId",
          "type": "uint256"
        }
      ],
      "name": "getCollectionTokenId",
      "outputs": [
        {
          "internalType": "uint256",
          "name": "",
          "type": "uint256"
        }
      ],
      "stateMutability": "view",
      "type": "function",
      "constant": true
    },
    {
      "inputs": [
        {
          "internalType": "uint256",
          "name": "tokenId",
          "type": "uint256"
        }
      ],
      "name": "getCollectionOfTokenId",
      "outputs": [
        {
          "internalType": "contract ForTheLolzItem",
          "name": "",
          "type": "address"
        }
      ],
      "stateMutability": "view",
      "type": "function",
      "constant": true
    },
    {
      "inputs": [],
      "name": "getCollections",
      "outputs": [
        {
          "internalType": "contract ForTheLolzItem[]",
          "name": "",
          "type": "address[]"
        }
      ],
      "stateMutability": "view",
      "type": "function",
      "constant": true
    },
    {
      "inputs": [
        {
          "internalType": "contract ForTheLolzItem",
          "name": "collection",
          "type": "address"
        },
        {
          "internalType": "string",
          "name": "newTokenURI",
          "type": "string"
        },
        {
          "internalType": "uint256",
          "name": "price",
          "type": "uint256"
        },
        {
          "internalType": "uint256",
          "name": "copies",
          "type": "uint256"
        }
      ],
      "name": "addItem",
      "outputs": [],
      "stateMutability": "nonpayable",
      "type": "function"
    },
    {
      "inputs": [
        {
          "internalType": "uint256",
          "name": "tokenId",
          "type": "uint256"
        }
      ],
      "name": "sellItem",
      "outputs": [],
      "stateMutability": "nonpayable",
      "type": "function"
    },
    {
      "inputs": [
        {
          "internalType": "bytes4",
          "name": "",
          "type": "bytes4"
        }
      ],
      "name": "supportsInterface",
      "outputs": [
        {
          "internalType": "bool",
          "name": "",
          "type": "bool"
        }
      ],
      "stateMutability": "view",
      "type": "function",
      "constant": true
    },
    {
      "inputs": [
        {
          "internalType": "uint256",
          "name": "tokenId",
          "type": "uint256"
        }
      ],
      "name": "tokenURI",
      "outputs": [
        {
          "internalType": "string",
          "name": "",
          "type": "string"
        }
      ],
      "stateMutability": "view",
      "type": "function",
      "constant": true
    }
  ],
  "bytecode": "0x60806040523480156200001157600080fd5b506040518060400160405280600a81526020017f466f725468654c6f6c7a000000000000000000000000000000000000000000008152506040518060400160405280600381526020017f46544c00000000000000000000000000000000000000000000000000000000008152506200009e62000092620000e060201b60201c565b620000e860201b60201c565b8160019080519060200190620000b6929190620001ac565b508060029080519060200190620000cf929190620001ac565b5050506000600e81905550620002c1565b600033905090565b60008060009054906101000a900473ffffffffffffffffffffffffffffffffffffffff169050816000806101000a81548173ffffffffffffffffffffffffffffffffffffffff021916908373ffffffffffffffffffffffffffffffffffffffff1602179055508173ffffffffffffffffffffffffffffffffffffffff168173ffffffffffffffffffffffffffffffffffffffff167f8be0079c531659141344cd1fd0a4f28419497f9722a3daafe3b4186f6b6457e060405160405180910390a35050565b828054620001ba906200028b565b90600052602060002090601f016020900481019282620001de57600085556200022a565b82601f10620001f957805160ff19168380011785556200022a565b828001600101855582156200022a579182015b82811115620002295782518255916020019190600101906200020c565b5b5090506200023991906200023d565b5090565b5b80821115620002585760008160009055506001016200023e565b5090565b7f4e487b7100000000000000000000000000000000000000000000000000000000600052602260045260246000fd5b60006002820490506001821680620002a457607f821691505b60208210811415620002bb57620002ba6200025c565b5b50919050565b6147e980620002d16000396000f3fe608060405234801561001057600080fd5b50600436106101cf5760003560e01c806370a0823111610104578063a22cb465116100a2578063c87b56dd11610071578063c87b56dd1461053e578063e985e9c51461056e578063f2fde38b1461059e578063f4c7a32d146105ba576101cf565b8063a22cb465146104a6578063b88d4fde146104c2578063c06c9818146104de578063c457fb371461050e576101cf565b80638da5cb5b116100de5780638da5cb5b1461043257806391b6be9a1461045057806395d89b411461046c578063a174e77a1461048a576101cf565b806370a08231146103dc578063715018a61461040c57806372e2356314610416576101cf565b80632f745c59116101715780634f6ccce71161014b5780634f6ccce7146103305780635028d05a146103605780635c942b2a1461037c5780636352211e146103ac576101cf565b80632f745c59146102c657806342842e0e146102f657806346e6358614610312576101cf565b8063095ea7b3116101ad578063095ea7b31461025257806318160ddd1461026e578063186ba2621461028c57806323b872dd146102aa576101cf565b806301ffc9a7146101d457806306fdde0314610204578063081812fc14610222575b600080fd5b6101ee60048036038101906101e99190612d48565b6105ea565b6040516101fb9190612d90565b60405180910390f35b61020c6105f1565b6040516102199190612e44565b60405180910390f35b61023c60048036038101906102379190612e9c565b610683565b6040516102499190612f0a565b60405180910390f35b61026c60048036038101906102679190612f51565b610708565b005b610276610820565b6040516102839190612fa0565b60405180910390f35b61029461082d565b6040516102a19190613079565b60405180910390f35b6102c460048036038101906102bf919061309b565b610885565b005b6102e060048036038101906102db9190612f51565b6108e5565b6040516102ed9190612fa0565b60405180910390f35b610310600480360381019061030b919061309b565b61098a565b005b61031a6109aa565b60405161032791906131fc565b60405180910390f35b61034a60048036038101906103459190612e9c565b610a38565b6040516103579190612fa0565b60405180910390f35b61037a6004803603810190610375919061326e565b610aa9565b005b61039660048036038101906103919190612e9c565b610ce1565b6040516103a39190612fa0565b60405180910390f35b6103c660048036038101906103c19190612e9c565b610cfe565b6040516103d39190612f0a565b60405180910390f35b6103f660048036038101906103f1919061329b565b610db0565b6040516104039190612fa0565b60405180910390f35b610414610e68565b005b610430600480360381019061042b91906133fd565b610ef0565b005b61043a611190565b6040516104479190612f0a565b60405180910390f35b61046a60048036038101906104659190612e9c565b6111b9565b005b61047461136a565b6040516104819190612e44565b60405180910390f35b6104a4600480360381019061049f919061326e565b6113fc565b005b6104c060048036038101906104bb91906134ac565b61160e565b005b6104dc60048036038101906104d7919061358d565b611624565b005b6104f860048036038101906104f39190612e9c565b611686565b6040516105059190612fa0565b60405180910390f35b61052860048036038101906105239190612e9c565b6117d0565b6040516105359190612fa0565b60405180910390f35b61055860048036038101906105539190612e9c565b6117ed565b6040516105659190612e44565b60405180910390f35b61058860048036038101906105839190613610565b6117ff565b6040516105959190612d90565b60405180910390f35b6105b860048036038101906105b3919061329b565b611893565b005b6105d460048036038101906105cf9190612e9c565b61198b565b6040516105e1919061365f565b60405180910390f35b6000919050565b606060018054610600906136a9565b80601f016020809104026020016040519081016040528092919081815260200182805461062c906136a9565b80156106795780601f1061064e57610100808354040283529160200191610679565b820191906000526020600020905b81548152906001019060200180831161065c57829003601f168201915b5050505050905090565b600061068e826119c8565b6106cd576040517f08c379a00000000000000000000000000000000000000000000000000000000081526004016106c49061374d565b60405180910390fd5b6005600083815260200190815260200160002060009054906101000a900473ffffffffffffffffffffffffffffffffffffffff169050919050565b600061071382610cfe565b90508073ffffffffffffffffffffffffffffffffffffffff168373ffffffffffffffffffffffffffffffffffffffff161415610784576040517f08c379a000000000000000000000000000000000000000000000000000000000815260040161077b906137df565b60405180910390fd5b8073ffffffffffffffffffffffffffffffffffffffff166107a3611a34565b73ffffffffffffffffffffffffffffffffffffffff1614806107d257506107d1816107cc611a34565b6117ff565b5b610811576040517f08c379a000000000000000000000000000000000000000000000000000000000815260040161080890613871565b60405180910390fd5b61081b8383611a3c565b505050565b6000600a80549050905090565b6060601280548060200260200160405190810160405280929190818152602001828054801561087b57602002820191906000526020600020905b815481526020019060010190808311610867575b5050505050905090565b610896610890611a34565b82611af5565b6108d5576040517f08c379a00000000000000000000000000000000000000000000000000000000081526004016108cc90613903565b60405180910390fd5b6108e0838383611bd3565b505050565b60006108f083610db0565b8210610931576040517f08c379a000000000000000000000000000000000000000000000000000000000815260040161092890613995565b60405180910390fd5b600860008473ffffffffffffffffffffffffffffffffffffffff1673ffffffffffffffffffffffffffffffffffffffff168152602001908152602001600020600083815260200190815260200160002054905092915050565b6109a583838360405180602001604052806000815250611624565b505050565b60606014805480602002602001604051908101604052809291908181526020018280548015610a2e57602002820191906000526020600020905b8160009054906101000a900473ffffffffffffffffffffffffffffffffffffffff1673ffffffffffffffffffffffffffffffffffffffff16815260200190600101908083116109e4575b5050505050905090565b6000610a42610820565b8210610a83576040517f08c379a0000000000000000000000000000000000000000000000000000000008152600401610a7a90613a27565b60405180910390fd5b600a8281548110610a9757610a96613a47565b5b90600052602060002001549050919050565b610ab1611a34565b73ffffffffffffffffffffffffffffffffffffffff16610acf611190565b73ffffffffffffffffffffffffffffffffffffffff1614610b25576040517f08c379a0000000000000000000000000000000000000000000000000000000008152600401610b1c90613ac2565b60405180910390fd5b601360008273ffffffffffffffffffffffffffffffffffffffff1673ffffffffffffffffffffffffffffffffffffffff16815260200190815260200160002060009054906101000a900460ff16610bb1576040517f08c379a0000000000000000000000000000000000000000000000000000000008152600401610ba890613b2e565b60405180910390fd5b601360008273ffffffffffffffffffffffffffffffffffffffff1673ffffffffffffffffffffffffffffffffffffffff16815260200190815260200160002060006101000a81549060ff021916905560005b601480549050811015610cdc578173ffffffffffffffffffffffffffffffffffffffff1660148281548110610c3b57610c3a613a47565b5b9060005260206000200160009054906101000a900473ffffffffffffffffffffffffffffffffffffffff1673ffffffffffffffffffffffffffffffffffffffff161415610cc95760148181548110610c9657610c95613a47565b5b9060005260206000200160006101000a81549073ffffffffffffffffffffffffffffffffffffffff021916905550610cde565b8080610cd490613b7d565b915050610c03565b505b50565b600060106000838152602001908152602001600020549050919050565b6000806003600084815260200190815260200160002060009054906101000a900473ffffffffffffffffffffffffffffffffffffffff169050600073ffffffffffffffffffffffffffffffffffffffff168173ffffffffffffffffffffffffffffffffffffffff161415610da7576040517f08c379a0000000000000000000000000000000000000000000000000000000008152600401610d9e90613c38565b60405180910390fd5b80915050919050565b60008073ffffffffffffffffffffffffffffffffffffffff168273ffffffffffffffffffffffffffffffffffffffff161415610e21576040517f08c379a0000000000000000000000000000000000000000000000000000000008152600401610e1890613cca565b60405180910390fd5b600460008373ffffffffffffffffffffffffffffffffffffffff1673ffffffffffffffffffffffffffffffffffffffff168152602001908152602001600020549050919050565b610e70611a34565b73ffffffffffffffffffffffffffffffffffffffff16610e8e611190565b73ffffffffffffffffffffffffffffffffffffffff1614610ee4576040517f08c379a0000000000000000000000000000000000000000000000000000000008152600401610edb90613ac2565b60405180910390fd5b610eee6000611e2f565b565b610ef8611a34565b73ffffffffffffffffffffffffffffffffffffffff16610f16611190565b73ffffffffffffffffffffffffffffffffffffffff1614610f6c576040517f08c379a0000000000000000000000000000000000000000000000000000000008152600401610f6390613ac2565b60405180910390fd5b601360008573ffffffffffffffffffffffffffffffffffffffff1673ffffffffffffffffffffffffffffffffffffffff16815260200190815260200160002060009054906101000a900460ff16610ff8576040517f08c379a0000000000000000000000000000000000000000000000000000000008152600401610fef90613d36565b60405180910390fd5b61100430600e54611ef3565b81600f6000600e548152602001908152602001600020819055508060106000600e54815260200190815260200160002081905550611044600e54846120c1565b83600c6000600e54815260200190815260200160002060006101000a81548173ffffffffffffffffffffffffffffffffffffffff021916908373ffffffffffffffffffffffffffffffffffffffff16021790555080601160008673ffffffffffffffffffffffffffffffffffffffff1673ffffffffffffffffffffffffffffffffffffffff16815260200190815260200160002060008282546110e79190613d56565b92505081905550601160008573ffffffffffffffffffffffffffffffffffffffff1673ffffffffffffffffffffffffffffffffffffffff16815260200190815260200160002054600d6000600e5481526020019081526020016000208190555060128190806001815401808255809150506001900390600052602060002001600090919091909150556001600e60008282546111839190613d56565b9250508190555050505050565b60008060009054906101000a900473ffffffffffffffffffffffffffffffffffffffff16905090565b601360003373ffffffffffffffffffffffffffffffffffffffff1673ffffffffffffffffffffffffffffffffffffffff16815260200190815260200160002060009054906101000a900460ff16611245576040517f08c379a000000000000000000000000000000000000000000000000000000000815260040161123c90613e1e565b60405180910390fd5b3373ffffffffffffffffffffffffffffffffffffffff16600c600083815260200190815260200160002060009054906101000a900473ffffffffffffffffffffffffffffffffffffffff1673ffffffffffffffffffffffffffffffffffffffff16146112e6576040517f08c379a00000000000000000000000000000000000000000000000000000000081526004016112dd90613eb0565b60405180910390fd5b600060106000838152602001908152602001600020541161133c576040517f08c379a000000000000000000000000000000000000000000000000000000000815260040161133390613f1c565b60405180910390fd5b60016010600083815260200190815260200160002060008282546113609190613f3c565b9250508190555050565b606060028054611379906136a9565b80601f01602080910402602001604051908101604052809291908181526020018280546113a5906136a9565b80156113f25780601f106113c7576101008083540402835291602001916113f2565b820191906000526020600020905b8154815290600101906020018083116113d557829003601f168201915b5050505050905090565b611404611a34565b73ffffffffffffffffffffffffffffffffffffffff16611422611190565b73ffffffffffffffffffffffffffffffffffffffff1614611478576040517f08c379a000000000000000000000000000000000000000000000000000000000815260040161146f90613ac2565b60405180910390fd5b60001515601360008373ffffffffffffffffffffffffffffffffffffffff1673ffffffffffffffffffffffffffffffffffffffff16815260200190815260200160002060009054906101000a900460ff1615151461150b576040517f08c379a000000000000000000000000000000000000000000000000000000000815260040161150290613fbc565b60405180910390fd5b6001601360008373ffffffffffffffffffffffffffffffffffffffff1673ffffffffffffffffffffffffffffffffffffffff16815260200190815260200160002060006101000a81548160ff0219169083151502179055506000601160008373ffffffffffffffffffffffffffffffffffffffff1673ffffffffffffffffffffffffffffffffffffffff168152602001908152602001600020819055506014819080600181540180825580915050600190039060005260206000200160009091909190916101000a81548173ffffffffffffffffffffffffffffffffffffffff021916908373ffffffffffffffffffffffffffffffffffffffff16021790555050565b611620611619611a34565b8383612135565b5050565b61163561162f611a34565b83611af5565b611674576040517f08c379a000000000000000000000000000000000000000000000000000000000815260040161166b90613903565b60405180910390fd5b611680848484846122a2565b50505050565b6000601360003373ffffffffffffffffffffffffffffffffffffffff1673ffffffffffffffffffffffffffffffffffffffff16815260200190815260200160002060009054906101000a900460ff16611714576040517f08c379a000000000000000000000000000000000000000000000000000000000815260040161170b90613e1e565b60405180910390fd5b3373ffffffffffffffffffffffffffffffffffffffff16600c600084815260200190815260200160002060009054906101000a900473ffffffffffffffffffffffffffffffffffffffff1673ffffffffffffffffffffffffffffffffffffffff16146117b5576040517f08c379a00000000000000000000000000000000000000000000000000000000081526004016117ac90613eb0565b60405180910390fd5b600d6000838152602001908152602001600020549050919050565b6000600f6000838152602001908152602001600020549050919050565b60606117f8826122fe565b9050919050565b6000600660008473ffffffffffffffffffffffffffffffffffffffff1673ffffffffffffffffffffffffffffffffffffffff16815260200190815260200160002060008373ffffffffffffffffffffffffffffffffffffffff1673ffffffffffffffffffffffffffffffffffffffff16815260200190815260200160002060009054906101000a900460ff16905092915050565b61189b611a34565b73ffffffffffffffffffffffffffffffffffffffff166118b9611190565b73ffffffffffffffffffffffffffffffffffffffff161461190f576040517f08c379a000000000000000000000000000000000000000000000000000000000815260040161190690613ac2565b60405180910390fd5b600073ffffffffffffffffffffffffffffffffffffffff168173ffffffffffffffffffffffffffffffffffffffff16141561197f576040517f08c379a00000000000000000000000000000000000000000000000000000000081526004016119769061404e565b60405180910390fd5b61198881611e2f565b50565b6000600c600083815260200190815260200160002060009054906101000a900473ffffffffffffffffffffffffffffffffffffffff169050919050565b60008073ffffffffffffffffffffffffffffffffffffffff166003600084815260200190815260200160002060009054906101000a900473ffffffffffffffffffffffffffffffffffffffff1673ffffffffffffffffffffffffffffffffffffffff1614159050919050565b600033905090565b816005600083815260200190815260200160002060006101000a81548173ffffffffffffffffffffffffffffffffffffffff021916908373ffffffffffffffffffffffffffffffffffffffff160217905550808273ffffffffffffffffffffffffffffffffffffffff16611aaf83610cfe565b73ffffffffffffffffffffffffffffffffffffffff167f8c5be1e5ebec7d5bd14f71427d1e84f3dd0314c0f7b2291e5b200ac8c7c3b92560405160405180910390a45050565b6000611b00826119c8565b611b3f576040517f08c379a0000000000000000000000000000000000000000000000000000000008152600401611b36906140e0565b60405180910390fd5b6000611b4a83610cfe565b90508073ffffffffffffffffffffffffffffffffffffffff168473ffffffffffffffffffffffffffffffffffffffff161480611bb957508373ffffffffffffffffffffffffffffffffffffffff16611ba184610683565b73ffffffffffffffffffffffffffffffffffffffff16145b80611bca5750611bc981856117ff565b5b91505092915050565b8273ffffffffffffffffffffffffffffffffffffffff16611bf382610cfe565b73ffffffffffffffffffffffffffffffffffffffff1614611c49576040517f08c379a0000000000000000000000000000000000000000000000000000000008152600401611c4090614172565b60405180910390fd5b600073ffffffffffffffffffffffffffffffffffffffff168273ffffffffffffffffffffffffffffffffffffffff161415611cb9576040517f08c379a0000000000000000000000000000000000000000000000000000000008152600401611cb090614204565b60405180910390fd5b611cc4838383612450565b611ccf600082611a3c565b6001600460008573ffffffffffffffffffffffffffffffffffffffff1673ffffffffffffffffffffffffffffffffffffffff1681526020019081526020016000206000828254611d1f9190613f3c565b925050819055506001600460008473ffffffffffffffffffffffffffffffffffffffff1673ffffffffffffffffffffffffffffffffffffffff1681526020019081526020016000206000828254611d769190613d56565b92505081905550816003600083815260200190815260200160002060006101000a81548173ffffffffffffffffffffffffffffffffffffffff021916908373ffffffffffffffffffffffffffffffffffffffff160217905550808273ffffffffffffffffffffffffffffffffffffffff168473ffffffffffffffffffffffffffffffffffffffff167fddf252ad1be2c89b69c2b068fc378daa952ba7f163c4a11628f55a4df523b3ef60405160405180910390a4505050565b60008060009054906101000a900473ffffffffffffffffffffffffffffffffffffffff169050816000806101000a81548173ffffffffffffffffffffffffffffffffffffffff021916908373ffffffffffffffffffffffffffffffffffffffff1602179055508173ffffffffffffffffffffffffffffffffffffffff168173ffffffffffffffffffffffffffffffffffffffff167f8be0079c531659141344cd1fd0a4f28419497f9722a3daafe3b4186f6b6457e060405160405180910390a35050565b600073ffffffffffffffffffffffffffffffffffffffff168273ffffffffffffffffffffffffffffffffffffffff161415611f63576040517f08c379a0000000000000000000000000000000000000000000000000000000008152600401611f5a90614270565b60405180910390fd5b611f6c816119c8565b15611fac576040517f08c379a0000000000000000000000000000000000000000000000000000000008152600401611fa3906142dc565b60405180910390fd5b611fb860008383612450565b6001600460008473ffffffffffffffffffffffffffffffffffffffff1673ffffffffffffffffffffffffffffffffffffffff16815260200190815260200160002060008282546120089190613d56565b92505081905550816003600083815260200190815260200160002060006101000a81548173ffffffffffffffffffffffffffffffffffffffff021916908373ffffffffffffffffffffffffffffffffffffffff160217905550808273ffffffffffffffffffffffffffffffffffffffff16600073ffffffffffffffffffffffffffffffffffffffff167fddf252ad1be2c89b69c2b068fc378daa952ba7f163c4a11628f55a4df523b3ef60405160405180910390a45050565b6120ca826119c8565b612109576040517f08c379a00000000000000000000000000000000000000000000000000000000081526004016121009061436e565b60405180910390fd5b80600760008481526020019081526020016000209080519060200190612130929190612c39565b505050565b8173ffffffffffffffffffffffffffffffffffffffff168373ffffffffffffffffffffffffffffffffffffffff1614156121a4576040517f08c379a000000000000000000000000000000000000000000000000000000000815260040161219b906143da565b60405180910390fd5b80600660008573ffffffffffffffffffffffffffffffffffffffff1673ffffffffffffffffffffffffffffffffffffffff16815260200190815260200160002060008473ffffffffffffffffffffffffffffffffffffffff1673ffffffffffffffffffffffffffffffffffffffff16815260200190815260200160002060006101000a81548160ff0219169083151502179055508173ffffffffffffffffffffffffffffffffffffffff168373ffffffffffffffffffffffffffffffffffffffff167f17307eab39ab6107e8899845ad3d59bd9653f200f220920489ca2b5937696c31836040516122959190612d90565b60405180910390a3505050565b6122ad848484611bd3565b6122b984848484612460565b6122f8576040517f08c379a00000000000000000000000000000000000000000000000000000000081526004016122ef9061446c565b60405180910390fd5b50505050565b6060612309826119c8565b612348576040517f08c379a000000000000000000000000000000000000000000000000000000000815260040161233f906144fe565b60405180910390fd5b6000600760008481526020019081526020016000208054612368906136a9565b80601f0160208091040260200160405190810160405280929190818152602001828054612394906136a9565b80156123e15780601f106123b6576101008083540402835291602001916123e1565b820191906000526020600020905b8154815290600101906020018083116123c457829003601f168201915b5050505050905060006123f26125e8565b905060008151141561240857819250505061244b565b60008251111561243d57808260405160200161242592919061455a565b6040516020818303038152906040529250505061244b565b612446846125ff565b925050505b919050565b61245b8383836126a6565b505050565b60006124818473ffffffffffffffffffffffffffffffffffffffff166127ba565b156125db578373ffffffffffffffffffffffffffffffffffffffff1663150b7a026124aa611a34565b8786866040518563ffffffff1660e01b81526004016124cc94939291906145d3565b6020604051808303816000875af192505050801561250857506040513d601f19601f820116820180604052508101906125059190614634565b60015b61258b573d8060008114612538576040519150601f19603f3d011682016040523d82523d6000602084013e61253d565b606091505b50600081511415612583576040517f08c379a000000000000000000000000000000000000000000000000000000000815260040161257a9061446c565b60405180910390fd5b805181602001fd5b63150b7a0260e01b7bffffffffffffffffffffffffffffffffffffffffffffffffffffffff1916817bffffffffffffffffffffffffffffffffffffffffffffffffffffffff1916149150506125e0565b600190505b949350505050565b606060405180602001604052806000815250905090565b606061260a826119c8565b612649576040517f08c379a0000000000000000000000000000000000000000000000000000000008152600401612640906146d3565b60405180910390fd5b60006126536125e8565b90506000815111612673576040518060200160405280600081525061269e565b8061267d846127cd565b60405160200161268e92919061455a565b6040516020818303038152906040525b915050919050565b6126b183838361292e565b600073ffffffffffffffffffffffffffffffffffffffff168373ffffffffffffffffffffffffffffffffffffffff1614156126f4576126ef81612933565b612733565b8173ffffffffffffffffffffffffffffffffffffffff168373ffffffffffffffffffffffffffffffffffffffff161461273257612731838261297c565b5b5b600073ffffffffffffffffffffffffffffffffffffffff168273ffffffffffffffffffffffffffffffffffffffff1614156127765761277181612ae9565b6127b5565b8273ffffffffffffffffffffffffffffffffffffffff168273ffffffffffffffffffffffffffffffffffffffff16146127b4576127b38282612bba565b5b5b505050565b600080823b905060008111915050919050565b60606000821415612815576040518060400160405280600181526020017f30000000000000000000000000000000000000000000000000000000000000008152509050612929565b600082905060005b6000821461284757808061283090613b7d565b915050600a826128409190614722565b915061281d565b60008167ffffffffffffffff811115612863576128626132d2565b5b6040519080825280601f01601f1916602001820160405280156128955781602001600182028036833780820191505090505b5090505b60008514612922576001826128ae9190613f3c565b9150600a856128bd9190614753565b60306128c99190613d56565b60f81b8183815181106128df576128de613a47565b5b60200101907effffffffffffffffffffffffffffffffffffffffffffffffffffffffffffff1916908160001a905350600a8561291b9190614722565b9450612899565b8093505050505b919050565b505050565b600a80549050600b600083815260200190815260200160002081905550600a81908060018154018082558091505060019003906000526020600020016000909190919091505550565b6000600161298984610db0565b6129939190613f3c565b9050600060096000848152602001908152602001600020549050818114612a78576000600860008673ffffffffffffffffffffffffffffffffffffffff1673ffffffffffffffffffffffffffffffffffffffff168152602001908152602001600020600084815260200190815260200160002054905080600860008773ffffffffffffffffffffffffffffffffffffffff1673ffffffffffffffffffffffffffffffffffffffff168152602001908152602001600020600084815260200190815260200160002081905550816009600083815260200190815260200160002081905550505b6009600084815260200190815260200160002060009055600860008573ffffffffffffffffffffffffffffffffffffffff1673ffffffffffffffffffffffffffffffffffffffff16815260200190815260200160002060008381526020019081526020016000206000905550505050565b60006001600a80549050612afd9190613f3c565b90506000600b60008481526020019081526020016000205490506000600a8381548110612b2d57612b2c613a47565b5b9060005260206000200154905080600a8381548110612b4f57612b4e613a47565b5b906000526020600020018190555081600b600083815260200190815260200160002081905550600b600085815260200190815260200160002060009055600a805480612b9e57612b9d614784565b5b6001900381819060005260206000200160009055905550505050565b6000612bc583610db0565b905081600860008573ffffffffffffffffffffffffffffffffffffffff1673ffffffffffffffffffffffffffffffffffffffff168152602001908152602001600020600083815260200190815260200160002081905550806009600084815260200190815260200160002081905550505050565b828054612c45906136a9565b90600052602060002090601f016020900481019282612c675760008555612cae565b82601f10612c8057805160ff1916838001178555612cae565b82800160010185558215612cae579182015b82811115612cad578251825591602001919060010190612c92565b5b509050612cbb9190612cbf565b5090565b5b80821115612cd8576000816000905550600101612cc0565b5090565b6000604051905090565b600080fd5b600080fd5b60007fffffffff0000000000000000000000000000000000000000000000000000000082169050919050565b612d2581612cf0565b8114612d3057600080fd5b50565b600081359050612d4281612d1c565b92915050565b600060208284031215612d5e57612d5d612ce6565b5b6000612d6c84828501612d33565b91505092915050565b60008115159050919050565b612d8a81612d75565b82525050565b6000602082019050612da56000830184612d81565b92915050565b600081519050919050565b600082825260208201905092915050565b60005b83811015612de5578082015181840152602081019050612dca565b83811115612df4576000848401525b50505050565b6000601f19601f8301169050919050565b6000612e1682612dab565b612e208185612db6565b9350612e30818560208601612dc7565b612e3981612dfa565b840191505092915050565b60006020820190508181036000830152612e5e8184612e0b565b905092915050565b6000819050919050565b612e7981612e66565b8114612e8457600080fd5b50565b600081359050612e9681612e70565b92915050565b600060208284031215612eb257612eb1612ce6565b5b6000612ec084828501612e87565b91505092915050565b600073ffffffffffffffffffffffffffffffffffffffff82169050919050565b6000612ef482612ec9565b9050919050565b612f0481612ee9565b82525050565b6000602082019050612f1f6000830184612efb565b92915050565b612f2e81612ee9565b8114612f3957600080fd5b50565b600081359050612f4b81612f25565b92915050565b60008060408385031215612f6857612f67612ce6565b5b6000612f7685828601612f3c565b9250506020612f8785828601612e87565b9150509250929050565b612f9a81612e66565b82525050565b6000602082019050612fb56000830184612f91565b92915050565b600081519050919050565b600082825260208201905092915050565b6000819050602082019050919050565b612ff081612e66565b82525050565b60006130028383612fe7565b60208301905092915050565b6000602082019050919050565b600061302682612fbb565b6130308185612fc6565b935061303b83612fd7565b8060005b8381101561306c5781516130538882612ff6565b975061305e8361300e565b92505060018101905061303f565b5085935050505092915050565b60006020820190508181036000830152613093818461301b565b905092915050565b6000806000606084860312156130b4576130b3612ce6565b5b60006130c286828701612f3c565b93505060206130d386828701612f3c565b92505060406130e486828701612e87565b9150509250925092565b600081519050919050565b600082825260208201905092915050565b6000819050602082019050919050565b6000819050919050565b600061313f61313a61313584612ec9565b61311a565b612ec9565b9050919050565b600061315182613124565b9050919050565b600061316382613146565b9050919050565b61317381613158565b82525050565b6000613185838361316a565b60208301905092915050565b6000602082019050919050565b60006131a9826130ee565b6131b381856130f9565b93506131be8361310a565b8060005b838110156131ef5781516131d68882613179565b97506131e183613191565b9250506001810190506131c2565b5085935050505092915050565b60006020820190508181036000830152613216818461319e565b905092915050565b600061322982612ec9565b9050919050565b600061323b8261321e565b9050919050565b61324b81613230565b811461325657600080fd5b50565b60008135905061326881613242565b92915050565b60006020828403121561328457613283612ce6565b5b600061329284828501613259565b91505092915050565b6000602082840312156132b1576132b0612ce6565b5b60006132bf84828501612f3c565b91505092915050565b600080fd5b600080fd5b7f4e487b7100000000000000000000000000000000000000000000000000000000600052604160045260246000fd5b61330a82612dfa565b810181811067ffffffffffffffff82111715613329576133286132d2565b5b80604052505050565b600061333c612cdc565b90506133488282613301565b919050565b600067ffffffffffffffff821115613368576133676132d2565b5b61337182612dfa565b9050602081019050919050565b82818337600083830152505050565b60006133a061339b8461334d565b613332565b9050828152602081018484840111156133bc576133bb6132cd565b5b6133c784828561337e565b509392505050565b600082601f8301126133e4576133e36132c8565b5b81356133f484826020860161338d565b91505092915050565b6000806000806080858703121561341757613416612ce6565b5b600061342587828801613259565b945050602085013567ffffffffffffffff81111561344657613445612ceb565b5b613452878288016133cf565b935050604061346387828801612e87565b925050606061347487828801612e87565b91505092959194509250565b61348981612d75565b811461349457600080fd5b50565b6000813590506134a681613480565b92915050565b600080604083850312156134c3576134c2612ce6565b5b60006134d185828601612f3c565b92505060206134e285828601613497565b9150509250929050565b600067ffffffffffffffff821115613507576135066132d2565b5b61351082612dfa565b9050602081019050919050565b600061353061352b846134ec565b613332565b90508281526020810184848401111561354c5761354b6132cd565b5b61355784828561337e565b509392505050565b600082601f830112613574576135736132c8565b5b813561358484826020860161351d565b91505092915050565b600080600080608085870312156135a7576135a6612ce6565b5b60006135b587828801612f3c565b94505060206135c687828801612f3c565b93505060406135d787828801612e87565b925050606085013567ffffffffffffffff8111156135f8576135f7612ceb565b5b6136048782880161355f565b91505092959194509250565b6000806040838503121561362757613626612ce6565b5b600061363585828601612f3c565b925050602061364685828601612f3c565b9150509250929050565b61365981613158565b82525050565b60006020820190506136746000830184613650565b92915050565b7f4e487b7100000000000000000000000000000000000000000000000000000000600052602260045260246000fd5b600060028204905060018216806136c157607f821691505b602082108114156136d5576136d461367a565b5b50919050565b7f4552433732313a20617070726f76656420717565727920666f72206e6f6e657860008201527f697374656e7420746f6b656e0000000000000000000000000000000000000000602082015250565b6000613737602c83612db6565b9150613742826136db565b604082019050919050565b600060208201905081810360008301526137668161372a565b9050919050565b7f4552433732313a20617070726f76616c20746f2063757272656e74206f776e6560008201527f7200000000000000000000000000000000000000000000000000000000000000602082015250565b60006137c9602183612db6565b91506137d48261376d565b604082019050919050565b600060208201905081810360008301526137f8816137bc565b9050919050565b7f4552433732313a20617070726f76652063616c6c6572206973206e6f74206f7760008201527f6e6572206e6f7220617070726f76656420666f7220616c6c0000000000000000602082015250565b600061385b603883612db6565b9150613866826137ff565b604082019050919050565b6000602082019050818103600083015261388a8161384e565b9050919050565b7f4552433732313a207472616e736665722063616c6c6572206973206e6f74206f60008201527f776e6572206e6f7220617070726f766564000000000000000000000000000000602082015250565b60006138ed603183612db6565b91506138f882613891565b604082019050919050565b6000602082019050818103600083015261391c816138e0565b9050919050565b7f455243373231456e756d657261626c653a206f776e657220696e646578206f7560008201527f74206f6620626f756e6473000000000000000000000000000000000000000000602082015250565b600061397f602b83612db6565b915061398a82613923565b604082019050919050565b600060208201905081810360008301526139ae81613972565b9050919050565b7f455243373231456e756d657261626c653a20676c6f62616c20696e646578206f60008201527f7574206f6620626f756e64730000000000000000000000000000000000000000602082015250565b6000613a11602c83612db6565b9150613a1c826139b5565b604082019050919050565b60006020820190508181036000830152613a4081613a04565b9050919050565b7f4e487b7100000000000000000000000000000000000000000000000000000000600052603260045260246000fd5b7f4f776e61626c653a2063616c6c6572206973206e6f7420746865206f776e6572600082015250565b6000613aac602083612db6565b9150613ab782613a76565b602082019050919050565b60006020820190508181036000830152613adb81613a9f565b9050919050565b7f636f6c6c656374696f6e206e6565647320746f20657869737400000000000000600082015250565b6000613b18601983612db6565b9150613b2382613ae2565b602082019050919050565b60006020820190508181036000830152613b4781613b0b565b9050919050565b7f4e487b7100000000000000000000000000000000000000000000000000000000600052601160045260246000fd5b6000613b8882612e66565b91507fffffffffffffffffffffffffffffffffffffffffffffffffffffffffffffffff821415613bbb57613bba613b4e565b5b600182019050919050565b7f4552433732313a206f776e657220717565727920666f72206e6f6e657869737460008201527f656e7420746f6b656e0000000000000000000000000000000000000000000000602082015250565b6000613c22602983612db6565b9150613c2d82613bc6565b604082019050919050565b60006020820190508181036000830152613c5181613c15565b9050919050565b7f4552433732313a2062616c616e636520717565727920666f7220746865207a6560008201527f726f206164647265737300000000000000000000000000000000000000000000602082015250565b6000613cb4602a83612db6565b9150613cbf82613c58565b604082019050919050565b60006020820190508181036000830152613ce381613ca7565b9050919050565b7f73686f756c6420626520666f7220612076616c696420636f6c6c656374696f6e600082015250565b6000613d20602083612db6565b9150613d2b82613cea565b602082019050919050565b60006020820190508181036000830152613d4f81613d13565b9050919050565b6000613d6182612e66565b9150613d6c83612e66565b9250827fffffffffffffffffffffffffffffffffffffffffffffffffffffffffffffffff03821115613da157613da0613b4e565b5b828201905092915050565b7f73686f756c64206f6e6c792062652063616c6c656420627920636f6c6c65637460008201527f696f6e0000000000000000000000000000000000000000000000000000000000602082015250565b6000613e08602383612db6565b9150613e1382613dac565b604082019050919050565b60006020820190508181036000830152613e3781613dfb565b9050919050565b7f73686f756c642062652063616c6c656420627920636f727265637420636f6c6c60008201527f656374696f6e0000000000000000000000000000000000000000000000000000602082015250565b6000613e9a602683612db6565b9150613ea582613e3e565b604082019050919050565b60006020820190508181036000830152613ec981613e8d565b9050919050565b7f7468657265206973206e6f7468696e67206c6566740000000000000000000000600082015250565b6000613f06601583612db6565b9150613f1182613ed0565b602082019050919050565b60006020820190508181036000830152613f3581613ef9565b9050919050565b6000613f4782612e66565b9150613f5283612e66565b925082821015613f6557613f64613b4e565b5b828203905092915050565b7f636f6c6c656374696f6e2077617320616c726561647920616464656400000000600082015250565b6000613fa6601c83612db6565b9150613fb182613f70565b602082019050919050565b60006020820190508181036000830152613fd581613f99565b9050919050565b7f4f776e61626c653a206e6577206f776e657220697320746865207a65726f206160008201527f6464726573730000000000000000000000000000000000000000000000000000602082015250565b6000614038602683612db6565b915061404382613fdc565b604082019050919050565b600060208201905081810360008301526140678161402b565b9050919050565b7f4552433732313a206f70657261746f7220717565727920666f72206e6f6e657860008201527f697374656e7420746f6b656e0000000000000000000000000000000000000000602082015250565b60006140ca602c83612db6565b91506140d58261406e565b604082019050919050565b600060208201905081810360008301526140f9816140bd565b9050919050565b7f4552433732313a207472616e73666572206f6620746f6b656e2074686174206960008201527f73206e6f74206f776e0000000000000000000000000000000000000000000000602082015250565b600061415c602983612db6565b915061416782614100565b604082019050919050565b6000602082019050818103600083015261418b8161414f565b9050919050565b7f4552433732313a207472616e7366657220746f20746865207a65726f2061646460008201527f7265737300000000000000000000000000000000000000000000000000000000602082015250565b60006141ee602483612db6565b91506141f982614192565b604082019050919050565b6000602082019050818103600083015261421d816141e1565b9050919050565b7f4552433732313a206d696e7420746f20746865207a65726f2061646472657373600082015250565b600061425a602083612db6565b915061426582614224565b602082019050919050565b600060208201905081810360008301526142898161424d565b9050919050565b7f4552433732313a20746f6b656e20616c7265616479206d696e74656400000000600082015250565b60006142c6601c83612db6565b91506142d182614290565b602082019050919050565b600060208201905081810360008301526142f5816142b9565b9050919050565b7f45524337323155524953746f726167653a2055524920736574206f66206e6f6e60008201527f6578697374656e7420746f6b656e000000000000000000000000000000000000602082015250565b6000614358602e83612db6565b9150614363826142fc565b604082019050919050565b600060208201905081810360008301526143878161434b565b9050919050565b7f4552433732313a20617070726f766520746f2063616c6c657200000000000000600082015250565b60006143c4601983612db6565b91506143cf8261438e565b602082019050919050565b600060208201905081810360008301526143f3816143b7565b9050919050565b7f4552433732313a207472616e7366657220746f206e6f6e20455243373231526560008201527f63656976657220696d706c656d656e7465720000000000000000000000000000602082015250565b6000614456603283612db6565b9150614461826143fa565b604082019050919050565b6000602082019050818103600083015261448581614449565b9050919050565b7f45524337323155524953746f726167653a2055524920717565727920666f722060008201527f6e6f6e6578697374656e7420746f6b656e000000000000000000000000000000602082015250565b60006144e8603183612db6565b91506144f38261448c565b604082019050919050565b60006020820190508181036000830152614517816144db565b9050919050565b600081905092915050565b600061453482612dab565b61453e818561451e565b935061454e818560208601612dc7565b80840191505092915050565b60006145668285614529565b91506145728284614529565b91508190509392505050565b600081519050919050565b600082825260208201905092915050565b60006145a58261457e565b6145af8185614589565b93506145bf818560208601612dc7565b6145c881612dfa565b840191505092915050565b60006080820190506145e86000830187612efb565b6145f56020830186612efb565b6146026040830185612f91565b8181036060830152614614818461459a565b905095945050505050565b60008151905061462e81612d1c565b92915050565b60006020828403121561464a57614649612ce6565b5b60006146588482850161461f565b91505092915050565b7f4552433732314d657461646174613a2055524920717565727920666f72206e6f60008201527f6e6578697374656e7420746f6b656e0000000000000000000000000000000000602082015250565b60006146bd602f83612db6565b91506146c882614661565b604082019050919050565b600060208201905081810360008301526146ec816146b0565b9050919050565b7f4e487b7100000000000000000000000000000000000000000000000000000000600052601260045260246000fd5b600061472d82612e66565b915061473883612e66565b925082614748576147476146f3565b5b828204905092915050565b600061475e82612e66565b915061476983612e66565b925082614779576147786146f3565b5b828206905092915050565b7f4e487b7100000000000000000000000000000000000000000000000000000000600052603160045260246000fdfea2646970667358221220564054729d13932ea856238e4b433daf6ac8df6c436cc1d7f87f38a797a29f2064736f6c634300080a0033",
  "immutableReferences": {},
  "source": "pragma solidity ^0.8.10;\n\nimport \"@openzeppelin/contracts/access/Ownable.sol\";\nimport \"@openzeppelin/contracts/token/ERC721/ERC721.sol\";\nimport \"@openzeppelin/contracts/token/ERC721/extensions/ERC721Enumerable.sol\";\nimport \"@openzeppelin/contracts/token/ERC721/extensions/ERC721URIStorage.sol\";\n\nimport \"./ForTheLolzItem.sol\";\n\n/*\n * The ForSale Contract is basically a register of available tokens that is not yet\n * indexed by Exchanges.\n * Tokens are bought from the 'collections' instead of this one\n * and minted directly buy the initial buyer.\n * This contract is essentially keeping track of:\n * 1) how many copies of an artwork exist and are still available\n * 2) how much a copy costs\n * 3) to which collection it belongs\n */\n\ncontract ForTheLolzForSale is Ownable, ERC721, ERC721URIStorage, ERC721Enumerable {\n  /* map forSaleTokenId to the collection it belongs to */\n  mapping(uint256 => ForTheLolzItem) internal forSaleTokenIdToCollection;\n  /* map forSaleTokenId to the tokenId to be used within that collection */\n  mapping(uint256 => uint256)        internal forSaleTokenIdToCollectionTokenId;\n  /* track number of forSaleTokenIds to mint with incremental tokenIds */\n  uint256 totalNumberOfForSaleTokenId;\n\n  mapping(uint256 => uint256) internal tokenPrice;\n  mapping(uint256 => uint256) internal available;\n\n  /* keep track of how many copies are within a specific collection.\n   * we use this to keep track of the correct tokenId to be used for\n   * that specific collection. */\n  mapping(ForTheLolzItem => uint256) internal totalNumberOfAllCopies;\n\n  /* keep track how many copies each artwork has */\n  uint256[] internal totalNumberOfAtworks;\n\n  /* mapping to check if a collection was added to be used by this contract */\n  mapping(ForTheLolzItem => bool) internal ERC721Collections;\n  /* array of collections to be returned to the frontend for visualization */\n  ForTheLolzItem[] internal collections;\n\n  constructor() ERC721(\"ForTheLolz\", \"FTL\")  {\n    totalNumberOfForSaleTokenId = 0;\n  }\n\n  /* onlyOwner */\n  function addCollection(ForTheLolzItem collection) onlyOwner public {\n    require(ERC721Collections[collection] == false, \"collection was already added\");\n    ERC721Collections[collection] = true;\n    totalNumberOfAllCopies[collection] = 0;\n    collections.push(collection);\n  }\n\n  function removeCollection(ForTheLolzItem collection) onlyOwner public {\n    require(ERC721Collections[collection], \"collection needs to exist\");\n    delete ERC721Collections[collection];\n    for (uint i=0; i<collections.length; i++) {\n      if (collections[i] == collection) {\n        delete collections[i];\n        return;\n      }\n    }\n  }\n\n  /* views */\n  function getTokenPrice(uint256 tokenId) public view returns (uint) {\n    return tokenPrice[tokenId];\n  }\n\n  function getAvailableNumberOfArtworks(uint256 tokenId) public view returns (uint256) {\n    return available[tokenId];\n  }\n\n  function getTotalNumberOfArtworks() public view returns (uint256[] memory) {\n    return totalNumberOfAtworks;\n  }\n\n  /* getCollectionTokenId is called by the collection to traverse\n   * the forSaleTokenId to the tokenId for the specific collection to be used */\n  function getCollectionTokenId(uint256 tokenId) public view returns (uint256) {\n    require(\n      ERC721Collections[ForTheLolzItem(payable(msg.sender))],\n      \"should only be called by collection\");\n    require(\n      forSaleTokenIdToCollection[tokenId] == ForTheLolzItem(payable(msg.sender)),\n      \"should be called by correct collection\");\n    return forSaleTokenIdToCollectionTokenId[tokenId];\n  }\n\n  /* getCollectionOfTokenId returns the collection for a given tokenId */\n  function getCollectionOfTokenId(uint256 tokenId) public view returns (ForTheLolzItem) {\n    return forSaleTokenIdToCollection[tokenId];\n  }\n\n  function getCollections() public view returns (ForTheLolzItem[] memory) {\n    return collections;\n  }\n\n  /* public */\n  function addItem(\n    ForTheLolzItem collection, string memory newTokenURI, uint price, uint256 copies\n  ) onlyOwner public {\n    require(ERC721Collections[collection], \"should be for a valid collection\");\n    /* mint to own address for bookkeeping only\n     * (to use ERC721Enumerable for easy visualization & ERC721URIStorage to set a tokenURI) */\n    _mint(address(this), totalNumberOfForSaleTokenId);\n\n    tokenPrice[totalNumberOfForSaleTokenId] = price;\n    available[totalNumberOfForSaleTokenId] = copies;\n    _setTokenURI(totalNumberOfForSaleTokenId, newTokenURI);\n\n    forSaleTokenIdToCollection[totalNumberOfForSaleTokenId] = collection;\n\n    /* next tokenId within the collection is the total number of copies it has */\n    totalNumberOfAllCopies[collection] += copies;\n    forSaleTokenIdToCollectionTokenId[totalNumberOfForSaleTokenId] =\n      totalNumberOfAllCopies[collection];\n\n    totalNumberOfAtworks.push(copies);\n    totalNumberOfForSaleTokenId += 1;\n  }\n\n  function sellItem(uint256 tokenId) public {\n    /* sellItem is called by the collection\n     * to update the amount of tokens that are still available */\n    require(\n      ERC721Collections[ForTheLolzItem(payable(msg.sender))],\n      \"should only be called by collection\");\n    require(\n      forSaleTokenIdToCollection[tokenId] == ForTheLolzItem(payable(msg.sender)),\n      \"should be called by correct collection\");\n    require(available[tokenId] > 0, \"there is nothing left\");\n    available[tokenId] -= 1;\n  }\n\n  /* ERC165 */\n  function supportsInterface(bytes4 /* interfaceId */)\n    public view virtual override(ERC721, ERC721Enumerable) returns (bool) {\n    return false;\n  }\n\n  /* ERC721, ERC721Enumerable */\n  function _beforeTokenTransfer(address from, address to, uint256 tokenId)\n    internal virtual override(ERC721, ERC721Enumerable) {\n    super._beforeTokenTransfer(from, to, tokenId);\n  }\n\n  /* ERC721URIStorage */\n  function tokenURI(uint256 tokenId)\n    public view virtual override(ERC721, ERC721URIStorage) returns (string memory) {\n    return super.tokenURI(tokenId);\n  }\n\n  function _burn(uint256 tokenId) internal virtual override(ERC721, ERC721URIStorage) {\n    super._burn(tokenId);\n    delete tokenPrice[tokenId];\n  }\n}\n",
  "sourcePath": "/home/jkl/Developer/nft_marketplace/truffle/contracts/ForTheLolzForSale.sol",
  "compiler": {
    "name": "solc",
    "version": "0.8.10+commit.fc410830.Emscripten.clang"
  },
  "schemaVersion": "3.4.4",
  "updatedAt": "2022-01-12T22:13:39.371Z",
  "networkType": "ethereum",
  "devdoc": {
    "kind": "dev",
    "methods": {
      "approve(address,uint256)": {
        "details": "See {IERC721-approve}."
      },
      "balanceOf(address)": {
        "details": "See {IERC721-balanceOf}."
      },
      "getApproved(uint256)": {
        "details": "See {IERC721-getApproved}."
      },
      "isApprovedForAll(address,address)": {
        "details": "See {IERC721-isApprovedForAll}."
      },
      "name()": {
        "details": "See {IERC721Metadata-name}."
      },
      "owner()": {
        "details": "Returns the address of the current owner."
      },
      "ownerOf(uint256)": {
        "details": "See {IERC721-ownerOf}."
      },
      "renounceOwnership()": {
        "details": "Leaves the contract without owner. It will not be possible to call `onlyOwner` functions anymore. Can only be called by the current owner. NOTE: Renouncing ownership will leave the contract without an owner, thereby removing any functionality that is only available to the owner."
      },
      "safeTransferFrom(address,address,uint256)": {
        "details": "See {IERC721-safeTransferFrom}."
      },
      "safeTransferFrom(address,address,uint256,bytes)": {
        "details": "See {IERC721-safeTransferFrom}."
      },
      "setApprovalForAll(address,bool)": {
        "details": "See {IERC721-setApprovalForAll}."
      },
      "symbol()": {
        "details": "See {IERC721Metadata-symbol}."
      },
      "tokenByIndex(uint256)": {
        "details": "See {IERC721Enumerable-tokenByIndex}."
      },
      "tokenOfOwnerByIndex(address,uint256)": {
        "details": "See {IERC721Enumerable-tokenOfOwnerByIndex}."
      },
      "totalSupply()": {
        "details": "See {IERC721Enumerable-totalSupply}."
      },
      "transferFrom(address,address,uint256)": {
        "details": "See {IERC721-transferFrom}."
      },
      "transferOwnership(address)": {
        "details": "Transfers ownership of the contract to a new account (`newOwner`). Can only be called by the current owner."
      }
    },
    "version": 1
  },
  "userdoc": {
    "kind": "user",
    "methods": {},
    "version": 1
  }
}