{
  "contractName": "Metagency",
  "abi": [
    {
      "inputs": [],
      "stateMutability": "nonpayable",
      "type": "constructor"
    },
    {
      "anonymous": false,
      "inputs": [
        {
          "indexed": true,
          "internalType": "address",
          "name": "previousOwner",
          "type": "address"
        },
        {
          "indexed": true,
          "internalType": "address",
          "name": "newOwner",
          "type": "address"
        }
      ],
      "name": "OwnershipTransferred",
      "type": "event"
    },
    {
      "inputs": [],
      "name": "owner",
      "outputs": [
        {
          "internalType": "address",
          "name": "",
          "type": "address"
        }
      ],
      "stateMutability": "view",
      "type": "function"
    },
    {
      "inputs": [],
      "name": "renounceOwnership",
      "outputs": [],
      "stateMutability": "nonpayable",
      "type": "function"
    },
    {
      "inputs": [
        {
          "internalType": "address",
          "name": "newOwner",
          "type": "address"
        }
      ],
      "name": "transferOwnership",
      "outputs": [],
      "stateMutability": "nonpayable",
      "type": "function"
    },
    {
      "inputs": [
        {
          "internalType": "uint256",
          "name": "forSaleTokenId",
          "type": "uint256"
        }
      ],
      "name": "getInfo",
      "outputs": [
        {
          "internalType": "uint256",
          "name": "",
          "type": "uint256"
        },
        {
          "internalType": "uint256",
          "name": "",
          "type": "uint256"
        },
        {
          "internalType": "uint256",
          "name": "",
          "type": "uint256"
        },
        {
          "internalType": "string",
          "name": "",
          "type": "string"
        }
      ],
      "stateMutability": "view",
      "type": "function"
    },
    {
      "inputs": [
        {
          "internalType": "contract MetagencyCollection",
          "name": "collection",
          "type": "address"
        }
      ],
      "name": "addCollection",
      "outputs": [],
      "stateMutability": "nonpayable",
      "type": "function"
    },
    {
      "inputs": [
        {
          "internalType": "contract MetagencyCollection",
          "name": "collection",
          "type": "address"
        }
      ],
      "name": "removeCollection",
      "outputs": [],
      "stateMutability": "nonpayable",
      "type": "function"
    },
    {
      "inputs": [],
      "name": "totalSupply",
      "outputs": [
        {
          "internalType": "uint256",
          "name": "",
          "type": "uint256"
        }
      ],
      "stateMutability": "view",
      "type": "function"
    },
    {
      "inputs": [
        {
          "internalType": "uint256",
          "name": "tokenId",
          "type": "uint256"
        }
      ],
      "name": "tokenURI",
      "outputs": [
        {
          "internalType": "string",
          "name": "",
          "type": "string"
        }
      ],
      "stateMutability": "view",
      "type": "function"
    },
    {
      "inputs": [
        {
          "internalType": "uint256",
          "name": "tokenId",
          "type": "uint256"
        }
      ],
      "name": "getTokenPrice",
      "outputs": [
        {
          "internalType": "uint256",
          "name": "",
          "type": "uint256"
        }
      ],
      "stateMutability": "view",
      "type": "function"
    },
    {
      "inputs": [
        {
          "internalType": "uint256",
          "name": "tokenId",
          "type": "uint256"
        }
      ],
      "name": "getAvailableNumberOfArtworks",
      "outputs": [
        {
          "internalType": "uint256",
          "name": "",
          "type": "uint256"
        }
      ],
      "stateMutability": "view",
      "type": "function"
    },
    {
      "inputs": [],
      "name": "getTotalNumberOfArtworks",
      "outputs": [
        {
          "internalType": "uint256[]",
          "name": "",
          "type": "uint256[]"
        }
      ],
      "stateMutability": "view",
      "type": "function"
    },
    {
      "inputs": [
        {
          "internalType": "uint256",
          "name": "tokenId",
          "type": "uint256"
        }
      ],
      "name": "getCollectionTokenId",
      "outputs": [
        {
          "internalType": "uint256",
          "name": "",
          "type": "uint256"
        }
      ],
      "stateMutability": "view",
      "type": "function"
    },
    {
      "inputs": [
        {
          "internalType": "uint256",
          "name": "tokenId",
          "type": "uint256"
        }
      ],
      "name": "getCollectionOfTokenId",
      "outputs": [
        {
          "internalType": "contract MetagencyCollection",
          "name": "",
          "type": "address"
        }
      ],
      "stateMutability": "view",
      "type": "function"
    },
    {
      "inputs": [],
      "name": "getCollections",
      "outputs": [
        {
          "internalType": "contract MetagencyCollection[]",
          "name": "",
          "type": "address[]"
        }
      ],
      "stateMutability": "view",
      "type": "function"
    },
    {
      "inputs": [
        {
          "internalType": "contract MetagencyCollection",
          "name": "collection",
          "type": "address"
        },
        {
          "internalType": "string",
          "name": "newTokenURI",
          "type": "string"
        },
        {
          "internalType": "uint256",
          "name": "price",
          "type": "uint256"
        },
        {
          "internalType": "uint256",
          "name": "copies",
          "type": "uint256"
        }
      ],
      "name": "addItem",
      "outputs": [],
      "stateMutability": "nonpayable",
      "type": "function"
    },
    {
      "inputs": [
        {
          "internalType": "uint256",
          "name": "forSaleTokenId",
          "type": "uint256"
        }
      ],
      "name": "disableItem",
      "outputs": [],
      "stateMutability": "nonpayable",
      "type": "function"
    },
    {
      "inputs": [
        {
          "internalType": "uint256",
          "name": "tokenId",
          "type": "uint256"
        }
      ],
      "name": "sellItem",
      "outputs": [],
      "stateMutability": "nonpayable",
      "type": "function"
    }
  ],
  "bytecode": "0x608060405234801561001057600080fd5b5061002d61002261003a60201b60201c565b61004260201b60201c565b6000600181905550610106565b600033905090565b60008060009054906101000a900473ffffffffffffffffffffffffffffffffffffffff169050816000806101000a81548173ffffffffffffffffffffffffffffffffffffffff021916908373ffffffffffffffffffffffffffffffffffffffff1602179055508173ffffffffffffffffffffffffffffffffffffffff168173ffffffffffffffffffffffffffffffffffffffff167f8be0079c531659141344cd1fd0a4f28419497f9722a3daafe3b4186f6b6457e060405160405180910390a35050565b61221580620001166000396000f3fe608060405234801561001057600080fd5b506004361061010b5760003560e01c80638da5cb5b116100a2578063c06c981811610071578063c06c981814610281578063c457fb37146102b1578063c87b56dd146102e1578063f2fde38b14610311578063f4c7a32d1461032d5761010b565b80638da5cb5b1461020f57806391b6be9a1461022d57806392184bfb14610249578063a174e77a146102655761010b565b80635028d05a116100de5780635028d05a1461019d5780635c942b2a146101b9578063715018a6146101e957806372e23563146101f35761010b565b806318160ddd14610110578063186ba2621461012e5780631a3cd59a1461014c57806346e635861461017f575b600080fd5b61011861035d565b604051610125919061155c565b60405180910390f35b610136610367565b6040516101439190611635565b60405180910390f35b61016660048036038101906101619190611697565b6103bf565b604051610176949392919061175d565b60405180910390f35b610187610547565b60405161019491906118d7565b60405180910390f35b6101b760048036038101906101b29190611949565b6105d5565b005b6101d360048036038101906101ce9190611697565b61080d565b6040516101e0919061155c565b60405180910390f35b6101f161082a565b005b61020d60048036038101906102089190611aab565b6108b2565b005b610217610b63565b6040516102249190611b4f565b60405180910390f35b61024760048036038101906102429190611697565b610b8c565b005b610263600480360381019061025e9190611697565b610d3d565b005b61027f600480360381019061027a9190611949565b610e3d565b005b61029b60048036038101906102969190611697565b61104f565b6040516102a8919061155c565b60405180910390f35b6102cb60048036038101906102c69190611697565b611199565b6040516102d8919061155c565b60405180910390f35b6102fb60048036038101906102f69190611697565b6111b6565b6040516103089190611b6a565b60405180910390f35b61032b60048036038101906103269190611bb8565b61129f565b005b61034760048036038101906103429190611697565b611397565b6040516103549190611bf4565b60405180910390f35b6000600154905090565b606060088054806020026020016040519081016040528092919081815260200182805480156103b557602002820191906000526020600020905b8154815260200190600101908083116103a1575b5050505050905090565b60008060006060600960003373ffffffffffffffffffffffffffffffffffffffff1673ffffffffffffffffffffffffffffffffffffffff16815260200190815260200160002060009054906101000a900460ff16610452576040517f08c379a000000000000000000000000000000000000000000000000000000000815260040161044990611c81565b60405180910390fd5b3373ffffffffffffffffffffffffffffffffffffffff166002600087815260200190815260200160002060009054906101000a900473ffffffffffffffffffffffffffffffffffffffff1673ffffffffffffffffffffffffffffffffffffffff16146104f3576040517f08c379a00000000000000000000000000000000000000000000000000000000081526004016104ea90611d13565b60405180910390fd5b600360008681526020019081526020016000205460066000878152602001908152602001600020546005600088815260200190815260200160002054610538886111b6565b93509350935093509193509193565b6060600a8054806020026020016040519081016040528092919081815260200182805480156105cb57602002820191906000526020600020905b8160009054906101000a900473ffffffffffffffffffffffffffffffffffffffff1673ffffffffffffffffffffffffffffffffffffffff1681526020019060010190808311610581575b5050505050905090565b6105dd6113d4565b73ffffffffffffffffffffffffffffffffffffffff166105fb610b63565b73ffffffffffffffffffffffffffffffffffffffff1614610651576040517f08c379a000000000000000000000000000000000000000000000000000000000815260040161064890611d7f565b60405180910390fd5b600960008273ffffffffffffffffffffffffffffffffffffffff1673ffffffffffffffffffffffffffffffffffffffff16815260200190815260200160002060009054906101000a900460ff166106dd576040517f08c379a00000000000000000000000000000000000000000000000000000000081526004016106d490611deb565b60405180910390fd5b600960008273ffffffffffffffffffffffffffffffffffffffff1673ffffffffffffffffffffffffffffffffffffffff16815260200190815260200160002060006101000a81549060ff021916905560005b600a80549050811015610808578173ffffffffffffffffffffffffffffffffffffffff16600a828154811061076757610766611e0b565b5b9060005260206000200160009054906101000a900473ffffffffffffffffffffffffffffffffffffffff1673ffffffffffffffffffffffffffffffffffffffff1614156107f557600a81815481106107c2576107c1611e0b565b5b9060005260206000200160006101000a81549073ffffffffffffffffffffffffffffffffffffffff02191690555061080a565b808061080090611e69565b91505061072f565b505b50565b600060066000838152602001908152602001600020549050919050565b6108326113d4565b73ffffffffffffffffffffffffffffffffffffffff16610850610b63565b73ffffffffffffffffffffffffffffffffffffffff16146108a6576040517f08c379a000000000000000000000000000000000000000000000000000000000815260040161089d90611d7f565b60405180910390fd5b6108b060006113dc565b565b6108ba6113d4565b73ffffffffffffffffffffffffffffffffffffffff166108d8610b63565b73ffffffffffffffffffffffffffffffffffffffff161461092e576040517f08c379a000000000000000000000000000000000000000000000000000000000815260040161092590611d7f565b60405180910390fd5b600960008573ffffffffffffffffffffffffffffffffffffffff1673ffffffffffffffffffffffffffffffffffffffff16815260200190815260200160002060009054906101000a900460ff166109ba576040517f08c379a00000000000000000000000000000000000000000000000000000000081526004016109b190611efe565b60405180910390fd5b81600560006001548152602001908152602001600020819055508060066000600154815260200190815260200160002081905550826004600060015481526020019081526020016000209080519060200190610a179291906114a0565b508360026000600154815260200190815260200160002060006101000a81548173ffffffffffffffffffffffffffffffffffffffff021916908373ffffffffffffffffffffffffffffffffffffffff16021790555080600760008673ffffffffffffffffffffffffffffffffffffffff1673ffffffffffffffffffffffffffffffffffffffff1681526020019081526020016000206000828254610abb9190611f1e565b92505081905550600760008573ffffffffffffffffffffffffffffffffffffffff1673ffffffffffffffffffffffffffffffffffffffff168152602001908152602001600020546003600060015481526020019081526020016000208190555060088190806001815401808255809150506001900390600052602060002001600090919091909150556001806000828254610b569190611f1e565b9250508190555050505050565b60008060009054906101000a900473ffffffffffffffffffffffffffffffffffffffff16905090565b600960003373ffffffffffffffffffffffffffffffffffffffff1673ffffffffffffffffffffffffffffffffffffffff16815260200190815260200160002060009054906101000a900460ff16610c18576040517f08c379a0000000000000000000000000000000000000000000000000000000008152600401610c0f90611c81565b60405180910390fd5b3373ffffffffffffffffffffffffffffffffffffffff166002600083815260200190815260200160002060009054906101000a900473ffffffffffffffffffffffffffffffffffffffff1673ffffffffffffffffffffffffffffffffffffffff1614610cb9576040517f08c379a0000000000000000000000000000000000000000000000000000000008152600401610cb090611d13565b60405180910390fd5b6000600660008381526020019081526020016000205411610d0f576040517f08c379a0000000000000000000000000000000000000000000000000000000008152600401610d0690611fc0565b60405180910390fd5b6001600660008381526020019081526020016000206000828254610d339190611fe0565b9250508190555050565b610d456113d4565b73ffffffffffffffffffffffffffffffffffffffff16610d63610b63565b73ffffffffffffffffffffffffffffffffffffffff1614610db9576040517f08c379a0000000000000000000000000000000000000000000000000000000008152600401610db090611d7f565b60405180910390fd5b6001548110610dfd576040517f08c379a0000000000000000000000000000000000000000000000000000000008152600401610df490612060565b60405180910390fd5b600060088281548110610e1357610e12611e0b565b5b90600052602060002001819055506000600660008381526020019081526020016000208190555050565b610e456113d4565b73ffffffffffffffffffffffffffffffffffffffff16610e63610b63565b73ffffffffffffffffffffffffffffffffffffffff1614610eb9576040517f08c379a0000000000000000000000000000000000000000000000000000000008152600401610eb090611d7f565b60405180910390fd5b60001515600960008373ffffffffffffffffffffffffffffffffffffffff1673ffffffffffffffffffffffffffffffffffffffff16815260200190815260200160002060009054906101000a900460ff16151514610f4c576040517f08c379a0000000000000000000000000000000000000000000000000000000008152600401610f43906120cc565b60405180910390fd5b6001600960008373ffffffffffffffffffffffffffffffffffffffff1673ffffffffffffffffffffffffffffffffffffffff16815260200190815260200160002060006101000a81548160ff0219169083151502179055506000600760008373ffffffffffffffffffffffffffffffffffffffff1673ffffffffffffffffffffffffffffffffffffffff16815260200190815260200160002081905550600a819080600181540180825580915050600190039060005260206000200160009091909190916101000a81548173ffffffffffffffffffffffffffffffffffffffff021916908373ffffffffffffffffffffffffffffffffffffffff16021790555050565b6000600960003373ffffffffffffffffffffffffffffffffffffffff1673ffffffffffffffffffffffffffffffffffffffff16815260200190815260200160002060009054906101000a900460ff166110dd576040517f08c379a00000000000000000000000000000000000000000000000000000000081526004016110d490611c81565b60405180910390fd5b3373ffffffffffffffffffffffffffffffffffffffff166002600084815260200190815260200160002060009054906101000a900473ffffffffffffffffffffffffffffffffffffffff1673ffffffffffffffffffffffffffffffffffffffff161461117e576040517f08c379a000000000000000000000000000000000000000000000000000000000815260040161117590611d13565b60405180910390fd5b60036000838152602001908152602001600020549050919050565b600060056000838152602001908152602001600020549050919050565b606060015482106111fc576040517f08c379a00000000000000000000000000000000000000000000000000000000081526004016111f390612060565b60405180910390fd5b60046000838152602001908152602001600020805461121a9061211b565b80601f01602080910402602001604051908101604052809291908181526020018280546112469061211b565b80156112935780601f1061126857610100808354040283529160200191611293565b820191906000526020600020905b81548152906001019060200180831161127657829003601f168201915b50505050509050919050565b6112a76113d4565b73ffffffffffffffffffffffffffffffffffffffff166112c5610b63565b73ffffffffffffffffffffffffffffffffffffffff161461131b576040517f08c379a000000000000000000000000000000000000000000000000000000000815260040161131290611d7f565b60405180910390fd5b600073ffffffffffffffffffffffffffffffffffffffff168173ffffffffffffffffffffffffffffffffffffffff16141561138b576040517f08c379a0000000000000000000000000000000000000000000000000000000008152600401611382906121bf565b60405180910390fd5b611394816113dc565b50565b60006002600083815260200190815260200160002060009054906101000a900473ffffffffffffffffffffffffffffffffffffffff169050919050565b600033905090565b60008060009054906101000a900473ffffffffffffffffffffffffffffffffffffffff169050816000806101000a81548173ffffffffffffffffffffffffffffffffffffffff021916908373ffffffffffffffffffffffffffffffffffffffff1602179055508173ffffffffffffffffffffffffffffffffffffffff168173ffffffffffffffffffffffffffffffffffffffff167f8be0079c531659141344cd1fd0a4f28419497f9722a3daafe3b4186f6b6457e060405160405180910390a35050565b8280546114ac9061211b565b90600052602060002090601f0160209004810192826114ce5760008555611515565b82601f106114e757805160ff1916838001178555611515565b82800160010185558215611515579182015b828111156115145782518255916020019190600101906114f9565b5b5090506115229190611526565b5090565b5b8082111561153f576000816000905550600101611527565b5090565b6000819050919050565b61155681611543565b82525050565b6000602082019050611571600083018461154d565b92915050565b600081519050919050565b600082825260208201905092915050565b6000819050602082019050919050565b6115ac81611543565b82525050565b60006115be83836115a3565b60208301905092915050565b6000602082019050919050565b60006115e282611577565b6115ec8185611582565b93506115f783611593565b8060005b8381101561162857815161160f88826115b2565b975061161a836115ca565b9250506001810190506115fb565b5085935050505092915050565b6000602082019050818103600083015261164f81846115d7565b905092915050565b6000604051905090565b600080fd5b600080fd5b61167481611543565b811461167f57600080fd5b50565b6000813590506116918161166b565b92915050565b6000602082840312156116ad576116ac611661565b5b60006116bb84828501611682565b91505092915050565b600081519050919050565b600082825260208201905092915050565b60005b838110156116fe5780820151818401526020810190506116e3565b8381111561170d576000848401525b50505050565b6000601f19601f8301169050919050565b600061172f826116c4565b61173981856116cf565b93506117498185602086016116e0565b61175281611713565b840191505092915050565b6000608082019050611772600083018761154d565b61177f602083018661154d565b61178c604083018561154d565b818103606083015261179e8184611724565b905095945050505050565b600081519050919050565b600082825260208201905092915050565b6000819050602082019050919050565b600073ffffffffffffffffffffffffffffffffffffffff82169050919050565b6000819050919050565b600061181a611815611810846117d5565b6117f5565b6117d5565b9050919050565b600061182c826117ff565b9050919050565b600061183e82611821565b9050919050565b61184e81611833565b82525050565b60006118608383611845565b60208301905092915050565b6000602082019050919050565b6000611884826117a9565b61188e81856117b4565b9350611899836117c5565b8060005b838110156118ca5781516118b18882611854565b97506118bc8361186c565b92505060018101905061189d565b5085935050505092915050565b600060208201905081810360008301526118f18184611879565b905092915050565b6000611904826117d5565b9050919050565b6000611916826118f9565b9050919050565b6119268161190b565b811461193157600080fd5b50565b6000813590506119438161191d565b92915050565b60006020828403121561195f5761195e611661565b5b600061196d84828501611934565b91505092915050565b600080fd5b600080fd5b7f4e487b7100000000000000000000000000000000000000000000000000000000600052604160045260246000fd5b6119b882611713565b810181811067ffffffffffffffff821117156119d7576119d6611980565b5b80604052505050565b60006119ea611657565b90506119f682826119af565b919050565b600067ffffffffffffffff821115611a1657611a15611980565b5b611a1f82611713565b9050602081019050919050565b82818337600083830152505050565b6000611a4e611a49846119fb565b6119e0565b905082815260208101848484011115611a6a57611a6961197b565b5b611a75848285611a2c565b509392505050565b600082601f830112611a9257611a91611976565b5b8135611aa2848260208601611a3b565b91505092915050565b60008060008060808587031215611ac557611ac4611661565b5b6000611ad387828801611934565b945050602085013567ffffffffffffffff811115611af457611af3611666565b5b611b0087828801611a7d565b9350506040611b1187828801611682565b9250506060611b2287828801611682565b91505092959194509250565b6000611b39826117d5565b9050919050565b611b4981611b2e565b82525050565b6000602082019050611b646000830184611b40565b92915050565b60006020820190508181036000830152611b848184611724565b905092915050565b611b9581611b2e565b8114611ba057600080fd5b50565b600081359050611bb281611b8c565b92915050565b600060208284031215611bce57611bcd611661565b5b6000611bdc84828501611ba3565b91505092915050565b611bee81611833565b82525050565b6000602082019050611c096000830184611be5565b92915050565b7f73686f756c64206f6e6c792062652063616c6c656420627920636f6c6c65637460008201527f696f6e0000000000000000000000000000000000000000000000000000000000602082015250565b6000611c6b6023836116cf565b9150611c7682611c0f565b604082019050919050565b60006020820190508181036000830152611c9a81611c5e565b9050919050565b7f73686f756c642062652063616c6c656420627920636f727265637420636f6c6c60008201527f656374696f6e0000000000000000000000000000000000000000000000000000602082015250565b6000611cfd6026836116cf565b9150611d0882611ca1565b604082019050919050565b60006020820190508181036000830152611d2c81611cf0565b9050919050565b7f4f776e61626c653a2063616c6c6572206973206e6f7420746865206f776e6572600082015250565b6000611d696020836116cf565b9150611d7482611d33565b602082019050919050565b60006020820190508181036000830152611d9881611d5c565b9050919050565b7f636f6c6c656374696f6e206e6565647320746f20657869737400000000000000600082015250565b6000611dd56019836116cf565b9150611de082611d9f565b602082019050919050565b60006020820190508181036000830152611e0481611dc8565b9050919050565b7f4e487b7100000000000000000000000000000000000000000000000000000000600052603260045260246000fd5b7f4e487b7100000000000000000000000000000000000000000000000000000000600052601160045260246000fd5b6000611e7482611543565b91507fffffffffffffffffffffffffffffffffffffffffffffffffffffffffffffffff821415611ea757611ea6611e3a565b5b600182019050919050565b7f73686f756c6420626520666f7220612076616c696420636f6c6c656374696f6e600082015250565b6000611ee86020836116cf565b9150611ef382611eb2565b602082019050919050565b60006020820190508181036000830152611f1781611edb565b9050919050565b6000611f2982611543565b9150611f3483611543565b9250827fffffffffffffffffffffffffffffffffffffffffffffffffffffffffffffffff03821115611f6957611f68611e3a565b5b828201905092915050565b7f7468657265206973206e6f7468696e67206c6566740000000000000000000000600082015250565b6000611faa6015836116cf565b9150611fb582611f74565b602082019050919050565b60006020820190508181036000830152611fd981611f9d565b9050919050565b6000611feb82611543565b9150611ff683611543565b92508282101561200957612008611e3a565b5b828203905092915050565b7f696e76616c696420746f6b656e49640000000000000000000000000000000000600082015250565b600061204a600f836116cf565b915061205582612014565b602082019050919050565b600060208201905081810360008301526120798161203d565b9050919050565b7f636f6c6c656374696f6e2077617320616c726561647920616464656400000000600082015250565b60006120b6601c836116cf565b91506120c182612080565b602082019050919050565b600060208201905081810360008301526120e5816120a9565b9050919050565b7f4e487b7100000000000000000000000000000000000000000000000000000000600052602260045260246000fd5b6000600282049050600182168061213357607f821691505b60208210811415612147576121466120ec565b5b50919050565b7f4f776e61626c653a206e6577206f776e657220697320746865207a65726f206160008201527f6464726573730000000000000000000000000000000000000000000000000000602082015250565b60006121a96026836116cf565b91506121b48261214d565b604082019050919050565b600060208201905081810360008301526121d88161219c565b905091905056fea26469706673582212201dd059c406f8270a68adda7a595829f225edb5027e90c14dc3bc88257c5a73ab64736f6c634300080a0033",
  "immutableReferences": {},
  "source": "pragma solidity ^0.8.10;\n\nimport \"@openzeppelin/contracts/access/Ownable.sol\";\nimport \"./MetagencyCollection.sol\";\n\n/*\n * The ForSale Contract is basically a register of available tokens that is not yet\n * indexed by Exchanges.\n * Tokens are bought from the 'collections' instead of this one\n * and minted directly buy the initial buyer.\n * This contract is essentially keeping track of:\n * 1) how many copies of an artwork exist and are still available\n * 2) how much a copy costs\n * 3) to which collection it belongs\n */\n\ncontract Metagency is Ownable {\n  /* track number of forSaleTokenIds to mint with incremental tokenIds */\n  uint256 totalNumberOfForSaleTokenId;\n\n  /* map forSaleTokenId to the collection it belongs to */\n  mapping(uint256 => MetagencyCollection) internal forSaleTokenIdToCollection;\n  /* map forSaleTokenId to the tokenId to be used within that collection */\n  mapping(uint256 => uint256)        internal forSaleTokenIdToCollectionTokenId;\n\n  mapping(uint256 => string) private _tokenURIs;\n  mapping(uint256 => uint256) internal tokenPrice;\n  mapping(uint256 => uint256) internal available;\n\n  /* keep track of how many copies are within a specific collection.\n   * we use this to keep track of the correct tokenId to be used for\n   * that specific collection. */\n  mapping(MetagencyCollection => uint256) internal totalNumberOfAllCopies;\n\n  /* keep track how many copies each artwork has */\n  uint256[] internal totalNumberOfAtworks;\n\n  /* mapping to check if a collection was added to be used by this contract */\n  mapping(MetagencyCollection => bool) internal ERC721Collections;\n  /* array of collections to be returned to the frontend for visualization */\n  MetagencyCollection[] internal collections;\n\n  constructor() {\n    totalNumberOfForSaleTokenId = 0;\n  }\n\n  function getInfo(uint256 forSaleTokenId) public view returns (uint256, uint256, uint256, string memory) {\n    require(\n      ERC721Collections[MetagencyCollection(payable(msg.sender))],\n      \"should only be called by collection\");\n    require(\n      forSaleTokenIdToCollection[forSaleTokenId] == MetagencyCollection(payable(msg.sender)),\n      \"should be called by correct collection\");\n    return (forSaleTokenIdToCollectionTokenId[forSaleTokenId], available[forSaleTokenId],\n      tokenPrice[forSaleTokenId], tokenURI(forSaleTokenId));\n  }\n\n  /* onlyOwner */\n  function addCollection(MetagencyCollection collection) onlyOwner public {\n    require(ERC721Collections[collection] == false, \"collection was already added\");\n    ERC721Collections[collection] = true;\n    totalNumberOfAllCopies[collection] = 0;\n    collections.push(collection);\n  }\n\n  function removeCollection(MetagencyCollection collection) onlyOwner public {\n    require(ERC721Collections[collection], \"collection needs to exist\");\n    delete ERC721Collections[collection];\n    for (uint i=0; i<collections.length; i++) {\n      if (collections[i] == collection) {\n        delete collections[i];\n        return;\n      }\n    }\n  }\n\n  /* views */\n  function totalSupply() public view returns (uint256) {\n    return totalNumberOfForSaleTokenId;\n  }\n\n  function tokenURI(uint256 tokenId)\n    public view returns (string memory) {\n    require(tokenId < totalNumberOfForSaleTokenId, \"invalid tokenId\");\n    return _tokenURIs[tokenId];\n  }\n\n  function getTokenPrice(uint256 tokenId) public view returns (uint) {\n    return tokenPrice[tokenId];\n  }\n\n  function getAvailableNumberOfArtworks(uint256 tokenId) public view returns (uint256) {\n    return available[tokenId];\n  }\n\n  function getTotalNumberOfArtworks() public view returns (uint256[] memory) {\n    return totalNumberOfAtworks;\n  }\n\n  /* getCollectionTokenId is called by the collection to traverse\n   * the forSaleTokenId to the tokenId for the specific collection to be used */\n  function getCollectionTokenId(uint256 tokenId) public view returns (uint256) {\n    require(\n      ERC721Collections[MetagencyCollection(payable(msg.sender))],\n      \"should only be called by collection\");\n    require(\n      forSaleTokenIdToCollection[tokenId] == MetagencyCollection(payable(msg.sender)),\n      \"should be called by correct collection\");\n    return forSaleTokenIdToCollectionTokenId[tokenId];\n  }\n\n  /* getCollectionOfTokenId returns the collection for a given tokenId */\n  function getCollectionOfTokenId(uint256 tokenId) public view returns (MetagencyCollection) {\n    return forSaleTokenIdToCollection[tokenId];\n  }\n\n  function getCollections() public view returns (MetagencyCollection[] memory) {\n    return collections;\n  }\n\n  /* public */\n  function addItem(\n    MetagencyCollection collection, string memory newTokenURI, uint price, uint256 copies\n  ) onlyOwner public {\n    require(ERC721Collections[collection], \"should be for a valid collection\");\n\n    tokenPrice[totalNumberOfForSaleTokenId] = price;\n    available[totalNumberOfForSaleTokenId] = copies;\n    _tokenURIs[totalNumberOfForSaleTokenId] = newTokenURI;\n\n    forSaleTokenIdToCollection[totalNumberOfForSaleTokenId] = collection;\n\n    /* next tokenId within the collection is the total number of copies it has */\n    totalNumberOfAllCopies[collection] += copies;\n    forSaleTokenIdToCollectionTokenId[totalNumberOfForSaleTokenId] =\n      totalNumberOfAllCopies[collection];\n\n    totalNumberOfAtworks.push(copies);\n    totalNumberOfForSaleTokenId += 1;\n  }\n\n  function disableItem(uint256 forSaleTokenId) onlyOwner public {\n    require(forSaleTokenId < totalNumberOfForSaleTokenId, \"invalid tokenId\");\n    totalNumberOfAtworks[forSaleTokenId] = 0;\n    available[forSaleTokenId] = 0;\n  }\n\n  function sellItem(uint256 tokenId) public {\n    /* sellItem is called by the collection\n     * to update the amount of tokens that are still available */\n    require(\n      ERC721Collections[MetagencyCollection(payable(msg.sender))],\n      \"should only be called by collection\");\n    require(\n      forSaleTokenIdToCollection[tokenId] == MetagencyCollection(payable(msg.sender)),\n      \"should be called by correct collection\");\n    require(available[tokenId] > 0, \"there is nothing left\");\n    available[tokenId] -= 1;\n  }\n}\n",
  "sourcePath": "/home/jkl/Developer/nft_marketplace/truffle/contracts/Metagency.sol",
  "compiler": {
    "name": "solc",
    "version": "0.8.10+commit.fc410830.Emscripten.clang"
  },
  "schemaVersion": "3.4.4",
  "updatedAt": "2022-01-13T19:49:00.249Z",
  "devdoc": {
    "kind": "dev",
    "methods": {
      "owner()": {
        "details": "Returns the address of the current owner."
      },
      "renounceOwnership()": {
        "details": "Leaves the contract without owner. It will not be possible to call `onlyOwner` functions anymore. Can only be called by the current owner. NOTE: Renouncing ownership will leave the contract without an owner, thereby removing any functionality that is only available to the owner."
      },
      "transferOwnership(address)": {
        "details": "Transfers ownership of the contract to a new account (`newOwner`). Can only be called by the current owner."
      }
    },
    "version": 1
  },
  "userdoc": {
    "kind": "user",
    "methods": {},
    "version": 1
  }
}