{
  "contractName": "MetagencyCollection",
  "abi": [
    {
      "inputs": [
        {
          "internalType": "address payable",
          "name": "_creator",
          "type": "address"
        },
        {
          "internalType": "contract Metagency",
          "name": "_forSaleCollection",
          "type": "address"
        },
        {
          "internalType": "string",
          "name": "_name",
          "type": "string"
        },
        {
          "internalType": "uint16",
          "name": "_firstSaleCreatorPercentage",
          "type": "uint16"
        },
        {
          "internalType": "uint16",
          "name": "_creatorPercentageFee",
          "type": "uint16"
        },
        {
          "internalType": "uint16",
          "name": "_agencyPercentageFee",
          "type": "uint16"
        }
      ],
      "stateMutability": "nonpayable",
      "type": "constructor"
    },
    {
      "anonymous": false,
      "inputs": [
        {
          "indexed": true,
          "internalType": "address",
          "name": "owner",
          "type": "address"
        },
        {
          "indexed": true,
          "internalType": "address",
          "name": "approved",
          "type": "address"
        },
        {
          "indexed": true,
          "internalType": "uint256",
          "name": "tokenId",
          "type": "uint256"
        }
      ],
      "name": "Approval",
      "type": "event"
    },
    {
      "anonymous": false,
      "inputs": [
        {
          "indexed": true,
          "internalType": "address",
          "name": "owner",
          "type": "address"
        },
        {
          "indexed": true,
          "internalType": "address",
          "name": "operator",
          "type": "address"
        },
        {
          "indexed": false,
          "internalType": "bool",
          "name": "approved",
          "type": "bool"
        }
      ],
      "name": "ApprovalForAll",
      "type": "event"
    },
    {
      "anonymous": false,
      "inputs": [
        {
          "indexed": true,
          "internalType": "address",
          "name": "previousOwner",
          "type": "address"
        },
        {
          "indexed": true,
          "internalType": "address",
          "name": "newOwner",
          "type": "address"
        }
      ],
      "name": "OwnershipTransferred",
      "type": "event"
    },
    {
      "anonymous": false,
      "inputs": [
        {
          "indexed": true,
          "internalType": "address",
          "name": "from",
          "type": "address"
        },
        {
          "indexed": true,
          "internalType": "address",
          "name": "to",
          "type": "address"
        },
        {
          "indexed": true,
          "internalType": "uint256",
          "name": "tokenId",
          "type": "uint256"
        }
      ],
      "name": "Transfer",
      "type": "event"
    },
    {
      "inputs": [
        {
          "internalType": "address",
          "name": "to",
          "type": "address"
        },
        {
          "internalType": "uint256",
          "name": "tokenId",
          "type": "uint256"
        }
      ],
      "name": "approve",
      "outputs": [],
      "stateMutability": "nonpayable",
      "type": "function"
    },
    {
      "inputs": [
        {
          "internalType": "address",
          "name": "owner",
          "type": "address"
        }
      ],
      "name": "balanceOf",
      "outputs": [
        {
          "internalType": "uint256",
          "name": "",
          "type": "uint256"
        }
      ],
      "stateMutability": "view",
      "type": "function",
      "constant": true
    },
    {
      "inputs": [
        {
          "internalType": "uint256",
          "name": "tokenId",
          "type": "uint256"
        }
      ],
      "name": "getApproved",
      "outputs": [
        {
          "internalType": "address",
          "name": "",
          "type": "address"
        }
      ],
      "stateMutability": "view",
      "type": "function",
      "constant": true
    },
    {
      "inputs": [
        {
          "internalType": "address",
          "name": "owner",
          "type": "address"
        },
        {
          "internalType": "address",
          "name": "operator",
          "type": "address"
        }
      ],
      "name": "isApprovedForAll",
      "outputs": [
        {
          "internalType": "bool",
          "name": "",
          "type": "bool"
        }
      ],
      "stateMutability": "view",
      "type": "function",
      "constant": true
    },
    {
      "inputs": [],
      "name": "name",
      "outputs": [
        {
          "internalType": "string",
          "name": "",
          "type": "string"
        }
      ],
      "stateMutability": "view",
      "type": "function",
      "constant": true
    },
    {
      "inputs": [],
      "name": "owner",
      "outputs": [
        {
          "internalType": "address",
          "name": "",
          "type": "address"
        }
      ],
      "stateMutability": "view",
      "type": "function",
      "constant": true
    },
    {
      "inputs": [
        {
          "internalType": "uint256",
          "name": "tokenId",
          "type": "uint256"
        }
      ],
      "name": "ownerOf",
      "outputs": [
        {
          "internalType": "address",
          "name": "",
          "type": "address"
        }
      ],
      "stateMutability": "view",
      "type": "function",
      "constant": true
    },
    {
      "inputs": [],
      "name": "renounceOwnership",
      "outputs": [],
      "stateMutability": "nonpayable",
      "type": "function"
    },
    {
      "inputs": [
        {
          "internalType": "address",
          "name": "from",
          "type": "address"
        },
        {
          "internalType": "address",
          "name": "to",
          "type": "address"
        },
        {
          "internalType": "uint256",
          "name": "tokenId",
          "type": "uint256"
        }
      ],
      "name": "safeTransferFrom",
      "outputs": [],
      "stateMutability": "nonpayable",
      "type": "function"
    },
    {
      "inputs": [
        {
          "internalType": "address",
          "name": "from",
          "type": "address"
        },
        {
          "internalType": "address",
          "name": "to",
          "type": "address"
        },
        {
          "internalType": "uint256",
          "name": "tokenId",
          "type": "uint256"
        },
        {
          "internalType": "bytes",
          "name": "_data",
          "type": "bytes"
        }
      ],
      "name": "safeTransferFrom",
      "outputs": [],
      "stateMutability": "nonpayable",
      "type": "function"
    },
    {
      "inputs": [
        {
          "internalType": "address",
          "name": "operator",
          "type": "address"
        },
        {
          "internalType": "bool",
          "name": "approved",
          "type": "bool"
        }
      ],
      "name": "setApprovalForAll",
      "outputs": [],
      "stateMutability": "nonpayable",
      "type": "function"
    },
    {
      "inputs": [],
      "name": "symbol",
      "outputs": [
        {
          "internalType": "string",
          "name": "",
          "type": "string"
        }
      ],
      "stateMutability": "view",
      "type": "function",
      "constant": true
    },
    {
      "inputs": [
        {
          "internalType": "uint256",
          "name": "index",
          "type": "uint256"
        }
      ],
      "name": "tokenByIndex",
      "outputs": [
        {
          "internalType": "uint256",
          "name": "",
          "type": "uint256"
        }
      ],
      "stateMutability": "view",
      "type": "function",
      "constant": true
    },
    {
      "inputs": [
        {
          "internalType": "address",
          "name": "owner",
          "type": "address"
        },
        {
          "internalType": "uint256",
          "name": "index",
          "type": "uint256"
        }
      ],
      "name": "tokenOfOwnerByIndex",
      "outputs": [
        {
          "internalType": "uint256",
          "name": "",
          "type": "uint256"
        }
      ],
      "stateMutability": "view",
      "type": "function",
      "constant": true
    },
    {
      "inputs": [],
      "name": "totalSupply",
      "outputs": [
        {
          "internalType": "uint256",
          "name": "",
          "type": "uint256"
        }
      ],
      "stateMutability": "view",
      "type": "function",
      "constant": true
    },
    {
      "inputs": [
        {
          "internalType": "address",
          "name": "from",
          "type": "address"
        },
        {
          "internalType": "address",
          "name": "to",
          "type": "address"
        },
        {
          "internalType": "uint256",
          "name": "tokenId",
          "type": "uint256"
        }
      ],
      "name": "transferFrom",
      "outputs": [],
      "stateMutability": "nonpayable",
      "type": "function"
    },
    {
      "inputs": [
        {
          "internalType": "address",
          "name": "newOwner",
          "type": "address"
        }
      ],
      "name": "transferOwnership",
      "outputs": [],
      "stateMutability": "nonpayable",
      "type": "function"
    },
    {
      "stateMutability": "payable",
      "type": "receive",
      "payable": true
    },
    {
      "inputs": [
        {
          "internalType": "uint16",
          "name": "_firstSaleCreatorPercentage",
          "type": "uint16"
        },
        {
          "internalType": "uint16",
          "name": "_creatorPercentageFee",
          "type": "uint16"
        },
        {
          "internalType": "uint16",
          "name": "_agencyPercentageFee",
          "type": "uint16"
        }
      ],
      "name": "changeFees",
      "outputs": [],
      "stateMutability": "nonpayable",
      "type": "function"
    },
    {
      "inputs": [
        {
          "internalType": "address",
          "name": "_to",
          "type": "address"
        },
        {
          "internalType": "uint256",
          "name": "_tokenId",
          "type": "uint256"
        }
      ],
      "name": "mint",
      "outputs": [],
      "stateMutability": "nonpayable",
      "type": "function"
    },
    {
      "inputs": [
        {
          "internalType": "uint256",
          "name": "forSaleTokenId",
          "type": "uint256"
        }
      ],
      "name": "buyToken",
      "outputs": [],
      "stateMutability": "payable",
      "type": "function",
      "payable": true
    },
    {
      "inputs": [
        {
          "internalType": "bytes4",
          "name": "interfaceId",
          "type": "bytes4"
        }
      ],
      "name": "supportsInterface",
      "outputs": [
        {
          "internalType": "bool",
          "name": "",
          "type": "bool"
        }
      ],
      "stateMutability": "view",
      "type": "function",
      "constant": true
    },
    {
      "inputs": [
        {
          "internalType": "uint256",
          "name": "tokenId",
          "type": "uint256"
        }
      ],
      "name": "tokenURI",
      "outputs": [
        {
          "internalType": "string",
          "name": "",
          "type": "string"
        }
      ],
      "stateMutability": "view",
      "type": "function",
      "constant": true
    }
  ],
  "bytecode": "0x60806040523480156200001157600080fd5b5060405162004647380380620046478339818101604052810190620000379190620005bd565b836040518060400160405280600381526020017f4d544100000000000000000000000000000000000000000000000000000000008152506200008e62000082620001a760201b60201c565b620001af60201b60201c565b8160019080519060200190620000a692919062000273565b508060029080519060200190620000bf92919062000273565b50505084600c60006101000a81548173ffffffffffffffffffffffffffffffffffffffff021916908373ffffffffffffffffffffffffffffffffffffffff16021790555085600d60006101000a81548173ffffffffffffffffffffffffffffffffffffffff021916908373ffffffffffffffffffffffffffffffffffffffff16021790555081600d60146101000a81548161ffff021916908361ffff16021790555080600d60166101000a81548161ffff021916908361ffff16021790555082600d60186101000a81548161ffff021916908361ffff160217905550505050505050620006dd565b600033905090565b60008060009054906101000a900473ffffffffffffffffffffffffffffffffffffffff169050816000806101000a81548173ffffffffffffffffffffffffffffffffffffffff021916908373ffffffffffffffffffffffffffffffffffffffff1602179055508173ffffffffffffffffffffffffffffffffffffffff168173ffffffffffffffffffffffffffffffffffffffff167f8be0079c531659141344cd1fd0a4f28419497f9722a3daafe3b4186f6b6457e060405160405180910390a35050565b8280546200028190620006a7565b90600052602060002090601f016020900481019282620002a55760008555620002f1565b82601f10620002c057805160ff1916838001178555620002f1565b82800160010185558215620002f1579182015b82811115620002f0578251825591602001919060010190620002d3565b5b50905062000300919062000304565b5090565b5b808211156200031f57600081600090555060010162000305565b5090565b6000604051905090565b600080fd5b600080fd5b600073ffffffffffffffffffffffffffffffffffffffff82169050919050565b6000620003648262000337565b9050919050565b620003768162000357565b81146200038257600080fd5b50565b60008151905062000396816200036b565b92915050565b6000620003a98262000337565b9050919050565b6000620003bd826200039c565b9050919050565b620003cf81620003b0565b8114620003db57600080fd5b50565b600081519050620003ef81620003c4565b92915050565b600080fd5b600080fd5b6000601f19601f8301169050919050565b7f4e487b7100000000000000000000000000000000000000000000000000000000600052604160045260246000fd5b6200044a82620003ff565b810181811067ffffffffffffffff821117156200046c576200046b62000410565b5b80604052505050565b60006200048162000323565b90506200048f82826200043f565b919050565b600067ffffffffffffffff821115620004b257620004b162000410565b5b620004bd82620003ff565b9050602081019050919050565b60005b83811015620004ea578082015181840152602081019050620004cd565b83811115620004fa576000848401525b50505050565b600062000517620005118462000494565b62000475565b905082815260208101848484011115620005365762000535620003fa565b5b62000543848285620004ca565b509392505050565b600082601f830112620005635762000562620003f5565b5b81516200057584826020860162000500565b91505092915050565b600061ffff82169050919050565b62000597816200057e565b8114620005a357600080fd5b50565b600081519050620005b7816200058c565b92915050565b60008060008060008060c08789031215620005dd57620005dc6200032d565b5b6000620005ed89828a0162000385565b96505060206200060089828a01620003de565b955050604087015167ffffffffffffffff81111562000624576200062362000332565b5b6200063289828a016200054b565b94505060606200064589828a01620005a6565b93505060806200065889828a01620005a6565b92505060a06200066b89828a01620005a6565b9150509295509295509295565b7f4e487b7100000000000000000000000000000000000000000000000000000000600052602260045260246000fd5b60006002820490506001821680620006c057607f821691505b60208210811415620006d757620006d662000678565b5b50919050565b613f5a80620006ed6000396000f3fe6080604052600436106101395760003560e01c80634f6ccce7116100ab57806395d89b411161006f57806395d89b4114610568578063a22cb46514610593578063b88d4fde146105bc578063c87b56dd146105e5578063e985e9c514610622578063f2fde38b1461065f57610274565b80634f6ccce71461046f5780636352211e146104ac57806370a08231146104e9578063715018a6146105265780638da5cb5b1461053d57610274565b8063181ec222116100fd578063181ec2221461037257806323b872dd1461039b5780632d296bf1146103c45780632f745c59146103e057806340c10f191461041d57806342842e0e1461044657610274565b806301ffc9a71461027957806306fdde03146102b6578063081812fc146102e1578063095ea7b31461031e57806318160ddd1461034757610274565b36610274576000600d60149054906101000a900461ffff16600d60169054906101000a900461ffff1661016c9190612875565b61ffff166127103461017e91906128b7565b6101889190612940565b905060006101a682600d60149054906101000a900461ffff16610688565b9050600081346101b69190612971565b9050600d60009054906101000a900473ffffffffffffffffffffffffffffffffffffffff1673ffffffffffffffffffffffffffffffffffffffff166108fc839081150290604051600060405180830381858888f19350505050158015610220573d6000803e3d6000fd5b506102296106af565b73ffffffffffffffffffffffffffffffffffffffff166108fc829081150290604051600060405180830381858888f1935050505015801561026e573d6000803e3d6000fd5b50505050005b600080fd5b34801561028557600080fd5b506102a0600480360381019061029b9190612a11565b6106d8565b6040516102ad9190612a59565b60405180910390f35b3480156102c257600080fd5b506102cb6106ea565b6040516102d89190612b0d565b60405180910390f35b3480156102ed57600080fd5b5061030860048036038101906103039190612b5b565b61077c565b6040516103159190612bc9565b60405180910390f35b34801561032a57600080fd5b5061034560048036038101906103409190612c10565b610801565b005b34801561035357600080fd5b5061035c610919565b6040516103699190612c5f565b60405180910390f35b34801561037e57600080fd5b5061039960048036038101906103949190612ca6565b610926565b005b3480156103a757600080fd5b506103c260048036038101906103bd9190612cf9565b6109fe565b005b6103de60048036038101906103d99190612b5b565b610a5e565b005b3480156103ec57600080fd5b5061040760048036038101906104029190612c10565b610d04565b6040516104149190612c5f565b60405180910390f35b34801561042957600080fd5b50610444600480360381019061043f9190612c10565b610da9565b005b34801561045257600080fd5b5061046d60048036038101906104689190612cf9565b610e33565b005b34801561047b57600080fd5b5061049660048036038101906104919190612b5b565b610e53565b6040516104a39190612c5f565b60405180910390f35b3480156104b857600080fd5b506104d360048036038101906104ce9190612b5b565b610ec4565b6040516104e09190612bc9565b60405180910390f35b3480156104f557600080fd5b50610510600480360381019061050b9190612d4c565b610f76565b60405161051d9190612c5f565b60405180910390f35b34801561053257600080fd5b5061053b61102e565b005b34801561054957600080fd5b506105526106af565b60405161055f9190612bc9565b60405180910390f35b34801561057457600080fd5b5061057d6110b6565b60405161058a9190612b0d565b60405180910390f35b34801561059f57600080fd5b506105ba60048036038101906105b59190612da5565b611148565b005b3480156105c857600080fd5b506105e360048036038101906105de9190612f1a565b61115e565b005b3480156105f157600080fd5b5061060c60048036038101906106079190612b5b565b6111c0565b6040516106199190612b0d565b60405180910390f35b34801561062e57600080fd5b5061064960048036038101906106449190612f9d565b6111d2565b6040516106569190612a59565b60405180910390f35b34801561066b57600080fd5b5061068660048036038101906106819190612d4c565b611266565b005b60006127108261ffff168461069d91906128b7565b6106a79190612940565b905092915050565b60008060009054906101000a900473ffffffffffffffffffffffffffffffffffffffff16905090565b60006106e38261135e565b9050919050565b6060600180546106f99061300c565b80601f01602080910402602001604051908101604052809291908181526020018280546107259061300c565b80156107725780601f1061074757610100808354040283529160200191610772565b820191906000526020600020905b81548152906001019060200180831161075557829003601f168201915b5050505050905090565b6000610787826113d8565b6107c6576040517f08c379a00000000000000000000000000000000000000000000000000000000081526004016107bd906130b0565b60405180910390fd5b6005600083815260200190815260200160002060009054906101000a900473ffffffffffffffffffffffffffffffffffffffff169050919050565b600061080c82610ec4565b90508073ffffffffffffffffffffffffffffffffffffffff168373ffffffffffffffffffffffffffffffffffffffff16141561087d576040517f08c379a000000000000000000000000000000000000000000000000000000000815260040161087490613142565b60405180910390fd5b8073ffffffffffffffffffffffffffffffffffffffff1661089c611444565b73ffffffffffffffffffffffffffffffffffffffff1614806108cb57506108ca816108c5611444565b6111d2565b5b61090a576040517f08c379a0000000000000000000000000000000000000000000000000000000008152600401610901906131d4565b60405180910390fd5b610914838361144c565b505050565b6000600980549050905090565b61092e611444565b73ffffffffffffffffffffffffffffffffffffffff1661094c6106af565b73ffffffffffffffffffffffffffffffffffffffff16146109a2576040517f08c379a000000000000000000000000000000000000000000000000000000000815260040161099990613240565b60405180910390fd5b82600d60186101000a81548161ffff021916908361ffff16021790555081600d60146101000a81548161ffff021916908361ffff16021790555080600d60166101000a81548161ffff021916908361ffff160217905550505050565b610a0f610a09611444565b82611505565b610a4e576040517f08c379a0000000000000000000000000000000000000000000000000000000008152600401610a45906132d2565b60405180910390fd5b610a598383836115e3565b505050565b60008060006060600c60009054906101000a900473ffffffffffffffffffffffffffffffffffffffff1673ffffffffffffffffffffffffffffffffffffffff16631a3cd59a866040518263ffffffff1660e01b8152600401610ac09190612c5f565b600060405180830381865afa158015610add573d6000803e3d6000fd5b505050506040513d6000823e3d601f19601f82011682018060405250810190610b0691906133a8565b80945081955082965083975050505050600060018486610b269190612971565b610b30919061342b565b9050823414610b74576040517f08c379a0000000000000000000000000000000000000000000000000000000008152600401610b6b906134cd565b60405180910390fd5b6000610b9034600d60189054906101000a900461ffff16610688565b905060008134610ba09190612971565b9050610baa6106af565b73ffffffffffffffffffffffffffffffffffffffff166108fc829081150290604051600060405180830381858888f19350505050158015610bef573d6000803e3d6000fd5b50600d60009054906101000a900473ffffffffffffffffffffffffffffffffffffffff1673ffffffffffffffffffffffffffffffffffffffff166108fc839081150290604051600060405180830381858888f19350505050158015610c58573d6000803e3d6000fd5b50600c60009054906101000a900473ffffffffffffffffffffffffffffffffffffffff1673ffffffffffffffffffffffffffffffffffffffff166391b6be9a896040518263ffffffff1660e01b8152600401610cb49190612c5f565b600060405180830381600087803b158015610cce57600080fd5b505af1158015610ce2573d6000803e3d6000fd5b50505050610cf0338461183f565b610cfa8385611a0d565b5050505050505050565b6000610d0f83610f76565b8210610d50576040517f08c379a0000000000000000000000000000000000000000000000000000000008152600401610d479061355f565b60405180910390fd5b600760008473ffffffffffffffffffffffffffffffffffffffff1673ffffffffffffffffffffffffffffffffffffffff168152602001908152602001600020600083815260200190815260200160002054905092915050565b610db1611444565b73ffffffffffffffffffffffffffffffffffffffff16610dcf6106af565b73ffffffffffffffffffffffffffffffffffffffff1614610e25576040517f08c379a0000000000000000000000000000000000000000000000000000000008152600401610e1c90613240565b60405180910390fd5b610e2f828261183f565b5050565b610e4e8383836040518060200160405280600081525061115e565b505050565b6000610e5d610919565b8210610e9e576040517f08c379a0000000000000000000000000000000000000000000000000000000008152600401610e95906135f1565b60405180910390fd5b60098281548110610eb257610eb1613611565b5b90600052602060002001549050919050565b6000806003600084815260200190815260200160002060009054906101000a900473ffffffffffffffffffffffffffffffffffffffff169050600073ffffffffffffffffffffffffffffffffffffffff168173ffffffffffffffffffffffffffffffffffffffff161415610f6d576040517f08c379a0000000000000000000000000000000000000000000000000000000008152600401610f64906136b2565b60405180910390fd5b80915050919050565b60008073ffffffffffffffffffffffffffffffffffffffff168273ffffffffffffffffffffffffffffffffffffffff161415610fe7576040517f08c379a0000000000000000000000000000000000000000000000000000000008152600401610fde90613744565b60405180910390fd5b600460008373ffffffffffffffffffffffffffffffffffffffff1673ffffffffffffffffffffffffffffffffffffffff168152602001908152602001600020549050919050565b611036611444565b73ffffffffffffffffffffffffffffffffffffffff166110546106af565b73ffffffffffffffffffffffffffffffffffffffff16146110aa576040517f08c379a00000000000000000000000000000000000000000000000000000000081526004016110a190613240565b60405180910390fd5b6110b46000611a81565b565b6060600280546110c59061300c565b80601f01602080910402602001604051908101604052809291908181526020018280546110f19061300c565b801561113e5780601f106111135761010080835404028352916020019161113e565b820191906000526020600020905b81548152906001019060200180831161112157829003601f168201915b5050505050905090565b61115a611153611444565b8383611b45565b5050565b61116f611169611444565b83611505565b6111ae576040517f08c379a00000000000000000000000000000000000000000000000000000000081526004016111a5906132d2565b60405180910390fd5b6111ba84848484611cb2565b50505050565b60606111cb82611d0e565b9050919050565b6000600660008473ffffffffffffffffffffffffffffffffffffffff1673ffffffffffffffffffffffffffffffffffffffff16815260200190815260200160002060008373ffffffffffffffffffffffffffffffffffffffff1673ffffffffffffffffffffffffffffffffffffffff16815260200190815260200160002060009054906101000a900460ff16905092915050565b61126e611444565b73ffffffffffffffffffffffffffffffffffffffff1661128c6106af565b73ffffffffffffffffffffffffffffffffffffffff16146112e2576040517f08c379a00000000000000000000000000000000000000000000000000000000081526004016112d990613240565b60405180910390fd5b600073ffffffffffffffffffffffffffffffffffffffff168173ffffffffffffffffffffffffffffffffffffffff161415611352576040517f08c379a0000000000000000000000000000000000000000000000000000000008152600401611349906137d6565b60405180910390fd5b61135b81611a81565b50565b60007f780e9d63000000000000000000000000000000000000000000000000000000007bffffffffffffffffffffffffffffffffffffffffffffffffffffffff1916827bffffffffffffffffffffffffffffffffffffffffffffffffffffffff191614806113d157506113d082611e60565b5b9050919050565b60008073ffffffffffffffffffffffffffffffffffffffff166003600084815260200190815260200160002060009054906101000a900473ffffffffffffffffffffffffffffffffffffffff1673ffffffffffffffffffffffffffffffffffffffff1614159050919050565b600033905090565b816005600083815260200190815260200160002060006101000a81548173ffffffffffffffffffffffffffffffffffffffff021916908373ffffffffffffffffffffffffffffffffffffffff160217905550808273ffffffffffffffffffffffffffffffffffffffff166114bf83610ec4565b73ffffffffffffffffffffffffffffffffffffffff167f8c5be1e5ebec7d5bd14f71427d1e84f3dd0314c0f7b2291e5b200ac8c7c3b92560405160405180910390a45050565b6000611510826113d8565b61154f576040517f08c379a000000000000000000000000000000000000000000000000000000000815260040161154690613868565b60405180910390fd5b600061155a83610ec4565b90508073ffffffffffffffffffffffffffffffffffffffff168473ffffffffffffffffffffffffffffffffffffffff1614806115c957508373ffffffffffffffffffffffffffffffffffffffff166115b18461077c565b73ffffffffffffffffffffffffffffffffffffffff16145b806115da57506115d981856111d2565b5b91505092915050565b8273ffffffffffffffffffffffffffffffffffffffff1661160382610ec4565b73ffffffffffffffffffffffffffffffffffffffff1614611659576040517f08c379a0000000000000000000000000000000000000000000000000000000008152600401611650906138fa565b60405180910390fd5b600073ffffffffffffffffffffffffffffffffffffffff168273ffffffffffffffffffffffffffffffffffffffff1614156116c9576040517f08c379a00000000000000000000000000000000000000000000000000000000081526004016116c09061398c565b60405180910390fd5b6116d4838383611f42565b6116df60008261144c565b6001600460008573ffffffffffffffffffffffffffffffffffffffff1673ffffffffffffffffffffffffffffffffffffffff168152602001908152602001600020600082825461172f9190612971565b925050819055506001600460008473ffffffffffffffffffffffffffffffffffffffff1673ffffffffffffffffffffffffffffffffffffffff1681526020019081526020016000206000828254611786919061342b565b92505081905550816003600083815260200190815260200160002060006101000a81548173ffffffffffffffffffffffffffffffffffffffff021916908373ffffffffffffffffffffffffffffffffffffffff160217905550808273ffffffffffffffffffffffffffffffffffffffff168473ffffffffffffffffffffffffffffffffffffffff167fddf252ad1be2c89b69c2b068fc378daa952ba7f163c4a11628f55a4df523b3ef60405160405180910390a4505050565b600073ffffffffffffffffffffffffffffffffffffffff168273ffffffffffffffffffffffffffffffffffffffff1614156118af576040517f08c379a00000000000000000000000000000000000000000000000000000000081526004016118a6906139f8565b60405180910390fd5b6118b8816113d8565b156118f8576040517f08c379a00000000000000000000000000000000000000000000000000000000081526004016118ef90613a64565b60405180910390fd5b61190460008383611f42565b6001600460008473ffffffffffffffffffffffffffffffffffffffff1673ffffffffffffffffffffffffffffffffffffffff1681526020019081526020016000206000828254611954919061342b565b92505081905550816003600083815260200190815260200160002060006101000a81548173ffffffffffffffffffffffffffffffffffffffff021916908373ffffffffffffffffffffffffffffffffffffffff160217905550808273ffffffffffffffffffffffffffffffffffffffff16600073ffffffffffffffffffffffffffffffffffffffff167fddf252ad1be2c89b69c2b068fc378daa952ba7f163c4a11628f55a4df523b3ef60405160405180910390a45050565b611a16826113d8565b611a55576040517f08c379a0000000000000000000000000000000000000000000000000000000008152600401611a4c90613af6565b60405180910390fd5b80600b60008481526020019081526020016000209080519060200190611a7c929190612795565b505050565b60008060009054906101000a900473ffffffffffffffffffffffffffffffffffffffff169050816000806101000a81548173ffffffffffffffffffffffffffffffffffffffff021916908373ffffffffffffffffffffffffffffffffffffffff1602179055508173ffffffffffffffffffffffffffffffffffffffff168173ffffffffffffffffffffffffffffffffffffffff167f8be0079c531659141344cd1fd0a4f28419497f9722a3daafe3b4186f6b6457e060405160405180910390a35050565b8173ffffffffffffffffffffffffffffffffffffffff168373ffffffffffffffffffffffffffffffffffffffff161415611bb4576040517f08c379a0000000000000000000000000000000000000000000000000000000008152600401611bab90613b62565b60405180910390fd5b80600660008573ffffffffffffffffffffffffffffffffffffffff1673ffffffffffffffffffffffffffffffffffffffff16815260200190815260200160002060008473ffffffffffffffffffffffffffffffffffffffff1673ffffffffffffffffffffffffffffffffffffffff16815260200190815260200160002060006101000a81548160ff0219169083151502179055508173ffffffffffffffffffffffffffffffffffffffff168373ffffffffffffffffffffffffffffffffffffffff167f17307eab39ab6107e8899845ad3d59bd9653f200f220920489ca2b5937696c3183604051611ca59190612a59565b60405180910390a3505050565b611cbd8484846115e3565b611cc984848484611f52565b611d08576040517f08c379a0000000000000000000000000000000000000000000000000000000008152600401611cff90613bf4565b60405180910390fd5b50505050565b6060611d19826113d8565b611d58576040517f08c379a0000000000000000000000000000000000000000000000000000000008152600401611d4f90613c86565b60405180910390fd5b6000600b60008481526020019081526020016000208054611d789061300c565b80601f0160208091040260200160405190810160405280929190818152602001828054611da49061300c565b8015611df15780601f10611dc657610100808354040283529160200191611df1565b820191906000526020600020905b815481529060010190602001808311611dd457829003601f168201915b505050505090506000611e026120da565b9050600081511415611e18578192505050611e5b565b600082511115611e4d578082604051602001611e35929190613ce2565b60405160208183030381529060405292505050611e5b565b611e56846120f1565b925050505b919050565b60007f80ac58cd000000000000000000000000000000000000000000000000000000007bffffffffffffffffffffffffffffffffffffffffffffffffffffffff1916827bffffffffffffffffffffffffffffffffffffffffffffffffffffffff19161480611f2b57507f5b5e139f000000000000000000000000000000000000000000000000000000007bffffffffffffffffffffffffffffffffffffffffffffffffffffffff1916827bffffffffffffffffffffffffffffffffffffffffffffffffffffffff1916145b80611f3b5750611f3a82612198565b5b9050919050565b611f4d838383612202565b505050565b6000611f738473ffffffffffffffffffffffffffffffffffffffff16612316565b156120cd578373ffffffffffffffffffffffffffffffffffffffff1663150b7a02611f9c611444565b8786866040518563ffffffff1660e01b8152600401611fbe9493929190613d5b565b6020604051808303816000875af1925050508015611ffa57506040513d601f19601f82011682018060405250810190611ff79190613dbc565b60015b61207d573d806000811461202a576040519150601f19603f3d011682016040523d82523d6000602084013e61202f565b606091505b50600081511415612075576040517f08c379a000000000000000000000000000000000000000000000000000000000815260040161206c90613bf4565b60405180910390fd5b805181602001fd5b63150b7a0260e01b7bffffffffffffffffffffffffffffffffffffffffffffffffffffffff1916817bffffffffffffffffffffffffffffffffffffffffffffffffffffffff1916149150506120d2565b600190505b949350505050565b606060405180602001604052806000815250905090565b60606120fc826113d8565b61213b576040517f08c379a000000000000000000000000000000000000000000000000000000000815260040161213290613e5b565b60405180910390fd5b60006121456120da565b905060008151116121655760405180602001604052806000815250612190565b8061216f84612329565b604051602001612180929190613ce2565b6040516020818303038152906040525b915050919050565b60007f01ffc9a7000000000000000000000000000000000000000000000000000000007bffffffffffffffffffffffffffffffffffffffffffffffffffffffff1916827bffffffffffffffffffffffffffffffffffffffffffffffffffffffff1916149050919050565b61220d83838361248a565b600073ffffffffffffffffffffffffffffffffffffffff168373ffffffffffffffffffffffffffffffffffffffff1614156122505761224b8161248f565b61228f565b8173ffffffffffffffffffffffffffffffffffffffff168373ffffffffffffffffffffffffffffffffffffffff161461228e5761228d83826124d8565b5b5b600073ffffffffffffffffffffffffffffffffffffffff168273ffffffffffffffffffffffffffffffffffffffff1614156122d2576122cd81612645565b612311565b8273ffffffffffffffffffffffffffffffffffffffff168273ffffffffffffffffffffffffffffffffffffffff16146123105761230f8282612716565b5b5b505050565b600080823b905060008111915050919050565b60606000821415612371576040518060400160405280600181526020017f30000000000000000000000000000000000000000000000000000000000000008152509050612485565b600082905060005b600082146123a357808061238c90613e7b565b915050600a8261239c9190612940565b9150612379565b60008167ffffffffffffffff8111156123bf576123be612def565b5b6040519080825280601f01601f1916602001820160405280156123f15781602001600182028036833780820191505090505b5090505b6000851461247e5760018261240a9190612971565b9150600a856124199190613ec4565b6030612425919061342b565b60f81b81838151811061243b5761243a613611565b5b60200101907effffffffffffffffffffffffffffffffffffffffffffffffffffffffffffff1916908160001a905350600a856124779190612940565b94506123f5565b8093505050505b919050565b505050565b600980549050600a600083815260200190815260200160002081905550600981908060018154018082558091505060019003906000526020600020016000909190919091505550565b600060016124e584610f76565b6124ef9190612971565b90506000600860008481526020019081526020016000205490508181146125d4576000600760008673ffffffffffffffffffffffffffffffffffffffff1673ffffffffffffffffffffffffffffffffffffffff168152602001908152602001600020600084815260200190815260200160002054905080600760008773ffffffffffffffffffffffffffffffffffffffff1673ffffffffffffffffffffffffffffffffffffffff168152602001908152602001600020600084815260200190815260200160002081905550816008600083815260200190815260200160002081905550505b6008600084815260200190815260200160002060009055600760008573ffffffffffffffffffffffffffffffffffffffff1673ffffffffffffffffffffffffffffffffffffffff16815260200190815260200160002060008381526020019081526020016000206000905550505050565b600060016009805490506126599190612971565b90506000600a600084815260200190815260200160002054905060006009838154811061268957612688613611565b5b9060005260206000200154905080600983815481106126ab576126aa613611565b5b906000526020600020018190555081600a600083815260200190815260200160002081905550600a60008581526020019081526020016000206000905560098054806126fa576126f9613ef5565b5b6001900381819060005260206000200160009055905550505050565b600061272183610f76565b905081600760008573ffffffffffffffffffffffffffffffffffffffff1673ffffffffffffffffffffffffffffffffffffffff168152602001908152602001600020600083815260200190815260200160002081905550806008600084815260200190815260200160002081905550505050565b8280546127a19061300c565b90600052602060002090601f0160209004810192826127c3576000855561280a565b82601f106127dc57805160ff191683800117855561280a565b8280016001018555821561280a579182015b828111156128095782518255916020019190600101906127ee565b5b509050612817919061281b565b5090565b5b8082111561283457600081600090555060010161281c565b5090565b600061ffff82169050919050565b7f4e487b7100000000000000000000000000000000000000000000000000000000600052601160045260246000fd5b600061288082612838565b915061288b83612838565b92508261ffff038211156128a2576128a1612846565b5b828201905092915050565b6000819050919050565b60006128c2826128ad565b91506128cd836128ad565b9250817fffffffffffffffffffffffffffffffffffffffffffffffffffffffffffffffff048311821515161561290657612905612846565b5b828202905092915050565b7f4e487b7100000000000000000000000000000000000000000000000000000000600052601260045260246000fd5b600061294b826128ad565b9150612956836128ad565b92508261296657612965612911565b5b828204905092915050565b600061297c826128ad565b9150612987836128ad565b92508282101561299a57612999612846565b5b828203905092915050565b6000604051905090565b600080fd5b600080fd5b60007fffffffff0000000000000000000000000000000000000000000000000000000082169050919050565b6129ee816129b9565b81146129f957600080fd5b50565b600081359050612a0b816129e5565b92915050565b600060208284031215612a2757612a266129af565b5b6000612a35848285016129fc565b91505092915050565b60008115159050919050565b612a5381612a3e565b82525050565b6000602082019050612a6e6000830184612a4a565b92915050565b600081519050919050565b600082825260208201905092915050565b60005b83811015612aae578082015181840152602081019050612a93565b83811115612abd576000848401525b50505050565b6000601f19601f8301169050919050565b6000612adf82612a74565b612ae98185612a7f565b9350612af9818560208601612a90565b612b0281612ac3565b840191505092915050565b60006020820190508181036000830152612b278184612ad4565b905092915050565b612b38816128ad565b8114612b4357600080fd5b50565b600081359050612b5581612b2f565b92915050565b600060208284031215612b7157612b706129af565b5b6000612b7f84828501612b46565b91505092915050565b600073ffffffffffffffffffffffffffffffffffffffff82169050919050565b6000612bb382612b88565b9050919050565b612bc381612ba8565b82525050565b6000602082019050612bde6000830184612bba565b92915050565b612bed81612ba8565b8114612bf857600080fd5b50565b600081359050612c0a81612be4565b92915050565b60008060408385031215612c2757612c266129af565b5b6000612c3585828601612bfb565b9250506020612c4685828601612b46565b9150509250929050565b612c59816128ad565b82525050565b6000602082019050612c746000830184612c50565b92915050565b612c8381612838565b8114612c8e57600080fd5b50565b600081359050612ca081612c7a565b92915050565b600080600060608486031215612cbf57612cbe6129af565b5b6000612ccd86828701612c91565b9350506020612cde86828701612c91565b9250506040612cef86828701612c91565b9150509250925092565b600080600060608486031215612d1257612d116129af565b5b6000612d2086828701612bfb565b9350506020612d3186828701612bfb565b9250506040612d4286828701612b46565b9150509250925092565b600060208284031215612d6257612d616129af565b5b6000612d7084828501612bfb565b91505092915050565b612d8281612a3e565b8114612d8d57600080fd5b50565b600081359050612d9f81612d79565b92915050565b60008060408385031215612dbc57612dbb6129af565b5b6000612dca85828601612bfb565b9250506020612ddb85828601612d90565b9150509250929050565b600080fd5b600080fd5b7f4e487b7100000000000000000000000000000000000000000000000000000000600052604160045260246000fd5b612e2782612ac3565b810181811067ffffffffffffffff82111715612e4657612e45612def565b5b80604052505050565b6000612e596129a5565b9050612e658282612e1e565b919050565b600067ffffffffffffffff821115612e8557612e84612def565b5b612e8e82612ac3565b9050602081019050919050565b82818337600083830152505050565b6000612ebd612eb884612e6a565b612e4f565b905082815260208101848484011115612ed957612ed8612dea565b5b612ee4848285612e9b565b509392505050565b600082601f830112612f0157612f00612de5565b5b8135612f11848260208601612eaa565b91505092915050565b60008060008060808587031215612f3457612f336129af565b5b6000612f4287828801612bfb565b9450506020612f5387828801612bfb565b9350506040612f6487828801612b46565b925050606085013567ffffffffffffffff811115612f8557612f846129b4565b5b612f9187828801612eec565b91505092959194509250565b60008060408385031215612fb457612fb36129af565b5b6000612fc285828601612bfb565b9250506020612fd385828601612bfb565b9150509250929050565b7f4e487b7100000000000000000000000000000000000000000000000000000000600052602260045260246000fd5b6000600282049050600182168061302457607f821691505b6020821081141561303857613037612fdd565b5b50919050565b7f4552433732313a20617070726f76656420717565727920666f72206e6f6e657860008201527f697374656e7420746f6b656e0000000000000000000000000000000000000000602082015250565b600061309a602c83612a7f565b91506130a58261303e565b604082019050919050565b600060208201905081810360008301526130c98161308d565b9050919050565b7f4552433732313a20617070726f76616c20746f2063757272656e74206f776e6560008201527f7200000000000000000000000000000000000000000000000000000000000000602082015250565b600061312c602183612a7f565b9150613137826130d0565b604082019050919050565b6000602082019050818103600083015261315b8161311f565b9050919050565b7f4552433732313a20617070726f76652063616c6c6572206973206e6f74206f7760008201527f6e6572206e6f7220617070726f76656420666f7220616c6c0000000000000000602082015250565b60006131be603883612a7f565b91506131c982613162565b604082019050919050565b600060208201905081810360008301526131ed816131b1565b9050919050565b7f4f776e61626c653a2063616c6c6572206973206e6f7420746865206f776e6572600082015250565b600061322a602083612a7f565b9150613235826131f4565b602082019050919050565b600060208201905081810360008301526132598161321d565b9050919050565b7f4552433732313a207472616e736665722063616c6c6572206973206e6f74206f60008201527f776e6572206e6f7220617070726f766564000000000000000000000000000000602082015250565b60006132bc603183612a7f565b91506132c782613260565b604082019050919050565b600060208201905081810360008301526132eb816132af565b9050919050565b60008151905061330181612b2f565b92915050565b600067ffffffffffffffff82111561332257613321612def565b5b61332b82612ac3565b9050602081019050919050565b600061334b61334684613307565b612e4f565b90508281526020810184848401111561336757613366612dea565b5b613372848285612a90565b509392505050565b600082601f83011261338f5761338e612de5565b5b815161339f848260208601613338565b91505092915050565b600080600080608085870312156133c2576133c16129af565b5b60006133d0878288016132f2565b94505060206133e1878288016132f2565b93505060406133f2878288016132f2565b925050606085015167ffffffffffffffff811115613413576134126129b4565b5b61341f8782880161337a565b91505092959194509250565b6000613436826128ad565b9150613441836128ad565b9250827fffffffffffffffffffffffffffffffffffffffffffffffffffffffffffffffff0382111561347657613475612846565b5b828201905092915050565b7f6e6f7420656e6f75676820455448207061696400000000000000000000000000600082015250565b60006134b7601383612a7f565b91506134c282613481565b602082019050919050565b600060208201905081810360008301526134e6816134aa565b9050919050565b7f455243373231456e756d657261626c653a206f776e657220696e646578206f7560008201527f74206f6620626f756e6473000000000000000000000000000000000000000000602082015250565b6000613549602b83612a7f565b9150613554826134ed565b604082019050919050565b600060208201905081810360008301526135788161353c565b9050919050565b7f455243373231456e756d657261626c653a20676c6f62616c20696e646578206f60008201527f7574206f6620626f756e64730000000000000000000000000000000000000000602082015250565b60006135db602c83612a7f565b91506135e68261357f565b604082019050919050565b6000602082019050818103600083015261360a816135ce565b9050919050565b7f4e487b7100000000000000000000000000000000000000000000000000000000600052603260045260246000fd5b7f4552433732313a206f776e657220717565727920666f72206e6f6e657869737460008201527f656e7420746f6b656e0000000000000000000000000000000000000000000000602082015250565b600061369c602983612a7f565b91506136a782613640565b604082019050919050565b600060208201905081810360008301526136cb8161368f565b9050919050565b7f4552433732313a2062616c616e636520717565727920666f7220746865207a6560008201527f726f206164647265737300000000000000000000000000000000000000000000602082015250565b600061372e602a83612a7f565b9150613739826136d2565b604082019050919050565b6000602082019050818103600083015261375d81613721565b9050919050565b7f4f776e61626c653a206e6577206f776e657220697320746865207a65726f206160008201527f6464726573730000000000000000000000000000000000000000000000000000602082015250565b60006137c0602683612a7f565b91506137cb82613764565b604082019050919050565b600060208201905081810360008301526137ef816137b3565b9050919050565b7f4552433732313a206f70657261746f7220717565727920666f72206e6f6e657860008201527f697374656e7420746f6b656e0000000000000000000000000000000000000000602082015250565b6000613852602c83612a7f565b915061385d826137f6565b604082019050919050565b6000602082019050818103600083015261388181613845565b9050919050565b7f4552433732313a207472616e73666572206f6620746f6b656e2074686174206960008201527f73206e6f74206f776e0000000000000000000000000000000000000000000000602082015250565b60006138e4602983612a7f565b91506138ef82613888565b604082019050919050565b60006020820190508181036000830152613913816138d7565b9050919050565b7f4552433732313a207472616e7366657220746f20746865207a65726f2061646460008201527f7265737300000000000000000000000000000000000000000000000000000000602082015250565b6000613976602483612a7f565b91506139818261391a565b604082019050919050565b600060208201905081810360008301526139a581613969565b9050919050565b7f4552433732313a206d696e7420746f20746865207a65726f2061646472657373600082015250565b60006139e2602083612a7f565b91506139ed826139ac565b602082019050919050565b60006020820190508181036000830152613a11816139d5565b9050919050565b7f4552433732313a20746f6b656e20616c7265616479206d696e74656400000000600082015250565b6000613a4e601c83612a7f565b9150613a5982613a18565b602082019050919050565b60006020820190508181036000830152613a7d81613a41565b9050919050565b7f45524337323155524953746f726167653a2055524920736574206f66206e6f6e60008201527f6578697374656e7420746f6b656e000000000000000000000000000000000000602082015250565b6000613ae0602e83612a7f565b9150613aeb82613a84565b604082019050919050565b60006020820190508181036000830152613b0f81613ad3565b9050919050565b7f4552433732313a20617070726f766520746f2063616c6c657200000000000000600082015250565b6000613b4c601983612a7f565b9150613b5782613b16565b602082019050919050565b60006020820190508181036000830152613b7b81613b3f565b9050919050565b7f4552433732313a207472616e7366657220746f206e6f6e20455243373231526560008201527f63656976657220696d706c656d656e7465720000000000000000000000000000602082015250565b6000613bde603283612a7f565b9150613be982613b82565b604082019050919050565b60006020820190508181036000830152613c0d81613bd1565b9050919050565b7f45524337323155524953746f726167653a2055524920717565727920666f722060008201527f6e6f6e6578697374656e7420746f6b656e000000000000000000000000000000602082015250565b6000613c70603183612a7f565b9150613c7b82613c14565b604082019050919050565b60006020820190508181036000830152613c9f81613c63565b9050919050565b600081905092915050565b6000613cbc82612a74565b613cc68185613ca6565b9350613cd6818560208601612a90565b80840191505092915050565b6000613cee8285613cb1565b9150613cfa8284613cb1565b91508190509392505050565b600081519050919050565b600082825260208201905092915050565b6000613d2d82613d06565b613d378185613d11565b9350613d47818560208601612a90565b613d5081612ac3565b840191505092915050565b6000608082019050613d706000830187612bba565b613d7d6020830186612bba565b613d8a6040830185612c50565b8181036060830152613d9c8184613d22565b905095945050505050565b600081519050613db6816129e5565b92915050565b600060208284031215613dd257613dd16129af565b5b6000613de084828501613da7565b91505092915050565b7f4552433732314d657461646174613a2055524920717565727920666f72206e6f60008201527f6e6578697374656e7420746f6b656e0000000000000000000000000000000000602082015250565b6000613e45602f83612a7f565b9150613e5082613de9565b604082019050919050565b60006020820190508181036000830152613e7481613e38565b9050919050565b6000613e86826128ad565b91507fffffffffffffffffffffffffffffffffffffffffffffffffffffffffffffffff821415613eb957613eb8612846565b5b600182019050919050565b6000613ecf826128ad565b9150613eda836128ad565b925082613eea57613ee9612911565b5b828206905092915050565b7f4e487b7100000000000000000000000000000000000000000000000000000000600052603160045260246000fdfea26469706673582212202946fb71a4ffd8612afebdb65731151e96f0299ad75594cfc4c6eafe65fba15464736f6c634300080a0033",
  "immutableReferences": {},
  "source": "pragma solidity ^0.8.10;\n\nimport \"@openzeppelin/contracts/access/Ownable.sol\";\nimport \"@openzeppelin/contracts/token/ERC721/ERC721.sol\";\nimport \"@openzeppelin/contracts/token/ERC721/extensions/ERC721Enumerable.sol\";\nimport \"@openzeppelin/contracts/token/ERC721/extensions/ERC721URIStorage.sol\";\nimport \"./Metagency.sol\";\n\ncontract MetagencyCollection is Ownable, ERC721, ERC721Enumerable, ERC721URIStorage {\n  Metagency internal forSaleCollection;\n\n  address payable internal creator;\n  uint16 creatorPercentageFee;\n  uint16 agencyPercentageFee;\n  uint16 firstSaleCreatorPercentage;\n\n  function percent(uint256 _value, uint16 _percent) internal pure returns (uint256)  {\n    return _value * _percent / 10000;\n  }\n\n  constructor(\n    address payable _creator, Metagency _forSaleCollection,\n    string memory _name, uint16 _firstSaleCreatorPercentage,\n    uint16 _creatorPercentageFee, uint16 _agencyPercentageFee)\n\n    ERC721(_name, \"MTA\")  {\n    forSaleCollection = _forSaleCollection;\n    creator = _creator;\n    creatorPercentageFee = _creatorPercentageFee;\n    agencyPercentageFee = _agencyPercentageFee;\n    firstSaleCreatorPercentage = _firstSaleCreatorPercentage;\n  }\n\n  /* public */\n  function changeFees(\n  uint16 _firstSaleCreatorPercentage, uint16 _creatorPercentageFee, uint16 _agencyPercentageFee) onlyOwner public {\n    firstSaleCreatorPercentage = _firstSaleCreatorPercentage;\n    creatorPercentageFee = _creatorPercentageFee;\n    agencyPercentageFee = _agencyPercentageFee;\n  }\n\n  function mint(address _to, uint256 _tokenId) onlyOwner public {\n    super._mint(_to, _tokenId);\n  }\n\n  function buyToken(uint256 forSaleTokenId) public payable {\n    uint256 collectionTokenId;\n    uint256 availableArtworks;\n    uint256 price;\n    string memory newTokenURI;\n    (collectionTokenId, availableArtworks, price, newTokenURI) = forSaleCollection.getInfo(forSaleTokenId);\n    uint256 tokenId = collectionTokenId - availableArtworks + 1;\n    require(msg.value == price, \"not enough ETH paid\");\n    uint256 payoutCreator = percent(msg.value, firstSaleCreatorPercentage);\n    uint256 payoutOwner = msg.value - payoutCreator;\n    payable(owner()).transfer(payoutOwner);\n    payable(creator).transfer(payoutCreator);\n\n    forSaleCollection.sellItem(forSaleTokenId);\n    super._mint(address(msg.sender), tokenId);\n    _setTokenURI(tokenId, newTokenURI);\n  }\n\n  /* ERC165 */\n  function supportsInterface(bytes4 interfaceId)\n    public view virtual override(ERC721, ERC721Enumerable/*, IERC165*/) returns (bool) {\n    return super.supportsInterface(interfaceId);\n  }\n\n  /* ERC721, ERC721Enumerable */\n  function _beforeTokenTransfer(address from, address to, uint256 tokenId)\n    internal virtual override(ERC721, ERC721Enumerable) {\n    super._beforeTokenTransfer(from, to, tokenId);\n  }\n\n  /* ERC721URIStorage */\n  function tokenURI(uint256 tokenId)\n    public view virtual override(ERC721, ERC721URIStorage) returns (string memory) {\n    return super.tokenURI(tokenId);\n  }\n\n  function _burn(uint256 tokenId) internal virtual override(ERC721, ERC721URIStorage) {\n    super._burn(tokenId);\n  }\n\n  receive() external payable {\n    // fallback function only to receive ether\n    uint256 salesPrice = (msg.value * 10000) / (agencyPercentageFee+creatorPercentageFee);\n    uint256 creatorFee = percent(salesPrice, creatorPercentageFee);\n    uint256 agencyFee = msg.value - creatorFee;\n    payable(creator).transfer(creatorFee);\n    payable(owner()).transfer(agencyFee);\n  }\n}\n",
  "sourcePath": "/home/jkl/Developer/nft_marketplace/truffle/contracts/MetagencyCollection.sol",
  "compiler": {
    "name": "solc",
    "version": "0.8.10+commit.fc410830.Emscripten.clang"
  },
  "schemaVersion": "3.4.4",
  "updatedAt": "2022-01-13T19:29:42.149Z",
  "networkType": "ethereum",
  "devdoc": {
    "kind": "dev",
    "methods": {
      "approve(address,uint256)": {
        "details": "See {IERC721-approve}."
      },
      "balanceOf(address)": {
        "details": "See {IERC721-balanceOf}."
      },
      "getApproved(uint256)": {
        "details": "See {IERC721-getApproved}."
      },
      "isApprovedForAll(address,address)": {
        "details": "See {IERC721-isApprovedForAll}."
      },
      "name()": {
        "details": "See {IERC721Metadata-name}."
      },
      "owner()": {
        "details": "Returns the address of the current owner."
      },
      "ownerOf(uint256)": {
        "details": "See {IERC721-ownerOf}."
      },
      "renounceOwnership()": {
        "details": "Leaves the contract without owner. It will not be possible to call `onlyOwner` functions anymore. Can only be called by the current owner. NOTE: Renouncing ownership will leave the contract without an owner, thereby removing any functionality that is only available to the owner."
      },
      "safeTransferFrom(address,address,uint256)": {
        "details": "See {IERC721-safeTransferFrom}."
      },
      "safeTransferFrom(address,address,uint256,bytes)": {
        "details": "See {IERC721-safeTransferFrom}."
      },
      "setApprovalForAll(address,bool)": {
        "details": "See {IERC721-setApprovalForAll}."
      },
      "symbol()": {
        "details": "See {IERC721Metadata-symbol}."
      },
      "tokenByIndex(uint256)": {
        "details": "See {IERC721Enumerable-tokenByIndex}."
      },
      "tokenOfOwnerByIndex(address,uint256)": {
        "details": "See {IERC721Enumerable-tokenOfOwnerByIndex}."
      },
      "totalSupply()": {
        "details": "See {IERC721Enumerable-totalSupply}."
      },
      "transferFrom(address,address,uint256)": {
        "details": "See {IERC721-transferFrom}."
      },
      "transferOwnership(address)": {
        "details": "Transfers ownership of the contract to a new account (`newOwner`). Can only be called by the current owner."
      }
    },
    "version": 1
  },
  "userdoc": {
    "kind": "user",
    "methods": {},
    "version": 1
  }
}